:100000000000022075F101005DF101005FF10100C7
:1000100061F1010063F1010065F1010000000000E1
:1000200000000000000000000000000067F1010077
:1000300069F10100000000006BF101006DF10100A9
:100040006FF101006FF10100252102005123020030
:100050006FF101006FF101007D3102006FF10100CD
:100060006FF101006FF101006FF101006FF101000C
:100070006FF101006FF101006FF101006FF10100FC
:100080006FF10100D91A02006FF101006FF1010058
:10009000191B02006FF101006FF101006FF1010007
:1000A0006FF101006FF101006FF101006FF10100CC
:1000B0006FF101006FF1010000000000000000007E
:1000C0006FF101006FF101006FF10100692302007F
:1000D0006FF101006FF101006FF101006FF101009C
:1000E0006FF10100000000000000000000000000AF
:1000F000000000006FF101000000000081230200F9
:1001000000000000000000000000000000000000EF
:1001100000000000000000000000000000000000DF
:1001200000000000000000000000000000000000CF
:1001300000000000000000000000000000000000BF
:1001400000000000000000000000000000000000AF
:10015000000000000000000000000000000000009F
:10016000000000000000000000000000000000008F
:10017000000000000000000000000000000000007F
:10018000000000000000000000000000000000006F
:10019000000000000000000000000000000000005F
:1001A000000000000000000000000000000000004F
:1001B000000000000000000000000000000000003F
:1001C000000000000000000000000000000000002F
:1001D000000000000000000000000000000000001F
:1001E000000000000000000000000000000000000F
:1001F00000000000000000000000000000000000FF
:020000021000EC
:10F00000354936480A1A02D0072291438D463449C1
:10F0100034480A1A06D00722914381F30988022254
:10F0200082F3148830483149314A00F044F83148BD
:10F030003149324A00F03FF831483249324A00F053
:10F040003AF832483249334A00F035F83248334909
:10F05000334A00F030F833483349344A00F02BF893
:10F0600033483449344A00F026F834483449002201
:10F0700000F02CF833483449002200F027F83348D8
:10F080003349091A082902DB002202604160314A33
:10F0900090471F481F49884205D00268043003B4D6
:10F0A000904703BCF7E700208646EC46002000218D
:10F0B000294A9047FEE7884207D0521A05D00378C4
:10F0C00001300B700131013AF9D17047884202D00A
:10F0D00002700130FAE770470000022000E00120D2
:10F0E0000000022000000220203003000000002069
:10F0F00038000020D0F10100D0F101003C230300D2
:10F10000203003000000002000000020D023030076
:10F11000D0230300D0230300D0230300D023030017
:10F12000D0230300D0230300D02303001E300300AC
:10F13000583003003800002038000020380000203C
:10F14000500D0020500D0020500D0020640D0020B7
:10F15000642D00209DF10100E5F50100FEE7FEE7CA
:10F16000FEE7FEE7FEE7FEE7FEE7FEE7FEE7FEE777
:10F1700000F002B8FFF7FCBF0F484FF007018843CB
:10F1800085460E4880470E48016841F470010160D1
:10F19000BFF34F8FBFF36F8FFFF732BF09480A49A4
:10F1A0000A4A884207D0521A05D0037801300B7002
:10F1B0000131013AF9D1704700000220F91C020028
:10F1C00088ED00E0D02303000000002000000020B4
:10F1D00000B583B0094B1B88184603F02DFF03468A
:10F1E0000193019B002B04D0044B1B88184603F0AD
:10F1F000FBFE019B184603B05DF804FB00000020F5
:10F2000000B583B00190019B002B05D0044B1B88F7
:10F210000121184603F07CFE00BF03B05DF804FB3B
:10F220000000002000B585B00190019B002B0AD0A2
:10F23000074B43F001030393019B9B010293039B44
:10F240000298984700E000BF05B05DF804FB00BFDE
:10F25000D023030000B583B00190019800F006F9B7
:10F2600000BF03B05DF804FB00B583B001900198C6
:10F27000FFF7D8FF00BF03B05DF804FB00B585B011
:10F28000264B1B689B680393039B4FF080421A61D7
:10F29000039B4FF0A0525A61039B002283F82C205D
:10F2A000039B0293039B1C330193029B03221A705E
:10F2B000029B01221A73029B194A5A60029B022286
:10F2C0001A72019B03221A70019B08225A70019B3B
:10F2D0001D229A70019BFF22DA70019B02221A7193
:10F2E000019BFF225A71019B4FF080429A60019B63
:10F2F00000221A73019B00225A730A4A6B46126855
:10F30000114619800233120C1A706B4619462620DA
:10F3100003F044FD00BF05B05DF804FB10000020C1
:10F3200000F00240D823030000B585B00190019B96
:10F33000002B0AD0074B43F001030393019B9B0171
:10F340000293039B0298984700E000BF05B05DF868
:10F3500004FB00BF3024030082B00190019B1B68B6
:10F360001F2B02D84FF0A04306E0019B1B6803F05F
:10F370001F02019B1A60024B184602B0704700BF83
:10F380000003005000B585B00190084611461A46AA
:10F3900003468DF803300B468DF8023013468DF886
:10F3A000013001AB1846FFF7D7FF03909DF803200B
:10F3B0009DF802305B001A439DF801309B001A4310
:10F3C0009DF818301B0242EA03019DF81C301B0413
:10F3D000019A1943039B02F5E07243F8221000BF23
:10F3E00005B05DF804FB00B585B0039000230193E0
:10F3F000002300930023012201210398FFF7C2FF9D
:10F4000000BF05B05DF804FB00B585B0019001AB0D
:10F410001846FFF7A1FF0390039800F00AF8024690
:10F42000019B22FA03F303F00103184605B05DF8CF
:10F4300004FB82B00190019BD3F81035184602B04E
:10F44000704700B583B00190019B002B0AD04FF4A8
:10F450007A70FFF769FF019B013B0193019B002B31
:10F46000F5D100E000BF03B05DF804FB00B583B048
:10F4700001900198FFF7E5FF00BF03B05DF804FBC2
:10F4800000B583B003F026FC0190019B0093009B24
:10F49000002B04D0044A4121009800F013FC00BF67
:10F4A00003B05DF804FB00BF0024030000B583B087
:10F4B00001900B468DF8033000F034F800BF03B024
:10F4C0005DF804FB00B585B0134A01AB1268114624
:10F4D00019800233120C1A7001238DF8053001AB2C
:10F4E0000E4A1946222003F0A3FC0390039B0293CB
:10F4F000029B002B04D00A4A5721029800F0E2FB3D
:10F500000021222003F004FD3320FFF76CFF00BF31
:10F5100005B05DF804FB00BF20240300ADF401003A
:10F520000024030008B506E0074B1B68002B02D03F
:10F53000054B1B68984700F009F80346002BF3D1F0
:10F5400000BF00BF08BD00BF6800002008B5044B25
:10F550001B881846FFF758FF0346184608BD00BF32
:10F560000000002000B585B00190019B002B0AD05F
:10F57000074B43F001030393019B9B010293039B01
:10F580000298984700E000BF05B05DF804FB00BF9B
:10F590006024030000B583B00190019B002B0AD0CA
:10F5A0004FF47A70FFF7DEFF019B013B0193019B53
:10F5B000002BF5D100E000BF03B05DF804FB0000B4
:10F5C00000B583B001900199002000F099F9044939
:10F5D000002000F095F900BF03B05DF804FB00BF08
:10F5E0003824030008B500F09DF90949002000F017
:10F5F00087F9032002F081FDFFF742FFFFF73EFE8F
:10F60000FFF760FF0220FFF7C5FF00F0BBFAFEE73F
:10F610003C24030000B583B01F4B0193019B0222E1
:10F620001A61019B02225A61019B1C4A9A61019B4B
:10F630001B4ADA61019B4FF480621A62019B00222F
:10F640009A62019B00225A62019B0022DA62019BAE
:10F65000124A9A64019B134ADA64019B10221A65CC
:10F66000019B00229A65019B00225A65019B0022A2
:10F67000DA65019B07330C49184605F0ECFA019B4B
:10F680000A49184605F0E7FA019B20229A7100BF4B
:10F6900003B05DF804FB00BF6C0000206824030089
:10F6A000E4000020E4040020742403007824030014
:10F6B00000B589B003900291019200230693039B49
:10F6C000DB680593039B1B690493049A059B9A428C
:10F6D00005D9049A059BD31A013B079307E0039BC6
:10F6E0009A680499059BCB1A1344013B0793039B2B
:10F6F0009A68059BD31A079A934228BF134607932B
:10F70000079A019B934228BF13460793039B5A68AD
:10F71000059B1344079A0299184605F040FA069A89
:10F72000079B13440693029A079B13440293019A82
:10F73000079BD31A0193059A079B13440593039BD8
:10F740009B68059A9A4201D100230593039B059A71
:10F75000DA60019B002BB5D1069B184609B05DF815
:10F7600004FB00B589B0039002910192039BDB6812
:10F770000793039B9A68079BD31A0693069A019BEB
:10F780009A420ED9039B5A68079B1344019A029927
:10F79000184605F004FA079A019B1A44039BDA60A5
:10F7A0001AE0069B0593039B5A68079B1344059A2E
:10F7B0000299184605F0F3F9019A069BD31A0593AE
:10F7C000039B5868029A069B1344059A194605F054
:10F7D000E6F9039B059ADA6000BF09B05DF804FB07
:10F7E00086B00190019B1B690493019BDB68039326
:10F7F000049A039B9A4208D8019B9A68039BD21AE9
:10F80000049B1344013B059304E0049A039BD31A21
:10F81000013B0593059B184606B0704700B589B0BB
:10F82000039002910192029B0693039B5A1C13467C
:10F830005B001344DB00204A13440593059B5B697E
:10F84000022B29D0022B2ED8002B02D0012B13D053
:10F8500029E00598FFF7C4FF0490049A019B9A429F
:10F8600002D20023079321E0019B0793019A069996
:10F870000598FFF776FF19E00598FFF7B1FF0490B0
:10F88000019A049B934228BF13460793079A06994F
:10F890000598FFF766FF09E0019A06990598FFF7BA
:10F8A00007FF079002E00023079300BF079B18465D
:10F8B00009B05DF804FB00BF6C00002000B587B004
:10F8C0000390029101920D4B1B78002B01D1FFF7A1
:10F8D000A1FEEFF311834FF0200181F3118805930E
:10F8E000019A02990398FFF799FF0490059B83F30F
:10F8F0001188049B184607B05DF804FB6C000020DB
:10F9000000B585B001900091009805F0C6F903900C
:10F91000039A00990198FFF7D1FF0346184605B0F6
:10F920005DF804FB08B5FFF775FE00BF08BD0000D9
:10F9300000B585B00190019B002B0AD0074B43F026
:10F9400001030393019B9B010293039B0298984739
:10F9500000E000BF05B05DF804FB00BF8025030098
:10F9600082B00190019B1B681F2B02D84FF0A0436F
:10F9700006E0019B1B6803F01F02019B1A60024B0B
:10F98000184602B0704700BF0003005000B585B0B4
:10F99000019001AB1846FFF7E3FF0390039800F0D6
:10F9A0000AF80246019B22FA03F303F0010318460A
:10F9B00005B05DF804FB82B00190019BD3F81035CF
:10F9C000184602B0704700B583B00190019B002B30
:10F9D0000AD04FF47A70FFF7ABFF019B013B019314
:10F9E000019B002BF5D100E000BF03B05DF804FBE4
:10F9F00000B585B00190019B1B78022B52D0022BE1
:10FA000062DC002B45D0012B55D05DE0314B1B78DB
:10FA1000DBB23E2B37D82F4B1B78DBB25A1CD1B24E
:10FA20002C4A11701A469DF80F102B4B9954294BF4
:10FA30001B78DBB21A46284B0021995427492648E7
:10FA400005F08CF80346002B09D0254B01221A70D3
:10FA5000204B00221A70204B00221A7019E09DF8EA
:10FA60000F300A2B08D09DF80F300D2B04D0194B06
:10FA70001B78DBB23D2B0CD9164B00221A70164BAB
:10FA800000221A7005E0134B00221A70124B00225C
:10FA90001A700DF10F03184601F0EEFA0346002B21
:10FAA000B4D012E00F4B4FF0FF32C3F88024094B63
:10FAB00000221A7009E00B4B4FF0FF32C3F880248C
:10FAC000044B00221A7000E000BF00BF05B05DF8D3
:10FAD00004FB00BF34050020F40400208024030050
:10FAE000350500200020004030B58FB00BAB0C93E3
:10FAF0001E4B05AC1D460FCD0FC495E8030084E8EE
:10FB000003001B4B0193402302931A4B03934023A2
:10FB1000049301A905A80623174A01F01DFA03461C
:10FB20000C930B9B002B1BD01448FFF749FD0023BF
:10FB30000D930EE0002002F079FA3220FFF743FF28
:10FB4000002002F085FA3220FFF73DFF0D9B0133C4
:10FB50000D930D9B132BEDDD002002F067FA02E000
:10FB60000748FFF72DFD00BF0FB030BDB0240300E4
:10FB70003805002078050020F1F9010088240300F1
:10FB80009C24030000B585B04548FFF719FD4548A2
:10FB9000FFF716FD032002F0B0FA002303930EE0F6
:10FBA000002002F043FAC820FFF70DFF002002F00A
:10FBB0004FFAC820FFF707FF039B01330393039B12
:10FBC000022BEDDDFFF790FF032002F02FFA4FF438
:10FBD000FA70FFF7F8FE032002F03AFA3248FFF716
:10FBE000EFFC0220FFF7D2FE0346DAB22F4B1A7069
:10FBF0000220FFF7CBFE03468DF807302B4B1B7816
:10FC0000012B2DD19DF80730002B29D13220FFF791
:10FC1000DAFE0220FFF7BAFE0346002B20D1244B68
:10FC200002930DE00120FFF7CEFE029B1B781846E1
:10FC300001F054FA0346002BF4D1029B01330293E6
:10FC4000029B1B78002BF0D11A48FFF7B9FC032068
:10FC500002F0ECF9C820FFF7B6FE032002F0F8F935
:10FC6000124A9DF807301370134B1B78DBB2002B40
:10FC700012D0114B00221A70012002F0D7F90F4860
:10FC8000FFF79EFC4FF47A70FFF79DFE012002F013
:10FC9000DFF90B48FFF794FC0A20FFF794FEA7E773
:10FCA000C8240300D8240300F42403001400002017
:10FCB00018250300282503003505002048250300EA
:10FCC0006825030000B583B002900091019244F2D0
:10FCD000010071466A4600F003F803B000BD00BFA2
:10FCE00030B58BB007900691059272B600BF00F058
:10FCF000DBFC00BF00F008FB0346002BFAD1079B9A
:10FD000044F20102934216D0079B44F2020293424E
:10FD10003ED1059B09932C4A2C4BD31ADB081B04BC
:10FD200043F00100099B5B681A46099B1B68284940
:10FD300000F0ADFA39E0059B0893234A234BD31A10
:10FD4000DB081B0443F00104089B9D68089B9B682B
:10FD5000184600F0C7FC03461846089B5B68194626
:10FD6000089B1B68069A02920193009103462A465B
:10FD70001849204600F09FFA134A144BD31ADB08A7
:10FD80001B0443F001031449184600F061FA0CE02B
:10FD90000D4A0E4BD31ADB081B0443F00103069AED
:10FDA0000E49184600F062FA00BF0D4B1B6803F0C5
:10FDB0000103002B00D000BE059A0699079800F0B9
:10FDC000D9FC00BF0BB030BDC0230300902303005B
:10FDD00088250300A4250300CC250300E0250300AB
:10FDE000F0ED00E000B583B001900091019B1B682D
:10FDF0001B6800990198984700BF03B05DF804FBA9
:10FE000000B583B00190019B1B685B68019898471F
:10FE100000BF03B05DF804FB00B583B00190019B07
:10FE20001B689B680198984700BF03B05DF804FB0E
:10FE300082B00190019BDB6801225A7100BF02B0C1
:10FE4000704782B00190019BDB685B79184602B075
:10FE5000704784B00190009100238DF80F30019B12
:10FE60001B7803F00403DBB2002B24D0019B1B782A
:10FE7000C3F30103DBB2012B02D0022B0CD017E03D
:10FE8000009B1B68019A1288C2F38312D2B21344FA
:10FE90009A1C009B1A600BE0009B1B68019A528819
:10FEA000C2F3891292B213449A1C009B1A6000BFDD
:10FEB00001238DF80F309DF80F30184604B07047BD
:10FEC00000B58BB00023ADF826303B4800F015FD9F
:10FED0003A4800F012FD3A4B9B680493394B1B687B
:10FEE0000693049A069B134002339B00344A134442
:10FEF0000433089304AB19460898FFF7AAFF03469A
:10FF0000002B09D0049A069B134002339B002C4A15
:10FF1000134404330893EDE700BF0023079311E077
:10FF2000049B5A1C0492069A1340079A920001A956
:10FF30000A44234902339B000B445B681360079B10
:10FF400001330793079B012BEAD99DF80430C3F3D3
:10FF50000103DBB2012B10D0022B1CD1BDF80A30FB
:10FF6000ADF82630BDF80630C3F389139BB20333D6
:10FF70009A08049B134404930EE0BDF80A30ADF8D0
:10FF80002630BDF80430C3F38313DBB21A46049B5A
:10FF90001344049300E000BF084800F0BAFC059049
:10FFA000059B002B02D0049B054A9360BDF82630C8
:10FFB00018460BB05DF804FBA00A00209C0A002044
:10FFC000880600201800002000B585B000210748F1
:10FFD00000F01CFC0390039B0293029B83F310032D
:10FFE0000193019B184605B05DF804FBA40A0020AC
:10FFF00000B589B00390029101920093039B1B0C02
:020000022000DC
:100000000693FFF7E1FF0790079B1904009B5A1C1A
:100010000A9B1340069A0A431B4902339B000B4478
:100020005A60009A0A9B134002339B00164A1344FD
:1000300004330593039B03F00703D9B2059A1378A1
:1000400061F3C5031370019B03F00F03D9B2059A46
:10005000138861F389131380029BC3F31501059A7A
:10006000136861F39F231360059A1378012161F3EC
:1000700001031370059A13786FF38203137000BFA6
:1000800009B05DF804FB00BF8806002000BF704780
:1000900000B58BB00390029113468DF80730039B97
:1000A0000233089301238DF81F30002000F05AFC22
:1000B0003E4B5A68029B1A603D4B1A683B4B99684D
:1000C0003A4B5B68CB1A13440133099314E00121C6
:1000D000384800F0E2FBFFF7F3FE0590059935483C
:1000E00000F0DBFB324B1A68304B99682F4B5B6892
:1000F000CB1A134401330993089A099B9A42E6D814
:100100009DF81F30002B48D0002304939DF8073042
:10011000002B17D09DF81030012262F301038DF8F7
:1001200010309DF8103043F004038DF81030039B1D
:1001300003F00F03DAB2BDF8103062F38913ADF8A3
:10014000103016E09DF81030022262F301038DF8A2
:1001500010309DF8103043F004038DF81030039BED
:10016000C3F309039AB2BDF8123062F38F13ADF8EE
:1001700012300E4B5A680E4B1B68134002339B0023
:100180000A4A134404330693049A069B1A60074BE9
:100190005A68089B1344054A5360002000F0EBFBAB
:1001A0009DF81F3018460BB05DF804FB8806002050
:1001B00018000020A40A002000B58BB0059004911F
:1001C00003920293204B1B68079306AB012219464A
:1001D0000298FFF75DFF0346002B24D0069B0233F5
:1001E00009930023089311E0089B9B00039A1A448B
:1001F000099B591C099107990B4012681349023356
:100200009B000B445A60089B01330893089A029B99
:100210009A42E9D3069A079B00931346029A0499DF
:100220000598FFF7E5FE094B1B78002B05D000BFB2
:1002300000F06AF80346002BFAD1FFF727FF00BF52
:100240000BB05DF804FB00BF1800002088060020FA
:1002500000B583B00190009100230022009901981D
:10026000FFF7AAFF00BF03B05DF804FB00B587B03D
:10027000039002910192019B059305AA0123029923
:100280000398FFF799FF00BF07B05DF804FB00B5C6
:1002900087B00390029101920093019B0493009B0D
:1002A000059304AA022302990398FFF785FF00BF74
:1002B00007B05DF804FB00B58BB00390029101928A
:1002C0000093019B0593009B06930C9B07930D9B4A
:1002D00008930E9B099305AA052302990398FFF73B
:1002E0006BFF00BF0BB05DF804FB0000054B9A6884
:1002F000044B5B689A420CBF01230023DBB2184613
:10030000704700BF8806002000B599B0FFF7EEFFE8
:100310000346002B01D00023B9E19B4B0022C3F818
:100320001824BFF34F8F00BF974B9B680493974BE4
:100330001B681093049A109B134002339B00924A4F
:1003400013440433119300231793002316930023BF
:100350000F9304AB19461198FFF77BFD0346002B62
:1003600019D0894BD3F81834002B14D1864B5A6816
:10037000049B9A4205D8844B5B68834A93600023B0
:1003800085E1049A109B134002339B007E4A13447C
:1003900004331193DDE70023159311E0049B5A1CED
:1003A0000492109A1340159A920001A90A447649C2
:1003B00002339B000B445B681360159B013315935C
:1003C000159B012BEAD99DF8043003F00303DBB23F
:1003D000022B40F09C80BDF80630C3F389139BB21A
:1003E0000D93BDF80630C3F389139BB2502B28BF81
:1003F00050239BB20C930C9BC3F309039AB2BDF834
:10040000063062F38F13ADF806300C9B08330B9364
:100410009DF80430C3F3C203DBB20F930B995C4821
:1004200000F0B4FA1790179B002B00F0D3801798B8
:1004300000F03DFB01A9169B0822179800F0E1FB94
:10044000169B08331693049BDA43109B1340013329
:100450009B000A930C9A0A9B9A4242D90A9B002B52
:1004600008D0049A109B134002339B00464A134461
:10047000043300E0474B08930A9B002B02D00A9BF1
:10048000DBB201E00C9BDBB28DF81F300A9B002B26
:1004900001D0404B00E0002306930A9B002B06D0BE
:1004A0000C9BDAB20A9BDBB2D31ADBB200E000236A
:1004B0008DF817309DF81F20169B0899179800F0AB
:1004C000A0FB9DF81F30169A13441693069B002B31
:1004D00016D09DF81720169B0699179800F091FBEF
:1004E0000EE0049A109B134002339B00264A1344EB
:1004F00004330993169B0C9A0999179800F081FB15
:100500000D9B03339A08049B1344049362E09DF807
:10051000043003F00303DBB2012B5BD1BDF80430E0
:10052000C3F38313DBB2062B28BF0623DAB2BDF870
:10053000043062F38913ADF80430BDF80430C3F31E
:100540008313DBB202330E939DF80430C3F3C2036E
:10055000DBB20F930E9B9B0019460D4800F016FA74
:100560001790179B002B35D0179800F0A0FA01A91F
:10057000169B0822179800F044FB169B083316932D
:10058000002315931DE000BF8806002018000020FE
:10059000500D002094060020049B5A1C0492109ACF
:1005A000134002339B003C4A1344191D169B04223E
:1005B000179800F026FB169B04331693159B013306
:1005C0001593BDF80430C3F38313DBB21A46159BB1
:1005D0009342E1D3179B002B39D02F4BD3F8103423
:1005E00014932D4BD3F81834002B1BD0179800F020
:1005F0006DFA46E000238DF84F301498FFF721FC88
:100600000346002B02D001238DF84F309DF84F3068
:10061000002B03D017991498FFF7E4FB149BDB68B9
:100620001B681493149B002BE4D1179800F04EFA2A
:10063000002000F097F9184BD3F81834002B02D1A2
:10064000049B154A9360002000F095F919E0124BC5
:10065000D3F81034129306E01298FFF7DDFB129BDB
:10066000DB681B681293129B002BF5D10B4A0C4BD5
:10067000D31ADB081B0443F002030A491846FFF7AC
:10068000E7FDFFF733FE034683F00103DBB21846B4
:1006900019B05DF804FB00BF88060020C0230300EA
:1006A00090230300FC25030000B583B00C4BD3F866
:1006B000103401930A4B01221A7009E00198FFF7E8
:1006C000B7FB0198FFF79CFB019BDB681B6801935C
:1006D000019B002BF2D100BF00BF03B05DF804FB0B
:1006E0008806002000B585B00190019800F00EF852
:1006F0000390039B002B01D0039B00E0024B1846A4
:1007000005B05DF804FB00BF1026030086B0019021
:10071000164B0593164B04931FE0049A059BD31ABE
:10072000DB10DA0F13445B10DB00059A13440393CC
:10073000039B1B680293029A019B9A4202D9039B76
:1007400004930AE0029A019B9A4203D2039B083366
:10075000059302E0039B5B6804E0059A049B9A42C0
:10076000DBD30023184606B0704700BFE42903001E
:10077000FC2A030086B003900291019201238DF8B8
:1007800017309DF81730204A039B13601E4A029BC6
:1007900053601D4A019B9360039B44F20102934204
:1007A00012D0039B44F20202934220D1019B164ACD
:1007B000D360154BDB681B68134A9361124BDB68EF
:1007C0005B68114AD36112E0019B0F4A13610E4B23
:1007D0001B699B680C4A53610B4B1B691B680A4AD7
:1007E0009361094B1B695B68074AD36100BF72B60E
:1007F00000BF00BF9DF81730DBB2002BFAD162B604
:1008000000BF00BF06B07047A80A002010B487B030
:1008100001900091019B009A53E8004F104643E875
:10082000000191F0000FF7D1059404900391059B0E
:10083000184607B05DF8044B704710B487B00190BC
:100840000091019B009A53E8004F44EA020043E8FC
:10085000000191F0000FF6D1059404900391049BE0
:10086000184607B05DF8044B704710B487B001908C
:100870000091019B009A53E8004F04EA020043E80C
:10088000000191F0000FF6D1059404900391059BAF
:10089000184607B05DF8044B704710B487B001905C
:1008A0000091019B009A53E8004F04EB020043E8DB
:1008B000000191F0000FF6D1059404900391049B80
:1008C000184607B05DF8044B704710B487B001902C
:1008D0000091019B009A53E8004FA4EB020043E80B
:1008E000000191F0000FF6D1059404900391049B50
:1008F000184607B05DF8044B704700B583B001900F
:1009000001210198FFF799FF0346184603B05DF8EF
:1009100004FB00B583B0019000210198FFF7A5FF0B
:100920000346184603B05DF804FB000072B600BF32
:10093000034B1B680133024A136000BF704700BFBE
:10094000C80A0020064B1B68013B054A1360044B94
:100950001B68002B01D162B600BF00BF704700BF0B
:10096000C80A002000B583B00190FFF7DFFF00BF89
:1009700003B05DF804FB00B583B003468DF8073083
:10098000FFF7E0FF00BF03B05DF804FB00B58BB0DC
:1009900001900091019B1B8A043B0793009A079BDF
:1009A0001344DA1C079BB2FBF3F38DF81B3001985C
:1009B00000F05BF90590059B002B01D1002338E086
:1009C000059B00221A71059B01225A71079B9AB25E
:1009D000059BDA80059B09939DF81B30013B04932E
:1009E000099B019A1A60002308931DE0019800F00A
:1009F0003CF90390039B002B0ED0059B5B790133E0
:100A0000DAB2059B5A71099B039A1A60039B019AFB
:100A10001A60039B099304E0059800F00EF8002388
:100A200007E0089B01330893089A049B9A42DDD3A0
:100A3000059B18460BB05DF804FB00B58BB0019028
:100A4000019B0793079B5B798DF81B30019B0893F3
:100A50009DF81B30013B05930023099305E0089B9B
:100A60001B680893099B01330993099A059B9A42D5
:100A7000F5D3089B1B680493019B089300230993FB
:100A80000BE0089B1B6803930899049800F024F975
:100A9000039B0893099B013309939DF81B30099A26
:100AA0009A42EED300BF00BF0BB05DF804FB00B567
:100AB00085B00190019B0393039B043301211846E9
:100AC000FFF7EBFE00BF05B05DF804FB00B587B093
:100AD0000190019B0593059B043301211846FFF704
:100AE000F4FE0346039303AB0493049B1B78002B93
:100AF00002D10198FFF7A1FF00BF07B05DF804FB2A
:100B000000B591B00390029101920093039B099369
:100B1000039B0F93099BDB881A46099B5B7902FBB9
:100B200003F3043B0893099BDB880793009B1A1D82
:100B3000079BB2FBF3F30E93009B0433079AB3FBBE
:100B4000F2F2079901FB02F29B1A0D93019B1A68BE
:100B5000009B1344089A9A4203D2089A009BD31A26
:100B600001E0019B1B680C93019B0C9A1A6005E045
:100B70000F9B1B680F930E9B013B0E930E9B002B4C
:100B8000F6D100230B93079A0D9BD31A0A930A9A66
:100B90000C9B934228BF13460A932AE0029A0B9BB0
:100BA000134406930F9A0D9B1344043305939DF849
:100BB0004830002B05D00A9A0599069803F0EFFFFC
:100BC00004E00A9A0699059803F0E9FF00230D93C3
:100BD0000F9B1B680F930C9A0A9BD31A0C930B9ACA
:100BE0000A9B13440B93079A0C9B934228BF13460E
:100BF0000A930C9B002BD1D100BF00BF11B05DF850
:100C000004FB00B589B00590049103920293039B05
:100C1000079307AA00230093029B04990598FFF706
:100C20006FFF00BF09B05DF804FB82B001900B4676
:100C30008DF80330019BDA689DF803300199098A29
:100C400001FB03F31344184602B0704782B00190D1
:100C50000091009B019AD2689B1A019A128AB3FBF9
:100C6000F2F3DBB2184602B0704700B585B00190D0
:100C7000002303930020FFF775FE019B1B681A6891
:100C8000019B5B689A421FD9019B1B681A68013A55
:100C90001A601B681B7819460198FFF7C6FF03907E
:100CA000019B9A68019B1B681B68D31A8DF80B3057
:100CB000019B1B681B799DF80B209A4204D9019B6C
:100CC0001B689DF80B201A710020FFF754FE039B50
:100CD000184605B05DF804FB10B584B00190009192
:100CE000009B03930020FFF73DFE019B1B681C68DF
:100CF000621C1A6003990198FFF7A8FF034623704E
:100D00000020FFF738FE00BF04B010BD00B587B06B
:100D10000390029113468DF8073000230593039B3F
:100D20001B781A46114B9B5C002B09D0039B0433A4
:100D30009DF807200299184603F078FB05900FE014
:100D4000039B1B781A46094B9B5C002B08D1039B25
:100D50000C339DF807200299184602F091FD05908A
:100D6000059B184607B05DF804FB00BF480D002046
:100D700000B585B0019000238DF80F30019B1B78E2
:100D80001A46114B9B5C002B08D0019B043318467C
:100D900003F0E2FB03468DF80F300EE0019B1B7859
:100DA0001A46094B9B5C002B07D1019B0C3318465C
:100DB00002F0D2FD03468DF80F309DF80F30184633
:100DC00005B05DF804FB00BF480D002000B587B0FA
:100DD0000390029113468DF8073000230593039B7F
:100DE0001B781A46114B9B5C002B09D0039B0433E4
:100DF0009DF807200299184603F0C6FB05900FE006
:100E0000039B1B781A46094B9B5C002B08D1039B64
:100E10000C339DF807200299184602F0F5FD059065
:100E2000059B184607B05DF804FB00BF480D002085
:100E300084B00190019B9B680393019BDA68039B3C
:100E4000D31A184604B0704700B587B001900091DE
:100E5000019B1B78022B45D0022B6ADC002B52D061
:100E6000012B66D1019B1B7A002B05D1012233494E
:100E70003348FFF7ABFF5DE0019B5B681B781946C9
:100E8000304800F0D4F90590059B002B0AD00123CF
:100E90008DF80C30059B04932B4B1B6803AA10465E
:100EA00098470DE02748FFF7C3FF0346002B07D004
:100EB00000238DF80C30244B1B6803AA104698477A
:100EC0002048FFF7B5FF03461E4A9288934205D893
:100ED00001221A491A48FFF779FF2BE01B4B012228
:100EE0001A7027E002238DF80C30019BDB68049315
:100EF000012212491248FFF769FF134B1B6803AA2E
:100F00001046984716E01249124800F0ABF9034624
:100F1000002B05D101220E490948FFF7F7FE09E031
:100F200003238DF80C30084B1B6803AA1046984722
:100F300000E000BF00BF07B05DF804FBD40A00204A
:100F40001C000020D80A0020CC0A0020D50A00206E
:100F5000D00A0020E80A002030B591B00390029139
:100F600001928DF803303C4A019B1360029B002BD9
:100F700001D107236DE0029B1968029B5B689BB25D
:100F80001A46364800F027F90F900F9B0E930E9BE0
:100F9000002B01D00E9B5CE0029B9968029BDB68F2
:100FA0009BB21A462E4800F016F90F900F9B0D9336
:100FB0000D9B002B01D00D9B4BE02A4B04AC1D4632
:100FC0000FCD0FC495E80F0084E80F00039B5B6909
:100FD0000A93039B1B7C002B14BF01230023DBB26D
:100FE0008DF824309DF803308DF82C30039B5B7C0A
:100FF000002B01D00E2300E000238DF82530039B49
:10100000DB680693039B9B680793039B1B68059310
:10101000039B5B68049304AB134A1946134803F01F
:10102000F5FC0F900F9B0C930C9B002B01D00C9B9D
:101030000FE00F4B00221A70039B1B68B3F1FF3FB8
:1010400006D001220B490948FFF7C0FE034600E025
:101050000023184611B030BDCC0A0020D80A002069
:10106000E80A0020FC2A0300490E02001C000020B0
:10107000D50A0020D40A002000B587B00190124B99
:101080001B788DF817300199104800F0EBF80490A8
:101090009DF81730002B12D00B4B00221A70012242
:1010A0000B490C48FFF792FE0390039B0293029BAF
:1010B000002B04D0084AD6210298FEF703FE049BB9
:1010C000184607B05DF804FBD50A0020D80A0020B6
:1010D000D40A00201C0000201C2B030000B585B0A2
:1010E00003468DF807309DF807301946104800F088
:1010F0009EF80390039B002B15D10E48FFF738FE96
:10110000034683F00103DBB2002B0CD00A490848E8
:1011100000F0A8F80346002B05D101220649054836
:10112000FFF7F4FD0390039B184605B05DF804FB40
:10113000E80A00201C000020D00A002084B00190A2
:10114000019B9B680393019BDA68039BD31A1846A3
:1011500004B0704782B001900B468DF80330019BBC
:101160001A68019BDB68019989880B4013449DF83C
:1011700003201A70019BDB685A1C019BDA6000BFD8
:1011800002B0704784B003900B460192ADF80A306C
:10119000039B1A68039B9968BDF80A300B440399B6
:1011A00089880B4013441A78019B1A7000BF04B061
:1011B000704700B583B001900091009A002101981A
:1011C000FFF7E0FF019B9B685A1C019B9A6000BFE0
:1011D00003B05DF804FB84B0039002911346ADF8B0
:1011E0000630029B002B01D10E231DE0BDF8063016
:1011F000002B07D0BDF806305A1EBDF8063013404C
:10120000002B01D009230FE0039B029A1A60BDF85E
:101210000630013B9AB2039B9A80039B00229A609E
:10122000039B0022DA600023184604B0704700B523
:1012300083B001900B468DF803300198FFF77EFFD5
:101240000246019B9B889A4207D89DF803301946B5
:101250000198FFF77FFF002300E00423184603B046
:101260005DF804FB00B583B0019000910198FFF791
:1012700065FF0346002B05D000990198FFF799FF01
:10128000002300E00523184603B05DF804FB0000CE
:1012900082B003468DF807309DF90730002B0CDB38
:1012A0009DF8073003F01F0205499DF907305B09DF
:1012B000012000FA02F241F8232000BF02B070477B
:1012C00000E100E082B003468DF807309DF9073059
:1012D000002B13DB9DF8073003F01F0209499DF92D
:1012E00007305B09012000FA02F2203341F8232085
:1012F000BFF34F8F00BFBFF36F8F00BF00BF02B0BF
:10130000704700BF00E100E082B003468DF807306F
:101310009DF90730002B0DDB9DF8073003F01F020D
:1013200006499DF907305B09012000FA02F24033BB
:1013300041F8232000BF02B0704700BF00E100E089
:1013400082B003468DF807309DF90730002B0DDB86
:101350009DF8073003F01F0206499DF907305B092D
:10136000012000FA02F2603341F8232000BF02B0EE
:10137000704700BF00E100E000B585B00190019B1F
:10138000002B0AD0074B43F001030393019B9B0101
:101390000293039B0298984700E000BF05B05DF8F8
:1013A00004FB00BF702B030008B50D4B4FF48032D7
:1013B000C3F844230A4B4FF48032C3F804231120AE
:1013C000FFF7BEFF1120FFF763FF054B01221A60F4
:1013D0002F20FFF7D1FF034B01221A7000BF08BD79
:1013E00000100140160C002008B51120FFF76AFF1D
:1013F0000E4B4FF48032C3F848230C4B4FF480322D
:10140000C3F80823094B01225A602F20FFF7B4FFCD
:10141000064B01229A60064B00221A602F20FFF72C
:10142000ABFF044B00221A7000BF08BD0010014042
:10143000080C0020160C0020024BD3F80435184687
:10144000704700BF0010014082B001900091019AE6
:10145000009BD31A23F07F43184602B07047000068
:1014600082B00190034A019BC2F8403500BF02B030
:10147000704700BF0010014086B00190284B1B68E8
:10148000002B03D1264A019B136045E0019B1A689B
:10149000234B1B681B689A4210D8214B1B681968A4
:1014A000019B1A681E4B1B688A1A1A601C4B1A682B
:1014B000019BDA611A4A019B13602DE0019B1B68B6
:1014C0000393174B1B680593154B1B68049309E0A6
:1014D000049B1B68039AD31A0393049B0593049BF4
:1014E000DB690493049B002B04D0049B1B68039AC4
:1014F0009A42EDD8049B002B05D0049B1A68039BED
:10150000D21A049B1A60019B039A1A60019B049AE9
:10151000DA61059B019ADA6100BF06B0704700BF2F
:10152000040C002000B587B001902A4B1B68039380
:10153000284B1B680593059B049308E0049A019BC4
:101540009A4208D0049B0593049BDB690493049B97
:10155000002BF3D100E000BF049B002B01D100233E
:1015600033E0059A049B9A4214D11A4B1B68DB693D
:10157000184A1360174B1B68002B0BD1164B012226
:101580009A60164B00221A60154B01221A702F2008
:10159000FFF7F2FE049B1B680293049BDA69059B2C
:1015A000DA61059BDB690493049B002B05D0049B47
:1015B0001A68029B1A44049B1A60064B1B68039A24
:1015C0009A4214BF01230023DBB2184607B05DF82E
:1015D00004FB00BF040C002000100140080C002098
:1015E000170C002008B51120FFF78EFE00BF08BDC4
:1015F00008B51420FFF788FE00BF08BD00B583B012
:101600000190019B5B69019A92691046984700BF5F
:1016100003B05DF804FB000000B585B02B4B1B68E0
:10162000002B4ED000230193FFF706FF0246284B04
:101630001B6819461046FFF707FF0290234B1B68F3
:1016400003931DE0039B1B68029A9A421CD3039BE1
:101650001B68029AD31A0293039B1B68019A1344D6
:101660000193039B0093039BDB690393009B1B7C0B
:10167000002B05D0009B00221A740098FFF7BEFFD4
:10168000039B002BDED100E000BF124B1A78124BF7
:101690001B789A420CD1104B1B780133DAB20E4BF7
:1016A0001A700D4B1B78022B02D10B4B00221A70C3
:1016B000094B1B781946094A019B42F82130FFF774
:1016C00097FF00BF05B05DF804FB00BF040C0020CD
:1016D000080C0020140C0020150C00200C0C00201D
:1016E00082B00190184B1A78184B1B789A4223D07D
:1016F000154B1B780133DAB2134B1A70124B1B785F
:10170000022B02D1104B00221A700F4B1B781A4685
:101710000F4B53F82220019B1A60019B1A680D4B56
:101720001B6813440B4A13600A4B1B6823F07F436A
:10173000084A1360012303E0019B00221A60002382
:10174000184602B0704700BF140C0020150C002092
:101750000C0C0020080C002088B00390029101922C
:101760000023079338E0204B1B680693069B1B68F9
:10177000039A9A4206D2069B1A68039BD21A069BCA
:101780001A602EE0069B1B68039AD31A0393069BEC
:101790001B68079A13440793069B00221A60124B9A
:1017A0001B680593069BDB690F4A1360069BDB6889
:1017B000002B11D0029A079B134423F07F42069B13
:1017C0005A60069BDA68069B9A60019B1A68069B22
:1017D000DA61019B059A1A60034B1B68002BC2D18A
:1017E00000BF00BF08B07047040C002000B589B0EE
:1017F000019000238DF81F30664B1B680593AAE00B
:10180000019B002B05D0019B0693069BDB6901938E
:1018100061E0614B1B781A4613465B001344DB0002
:101820005D4A1344043304935B4B1B780133DAB2F3
:10183000594B1A70584B1A78574B9B789A4202D1E1
:10184000554B00221A70049B5B680693049B1B781F
:10185000032B1ED0032B7EDC012B1FD0022B7AD151
:10186000049B5B681846FFF75DFE0346002B02D021
:1018700001238DF81F30069B00221A746BE0454B44
:101880001B680393039B00221A74039BDB69414A84
:101890001360404B1B68002BF1D15CE000BF069B3E
:1018A0001B7C002B00D056E0049B9A68069B5A6074
:1018B000049BDA68069B9A60049B1A69069BDA60AF
:1018C000049B5A69069B9A61344B1B78002B02D00B
:1018D000069B00225A60069B5A68314B1B68D31A3C
:1018E00023F07F432F4A93420ED8069B5B682C4A15
:1018F000126811461846FFF7A7FD0246069B9B6833
:101900001A44069B1A6017E0254B1A68069B5B6811
:1019100019461046FFF798FD0290069B9B68029AB5
:101920009A4206D2069B9A68029BD21A069B1A60BC
:1019300002E0069B00221A60069B00225A60069B6A
:1019400000229A60069B01221A74069B0022DA612B
:101950000698FFF791FD019B002B7FF451AF0E4BD2
:101960001A780D4B5B789A427FF44AAF9DF81F308E
:10197000002B04D1074B1B68059A9A4201D0012322
:1019800000E0002303F00103DBB2184609B05DF864
:1019900004FB00BF040C0020F80A0020170C0020F4
:1019A000080C0020FEFF7F0010B588B00190274B87
:1019B0001B68002B44D0254B1B681B680793FFF75F
:1019C0003BFD0690224B1B68059305990698FFF78F
:1019D0003BFD0346033304931E4B1B7883F0010346
:1019E000DBB2002B01D0FFF7DFFC049A079B934288
:1019F00038BF1346059A13440593059B23F07F4394
:101A000005930598FFF72CFDFFF716FD0390069947
:101A10000398FFF719FD0346DC1C06990598FFF7AC
:101A200013FD03469C420DD9FFF706FD03461846F9
:101A3000FFF716FD2F20FFF79FFCFFF7D3FD01E016
:101A4000FFF7D2FC00BF08B010BD00BF040C00209F
:101A5000080C0020160C002000B587B0002301936D
:101A600000238DF81730194B1B680493184B1B6823
:101A700003936B461846FFF733FE03468DF80B3091
:101A80009DF80B30002B08D0009B01AA0499184642
:101A9000FFF762FE01238DF81730019B1846FFF710
:101AA000A5FE0346002B02D001238DF817309DF8C8
:101AB0001730002B02D00398FFF776FF054B00226A
:101AC0001A7000BF07B05DF804FB00BF080C0020CF
:101AD000040C0020170C002008B50E4B0022C3F8A0
:101AE00040210C4B0022C3F844210A4B0022C3F8CA
:101AF0004821084B0022C3F84C21064B0022C3F8B2
:101B00000021044B0022C3F80421FFF785FD00BF2C
:101B100008BD00BF0010014008B5FFF79DFF00BFE2
:101B200008BD0000BFF34F8F00BF064BDB6803F416
:101B3000E0620449044B1343CB60BFF34F8F00BFF7
:101B400000BFFDE700ED00E00400FA0582B0114B94
:101B50001B680193104B1B680093019B0D2B14D144
:101B6000009B022B0DD0009B022B0CD8009B002B5E
:101B700003D0009B012B02D005E0012306E00123E6
:101B800004E0012302E0012300E00023184602B034
:101B9000704700BF300100103401001082B0114BBB
:101BA0001B680193104B1B680093019B0D2B14D1F4
:101BB000009B022B0DD0009B022B0CD8009B002B0E
:101BC00003D0009B012B02D005E0012306E0012396
:101BD00004E0012302E0012300E00023184602B0E4
:101BE000704700BF300100103401001082B0114B6B
:101BF0001B680193104B1B680093019B0D2B14D1A4
:101C0000009B022B0DD0009B022B0CD8009B002BBD
:101C100003D0009B012B02D005E0012306E0012345
:101C200004E0012302E0012300E00023184602B093
:101C3000704700BF300100103401001082B0114B1A
:101C40001B680193104B1B680093019B0D2B14D153
:101C5000009B022B0DD0009B022B0CD8009B002B6D
:101C600003D0009B012B02D005E0002306E00023F7
:101C700004E0012302E0012300E00023184602B043
:101C8000704700BF300100103401001008B5FFF7A5
:101C9000D5FF0346002B07D04FF010234FF08042B2
:101CA000D3F80832C2F8583500BF08BD00BF044B56
:101CB000D3F80034002BFAD000BF00BF704700BF3C
:101CC00000E0014000B583B00190054A019BC2F8D5
:101CD0000435FFF7EBFF00BF03B05DF804FB00BF66
:101CE00000E00140024B034A1A6000BF704700BF8A
:101CF000300000200090D00308B5FFF727FF03460F
:101D0000002B0ED04FF080430022C3F80C214FF07F
:101D100080430022C3F810214FF080430022C3F813
:101D20003825FFF73BFF0346002B76D04FF080535A
:101D30005E4AD3F80434C2F820354FF080535B4A32
:101D4000D3F80834C2F824354FF08053574AD3F8FB
:101D50000C34C2F828354FF08053544AD3F810346D
:101D6000C2F82C354FF08053504AD3F81434C2F8DF
:101D700030354FF080534D4AD3F81834C2F834351B
:101D80004FF08053494AD3F81C34C2F840354FF025
:101D90008053464AD3F82034C2F844354FF080537C
:101DA000424AD3F82434C2F848354FF080533F4AB2
:101DB000D3F82834C2F84C354FF080533B4AD3F85F
:101DC0002C34C2F850354FF08053384AD3F83034B1
:101DD000C2F854354FF08053344AD3F83434C2F843
:101DE00060354FF08053314AD3F83834C2F8643547
:101DF0004FF080532D4AD3F83C34C2F868354FF089
:101E000080532A4AD3F84034C2F86C354FF08053DF
:101E1000264AD3F84434C2F87035FFF7E7FE03468C
:101E2000002B0DD04FF08043D3F8003403F00103B2
:101E3000002B05D04FF080436FF00102C3F800245F
:101E40001B4BD3F888301A4A43F47003C2F8883029
:101E5000BFF34F8F00BFBFF36F8F00BFFFF716FFB9
:101E60004FF01023D3F80032002B05DB4FF0102386
:101E7000D3F80432002B15DA0120FFF723FF4FF0CF
:101E800010231222C3F80022FFF710FF4FF0102397
:101E90001222C3F80422FFF709FF0020FFF712FF08
:101EA000FFF740FEFFF71EFF00BF08BD00C0004067
:101EB00000ED00E082B00190019B1B681F2B02D84F
:101EC0004FF0A04306E0019B1B6803F01F02019B3B
:101ED0001A60024B184602B0704700BF0003005062
:101EE00000B585B00190084611461A4603468DF8A4
:101EF00003300B468DF8023013468DF8013001ABEC
:101F00001846FFF7D7FF03909DF803209DF8023095
:101F10005B001A439DF801309B001A439DF818306E
:101F20001B0242EA03019DF81C301B04019A19436D
:101F3000039B02F5E07243F8221000BF05B05DF884
:101F400004FB00B585B003900023019300230093A8
:101F50000023012201210398FFF7C2FF00BF05B053
:101F60005DF804FB00B585B003900B468DF80B308F
:101F70009DF80B30002201920022009200220021E5
:101F80000398FFF7ADFF00BF05B05DF804FB00B597
:101F900085B0019001AB1846FFF78CFF0390019BC1
:101FA000012202FA03F31946039800F02AF800BF51
:101FB00005B05DF804FB00B585B0019001AB184693
:101FC000FFF778FF0390019B012202FA03F3194601
:101FD000039800F020F800BF05B05DF804FB00B5E1
:101FE00083B001900091009B002B03D10198FFF773
:101FF000E2FF02E00198FFF7CAFF00BF03B05DF8FF
:1020000004FB82B001900091019B009AC3F808255F
:1020100000BF02B0704782B001900091019B009A0E
:10202000C3F80C2500BF02B07047000000B583B0B4
:102030000190064A019B13441B7800211846FFF7C4
:10204000CEFF00BF03B05DF804FB00BF782B030098
:1020500000B583B00190064A019B13441B7801210F
:102060001846FFF7BCFF00BF03B05DF804FB00BFDC
:10207000782B030000B583B00023019305E001989D
:10208000FFF7E6FF019B01330193019B032BF6D978
:1020900000BF00BF03B05DF804FB000000B583B0D3
:1020A0000023019309E0094A019B13441B78184659
:1020B000FFF747FF019B01330193019B032BF2D9EB
:1020C000FFF7D8FF00BF03B05DF804FB782B0300D7
:1020D00000B583B00023019307E0022303211846D3
:1020E000FFF740FF019B01330193019B002BF4D0CC
:1020F00000BF00BF03B05DF804FB00B583B00190E2
:10210000019B03F00103002B01D0FFF7C7FF019BE8
:1021100003F00203002B01D0FFF7DAFF00BF03B08A
:102120005DF804FB08B5024B1B68984700BF08BD6B
:10213000180C002082B00190019B044A934201D107
:10214000034B00E00023184602B070470020004017
:10215000180C002000B587B0019000910198FFF79E
:10216000E9FF0390039B002B1ED000238DF817304E
:102170000020FEF7F7FB039B1B79002B03D0012304
:102180008DF8173005E0039B009A1A60039B01222B
:102190001A710020FEF7EFFB9DF81730002B03D0DB
:1021A00011230493049B02E000230493049B18462C
:1021B00007B05DF804FB84B001900B46ADF8023027
:1021C000BDF80230019A134400221A60BDF80230B3
:1021D000019A13441B680393039B00BF04B070472C
:1021E00082B001900B46ADF80230BDF80230019A82
:1021F00013441B68002B14BF01230023DBB21846D5
:1022000002B0704782B00190019B1B681F2B02D85F
:102210004FF0A04306E0019B1B6803F01F02019BE7
:102220001A60024B184602B0704700BF000300500E
:1022300000B585B0019001AB1846FFF7E3FF0390AE
:10224000019B012202FA03F31946039800F018F8E3
:1022500000BF05B05DF804FB00B585B0019001AB8F
:102260001846FFF7CFFF0390019B012202FA03F308
:102270001946039800F00EF800BF05B05DF804FBA6
:1022800082B001900091019B009AC3F8082500BF1D
:1022900002B0704782B001900091019B009AC3F890
:1022A0000C2500BF02B07047024A034B1B68136045
:1022B00000BF7047000E00408C0C002000B583B0BA
:1022C0000190019BDB7FFF2B0ED0019B9B7F002B9E
:1022D00005D0019BDB7F1846FFF7BEFF04E0019BA2
:1022E000DB7F1846FFF7A4FF019B00225A77019B72
:1022F00000221A72019B1B68019A02F10800019AE0
:1023000052681146984700BF03B05DF804FB000017
:1023100000B583B0019000914FF48C710198FFF7E4
:102320005FFF0346002B0DD0019B084A934201D169
:10233000FFF7BAFF4FF48C710198FFF73CFF00984C
:10234000FFF7BCFF00BF03B05DF804FB00F00240E4
:1023500008B503490348FFF7DBFF00BF08BD00BF16
:10236000200C00200030004008B503490348FFF767
:10237000CFFF00BF08BD00BF440C0020003002406A
:1023800008B503490348FFF7C3FF00BF08BD00BFFE
:10239000680C002000F0024082B003468DF8073040
:1023A0009DF90730002B0CDB9DF8073003F01F026E
:1023B00005499DF907305B09012000FA02F241F856
:1023C000232000BF02B0704700E100E082B0034666
:1023D00000918DF807309DF90730002B0ADB009B38
:1023E000DAB20C499DF907305201D2B20B4483F89E
:1023F00000230BE0009BDAB207499DF8073003F099
:102400000F03043B5201D2B20B441A7600BF02B054
:10241000704700BF00E100E000ED00E082B00190F5
:10242000019B1B0B5BB2184602B0704700B583B02E
:1024300003460A468DF8073013468DF806309DF89E
:1024400006209DF9073011461846FFF7BFFF00BF71
:1024500003B05DF804FB00B583B003468DF8073088
:102460009DF907301846FFF797FF00BF03B05DF8EE
:1024700004FB00B583B00346ADF80630BDF8063066
:10248000184600F026F803461B68012B0CBF0123F9
:102490000023DBB2184603B05DF804FB00B585B03D
:1024A0000346ADF80630BDF80630184600F011F8C6
:1024B00003461A4600231360BDF80630184600F0A4
:1024C00008F803461B680393039B00BF05B05DF843
:1024D00004FB82B00346ADF80630BDF8063003F1C8
:1024E000804303F5C043184602B0704782B00190A4
:1024F000034A019BC2F8043300BF02B0704700BF1B
:102500000060004082B00190034A019BC2F808338A
:1025100000BF02B0704700BF0060004082B0019071
:10252000034BD3F80423019B1340184602B07047B5
:102530000060004082B00190084A019B03F5A2733D
:1025400052F82330054943F00102019B03F5A273C1
:1025500041F8232000BF02B0704700BF0060004078
:1025600082B00190084A019B03F5A27352F8233010
:10257000054923F00102019B03F5A27341F82320D2
:1025800000BF02B0704700BF0060004084B00390FD
:10259000029113468DF80730144A039B03F5A2738A
:1025A00052F82330114923F44F3323F44073039A34
:1025B00002F5A27241F822300C4A039B03F5A27384
:1025C00052F82320029B1B0203F47C519DF8073034
:1025D0001B0403F440330B4304491A43039B03F5E4
:1025E000A27341F8232000BF04B070470060004090
:1025F00082B00190054A019B03F5A27352F8233083
:102600001B0A03F03F03184602B070470060004009
:1026100082B00190064A019B03F5A27352F8233061
:102620001B0C03F00303DBB2184602B0704700BF77
:102630000060004084B00390029111461A460B4698
:102640008DF8073013468DF80630184A039B03F5C2
:10265000A27352F82330154923F4991323F4F85345
:10266000039A02F5A27241F82230104A039B03F547
:10267000A27352F82320029B1B0203F47C519DF8A5
:1026800007301B0403F4403319439DF806301B0543
:1026900003F480130B4305491A43039B03F5A2730C
:1026A00041F8232000BF04B0704700BF0060004025
:1026B00082B00190019B1B681F2B02D84FF0A043F2
:1026C00006E0019B1B6803F01F02019B1A60024B8E
:1026D000184602B0704700BF0003005000B585B037
:1026E0000190084611461A4603468DF803300B4602
:1026F0008DF8023013468DF8013001AB1846FFF714
:10270000D7FF03909DF803209DF802305B001A4329
:102710009DF801309B001A439DF818301B0242EAD5
:1027200003019DF81C301B04019A1943039B02F519
:10273000E07243F8221000BF05B05DF804FB00B55D
:1027400085B003900023019300230093002301220E
:1027500001210398FFF7C2FF00BF05B05DF804FB3D
:1027600000B585B003900B468DF80B309DF80B300B
:102770000022019200220092002200210398FFF71C
:10278000ADFF00BF05B05DF804FB00B585B001905A
:1027900001AB1846FFF78CFF0390019A039B02F5EB
:1027A000E07253F8223023F002030293019A039B54
:1027B00002F5E072029943F8221000BF05B05DF8FF
:1027C00004FB00B585B001900B468DF8033001ABDA
:1027D0001846FFF76DFF0390019A039B02F5E07224
:1027E00053F82230019A23F44031039B02F5E07242
:1027F00043F82210019A039B02F5E07253F822304D
:102800009DF8032012041146019A1943039B02F517
:10281000E07243F8221000BF05B05DF804FB00B57C
:1028200085B0019001AB1846FFF742FF0390019B72
:10283000012202FA03F31946039800F04BF800BF97
:1028400005B05DF804FB00B585B0019001AB1846FA
:10285000FFF72EFF0390019B012202FA03F31946B2
:10286000039800F041F800BF05B05DF804FB00B527
:1028700085B0019001AB1846FFF71AFF039003984B
:1028800000F020F80246019B22FA03F303F0010353
:10289000184605B05DF804FB00B585B0019001ABAA
:1028A0001846FFF705FF0390019A039B02F5E072BB
:1028B00053F822301B0C03F00303DBB2184605B0BB
:1028C0005DF804FB82B00190019BD3F810351846E7
:1028D00002B0704782B001900091019B009AC3F84A
:1028E000082500BF02B0704782B001900091019BA3
:1028F000009AC3F80C2500BF02B0704788B003905F
:1029000002910192164A05AB92E8030083E80300A6
:10291000039B079319E0079B9B0008AA134453F8F5
:102920000C3CD3F82025019B1A60079B9B0008AA4A
:10293000134453F80C3C019A1268C3F82025019BFC
:1029400004330193079B01330793039A029B1344BB
:10295000079A9A42DFD300BF00BF08B0704700BF9C
:10296000882B030000B585B0019001AB1846FFF736
:102970009FFE0390019B012202FA03F31A46039B78
:10298000C3F8202500BF05B05DF804FB84B00190BA
:10299000019B5B09029300230393029B002B03D04E
:1029A000029B012B04D007E04FF0FF33039303E0B9
:1029B00040F2FF33039300BF019B03F01F03019319
:1029C000039A019B22FA03F303F00103002B14BFC7
:1029D00001230023DBB2184604B0704784B0019095
:1029E0000091009B0393019BDB080293019B03F082
:1029F000070301930122019B02FA03F30399029A50
:102A00000A4412781340184604B0704784B001900D
:102A10000091009B0393019BDB080293019B03F051
:102A200007030193039A029B13441B785AB20121B6
:102A3000019B01FA03F35BB2134359B2039A029B61
:102A40001344CAB21A7000BF04B0704782B001903C
:102A5000074A019B1344243393F90030B3F1FF3F3D
:102A600014BF01230023DBB2184602B0704700BF39
:102A7000900C002082B001900C4A019B1344243337
:102A800093F90030002B09DB084A019B13442433DF
:102A900093F90030072B01DC012300E0002303F051
:102AA0000103DBB2184602B0704700BF900C002053
:102AB00082B00190064A019B1344243393F90030FD
:102AC000072BCCBF01230023DBB2184602B07047AE
:102AD000900C002082B00190064A019B13442433DD
:102AE00093F90030DB43DBB2DB09DBB2184602B0FE
:102AF000704700BF900C002084B0039002910192B7
:102B00008DF80330029B59B20E4A039B13442433C1
:102B10000A461A700B49029B019A41F823209DF83E
:102B2000033083F00103DBB2002B08D0029B083B8B
:102B3000039A51B2034A13440A4683F84E2000BF59
:102B400004B07047900C002082B00190044A019BB1
:102B500013442433FE221A7000BF02B0704700BF36
:102B6000900C002082B00190044A019B134424334E
:102B7000FF221A7000BF02B0704700BF900C002007
:102B800000B583B0019004490198FFF73FFF00BFF3
:102B900003B05DF804FB00BFDF0C002082B00190A1
:102BA000044A019B1344243393F90030184602B0C1
:102BB000704700BF900C002082B00190034A019B37
:102BC00052F82330184602B0704700BF900C002026
:102BD00084B00190074A019B13444E3393F90030AF
:102BE0008DF80F309DF80F3023F0C003184604B065
:102BF000704700BF900C002084B00190074A019BF1
:102C000013444E3393F900308DF80F309DF80F3098
:102C10009B09DBB2184604B0704700BF900C00203F
:102C200000B589B00390029113468DF80730FF2359
:102C30008DF81F309DF80730002B01D0002300E0F5
:102C4000082305939DF80730002B01D0082300E0EE
:102C500009230493059B069314E00F4A069B52F840
:102C60002330B3F1FF3F0AD19DF80730029A06994D
:102C70000398FFF741FF069B8DF81F3006E0069B87
:102C800001330693069A049B9A42E6D39DF91F30BE
:102C9000184609B05DF804FB900C002082B0034692
:102CA0008DF807309DF80730094A4FF0FF3142F8A0
:102CB00023109DF80730072B07D99DF80730083BF4
:102CC000034A1344FF2283F84E2000BF02B070472E
:102CD000900C002000B583B02D4B93F85530002B9D
:102CE00003D008230093009B4EE000238DF80730AB
:102CF00011E09DF807301846FFF748FE0346002B09
:102D000004D09DF807301846FFF72CFF9DF80730D8
:102D100001338DF807309DF80730292BE9D90023BE
:102D20008DF8073009E09DF807301846FFF7B6FF29
:102D30009DF8073001338DF807309DF80730082BD8
:102D4000F1D906220021134801F052FF1248FFF783
:102D500065FB034607211846FFF768FB0E48FFF79F
:102D60005DFB03461846FFF776FB4FF4BE70FFF796
:102D700095FB4FF00040FFF7B9FB054B012283F8AC
:102D8000552000230093009B184603B05DF804FB18
:102D9000900C0020DF0C00200060004000B585B0E2
:102DA00001900091002303930198FFF74FFE034623
:102DB000002B02D00823039334E0009B9B78002B68
:102DC00019D0012200210198FFF72AFF03468DF850
:102DD0000B309DF90B30B3F1FF3F09D09DF90B008B
:102DE000009B1A78009B5B780199FFF723FC05E0B4
:102DF0000423039302E00198FFF7A6FE039B002B38
:102E000010D1009B5B78012B03D10198FFF707FDE0
:102E100002E00198FFF717FD0198FFF790FC019879
:102E2000FFF7AEFE039B184605B05DF804FB0000FB
:102E300000B587B003900291019200230593039897
:102E4000FFF748FE0346002B02D00823059357E006
:102E5000029B9B78C3F34003DBB21A4601990398A7
:102E6000FFF7DEFE03468DF813309DF91330B3F102
:102E7000FF3F43D0029B9B78C3F38003DBB283F018
:102E80000103DBB2002B13D0029B9B7803F00103FC
:102E9000DBB2002B03D00398FFF777FC05E0029B21
:102EA0005B7819460398FFF75BFC0398FFF768FE11
:102EB000029B9B7803F00203DBB2002B08D09DF944
:102EC0001300029B1B781A460399FFF75FFB17E07C
:102ED0009DF91330083B0D4A134493F94E10029BA1
:102EE0001B789B015AB29DF91330083B0A4351B23B
:102EF000064A13440A4683F84E2001E00423059352
:102F0000059B184607B05DF804FB00BF900C00203D
:102F100000B589B001900B468DF803300198FFF79A
:102F2000C7FD0346002B2AD00198FFF737FE034662
:102F3000083B1846FFF760FE03468DF80F309DF8FA
:102F40000F30032B0BD10198FFF791FC0346002BA8
:102F500001D0032300E002238DF81F3008E09DF824
:102F60000F30012B01D1022300E003238DF81F3025
:102F70009DF81F3019460198FFF723FC30E00198B7
:102F8000FFF778FD0346002B2AD00198FFF706FED5
:102F900003460693069B9BB240339BB29B00ADF861
:102FA0001630069B1846FFF7C5FABDF816301846CE
:102FB000FFF774FA9DF80330002B11D00198FFF74A
:102FC000EDFD03461846FFF7F7FD0490049B002B28
:102FD00006D00122069B02FA03F31846FFF786FA91
:102FE00000BF09B05DF804FB00B585B00190019801
:102FF000FFF75EFD0346002B04D000210198FFF788
:10300000E0FB15E00198FFF735FD0346002B0FD0DC
:103010000198FFF7C3FD03460393039B1846FFF790
:103020009FFA0122039B02FA03F31846FFF76AFA9C
:1030300000BF05B05DF804FB00B583B001900198B6
:10304000FFF715FC0346002B14BF01230023DBB25E
:10305000184603B05DF804FB00B585B00190019AF5
:1030600002210020FFF74AFC002303930BE0039B9F
:103070009B00019A13441B68002B01D0012306E03A
:10308000039B01330393039B012BF0D900231846C4
:1030900005B05DF804FB000000B587B00190002387
:1030A00005935BE0344A059B13444E3393F900309B
:1030B000B3F1FF3F4ED00598FFF78AFD04900199C8
:1030C0000498FFF78BFC0346002B44D00598FFF7CC
:1030D00093FD03468DF80F300498FFF7DDFB0346A0
:1030E0008DF80E309DF80E30022B01D1032300E045
:1030F00002238DF80D309DF80D3019460498FFF726
:1031000060FB0498FFF72EFC0498FFF747FD034689
:103110001846FFF751FD0290029B002B1BD09DF833
:103120000F30032B0FD09DF80E30022B03D19DF8EA
:103130000F30012B07D09DF80E30032B0BD19DF8DB
:103140000F30022B07D19DF80F20029B11460498E7
:10315000984700E000BF059B01330593059B002BBA
:10316000A0D00198FFF778FF0346002B97D100BF4E
:1031700000BF07B05DF804FB900C002000B58BB0D9
:103180000023089301AB00221A605A604FF4807349
:10319000ADF81A30012309930023079321E0BDF80D
:1031A0001A301846FFF765F90346002B0ED0099830
:1031B000FFF7B4F90346002B08D0BDF81A301846C3
:1031C000FFF76CF9089A099B13430893099B5B006E
:1031D0000993BDF81A300433ADF81A30079B013358
:1031E0000793079B072BDAD94FF4BE70FFF741F91D
:1031F0000346002B0DD04FF4BE70FFF74FF9089B2C
:1032000043F00043089301AB1A4602210020FFF768
:1032100075FB089BDBB2002B29D001230993002307
:10322000079321E0099A089B1340002B16D00798BA
:10323000FFF7DEF905900798FFF7EAF903468DF8E6
:1032400013300798FFF7B8FC0390039B002B05D0C1
:103250009DF81320039B114605989847099B5B0036
:103260000993079B01330793079B072BDAD9089B28
:10327000002B03DA01AB1846FFF70EFF00BF0BB0BF
:103280005DF804FB82B003468DF807309DF90730E6
:10329000002B0CDB9DF8073003F01F0205499DF958
:1032A00007305B09012000FA02F241F8232000BF39
:1032B00002B0704700E100E082B0034600918DF853
:1032C00007309DF90730002B0ADB009BDAB20C496E
:1032D0009DF907305201D2B20B4483F800230BE072
:1032E000009BDAB207499DF8073003F00F03043B57
:1032F0005201D2B20B441A7600BF02B0704700BF31
:1033000000E100E000ED00E082B00190019B1B0BAA
:103310005BB2184602B0704700B583B003460A4658
:103320008DF8073013468DF806309DF806209DF97C
:10333000073011461846FFF7BFFF00BF03B05DF826
:1033400004FB00B583B003468DF807309DF90730C4
:103350001846FFF797FF00BF03B05DF804FB84B089
:1033600001900B46ADF80230BDF80230019A1344CB
:1033700000221A60BDF80230019A13441B680393BF
:10338000039B00BF04B0704782B001900B46ADF8BC
:103390000230BDF80230019A13441B68002B14BFA1
:1033A00001230023DBB2184602B0704782B00190BF
:1033B0000091019B009AC3F8042300BF02B070473C
:1033C00082B001900091019BD3F80423009B13402D
:1033D000002B14BF01230023DBB2184602B0704754
:1033E00082B001900091019B009AC3F8082300BFAE
:1033F00002B0704784B00190019BD3F880340393EE
:10340000019B039AC3F88024039B184604B07047BD
:1034100082B00190019B0422C3F8002500BF02B0D6
:10342000704784B0039002910192039B019AC3F804
:103430001425039B029AC3F80C2500BF04B0704703
:1034400084B0039002910192039B029AC3F808256D
:10345000039B019AC3F8102500BF04B0704782B0E7
:103460000190019BD3F81835DBB2184602B07047C3
:1034700082B001900B468DF803309DF80320019B2C
:10348000C3F81C2500BF02B0704782B001900B4604
:103490008DF803309DF80330019A134401221A601D
:1034A00000BF02B0704782B001900B468DF8033028
:1034B00013468DF802309DF803209DF80230134327
:1034C000DBB21A46019BC3F86C2500BF02B07047FF
:1034D00082B001900091019B009AC3F8242500BF9F
:1034E00002B0704782B00190019B1B681F2B02D86D
:1034F0004FF0A04306E0019B1B6803F01F02019BF5
:103500001A60024B184602B0704700BF000300501B
:1035100000B585B00190084611461A4603468DF85D
:1035200003300B468DF8023013468DF8013001ABA5
:103530001846FFF7D7FF03909DF803209DF802304F
:103540005B001A439DF801309B001A439DF8183028
:103550001B0242EA03019DF81C301B04019A194327
:10356000039B02F5E07243F8221000BF05B05DF83E
:1035700004FB00B585B00390002301930023009362
:103580000023012201210398FFF7C2FF00BF05B00D
:103590005DF804FB00B585B003900B468DF80B3049
:1035A0009DF80B300022019200220092002200219F
:1035B0000398FFF7ADFF00BF05B05DF804FB00B551
:1035C00085B0019001AB1846FFF78CFF0390019B7B
:1035D000012202FA03F31946039800F004F800BF31
:1035E00005B05DF804FB82B001900091019B009A48
:1035F000C3F8082500BF02B0704700B583B0019042
:103600000091009B1B68B3F1FF3F09D0009B1B6832
:103610001846FFF7D4FF009B1B681846FFF7A9FF69
:10362000009B5B68B3F1FF3F05D0009B5B68002106
:103630001846FFF7AFFF019B1A68009B9B6919466C
:103640001046FFF745FF019B1868009B597D009BC2
:103650001B7D1A46FFF727FF019B1868009B19681E
:10366000009B5B681A46FFF7DCFE009B1B7D012B6D
:1036700022D1009B9B68B3F1FF3F05D0009B9B6864
:1036800000211846FFF786FF009BDB68B3F1FF3F80
:1036900009D0009BDB681846FFF791FF009BDB68B1
:1036A0001846FFF766FF019B1868009BD968009BCE
:1036B0009B681A46FFF7C4FE00BF03B05DF804FB29
:1036C00000B583B001900B468DF80330019B1B6859
:1036D0004FF48E711846FFF742FE019B1B684FF4B2
:1036E000A2711846FFF73BFE019B1B680E49184666
:1036F000FFF75CFE019B1B681846FFF705FE0346BB
:103700001A469DF8033019461046FFF705FE019B47
:103710001B681846FFF7F8FD03461846FFF711FE31
:1037200000BF03B05DF804FB8000020000B587B065
:10373000039002910192039B1B791A462C2302FBF2
:1037400003F3284A1344049300230593049B93F83E
:103750002A30002B03D008230593059B3EE0039BF2
:103760001A68039B1B7919461F4B53F821301946E1
:103770001046FEF7EFFC0346002B03D01123059300
:10378000059B2BE002990398FFF737FF049B019AF2
:103790005A60029B1A69049B1A60049B5B68002BA9
:1037A00005D0029B1B7F19460398FFF789FF039BF7
:1037B0001B681846FFF72CFE049B00229A61049BAD
:1037C0000022DA61049B002283F82920049B002256
:1037D0005A61049B012283F82A20059B184607B0F2
:1037E0005DF804FBE80C0020B02B030000B585B0A9
:1037F000019000914FF48E710198FFF7B0FD009B8E
:103800009A68009B1B6A13441B788DF80F30009B4D
:103810001B6A5A1C009B1A629DF80F3019460198CA
:10382000FFF726FE00BF05B05DF804FB00B585B0CC
:1038300001900091009B5B69039316E0009B93F855
:103840002830DBB2002B01D0002314E04FF48E713E
:103850000198FFF799FD034683F00103DBB2002BCB
:10386000ECD100990198FFF7C1FF009B1B6A039AF6
:103870009A42EBD80123184605B05DF804FB00001E
:1038800000B587B0039002910192039B1B791A4601
:103890002C2302FB03F32F4A13440493039800F0F4
:1038A0005BF80346002B03D011230593059B4CE0E6
:1038B000049B019A5A61049B029A9A60049B00221D
:1038C0001A62049B002283F8282000230593039B9F
:1038D0001B684FF48E711846FFF741FD039B1B6870
:1038E00008211846FFF7D1FD039B1B680499184671
:1038F000FFF77CFF049B5B68002B25D1039B1B68B3
:1039000004991846FFF792FF034683F00103DBB2E8
:10391000002B02D00F23059313E000BF039B1B680D
:103920004FF48E711846FFF72FFD034683F0010315
:10393000DBB2002BF2D1039B1B680C211846FFF76A
:10394000A4FD049B00225A61059B184607B05DF850
:1039500004FB00BFE80C002082B00190019B1B79A2
:103960001946074A2C2301FB03F3134414331B6845
:10397000002B14BF01230023DBB2184602B07047AE
:10398000E80C002000B583B00190019B1B684FF448
:1039900092711846FFF7E3FC019B1B684FF484719A
:1039A0001846FFF7DCFC019B1B6800211846FFF757
:1039B0006CFD00BF03B05DF804FB10B582B0019050
:1039C0000091009B9B69002B08D14FF484710198F2
:1039D000FFF7C5FC0198FFF742FD13E04FF4847137
:1039E0000198FFF7BCFC009BDA68009B5B6AD41867
:1039F0000198FFF734FD03462370009B5B6A5A1C55
:103A0000009B5A6202B010BD00B589B003900291CC
:103A10000192039B1B791A462C2302FB03F36E4A87
:103A20001344059300238DF81330059B5B68002B2E
:103A300006D0039B1B684FF401711846FFF7D0FCBA
:103A4000059B9B69002B15D0059BDB69002B0ED0D5
:103A5000059B5B68002B06D0039B1B684FF401712C
:103A60001846FFF7A3FC11230793079BB0E001233F
:103A70008DF813309DF8133083F00103DBB2002B77
:103A80000CD0059B019A9A61059B029ADA60059B0E
:103A900000225A62059B0022DA6105E0059B029A2A
:103AA0001A61059B019ADA61059B93F8293083F02E
:103AB0000103DBB2002B09D09DF8133083F0010322
:103AC000DBB2002B02D00398FFF75CFF059B5B681D
:103AD000002B73D1039B1B684FF4A2711846FFF7AC
:103AE0003EFC039B1B684FF492711846FFF74CFC99
:103AF00003468DF81930039B1B684FF484711846F8
:103B0000FFF742FC03468DF81B30039B1B684FF404
:103B1000A2711846FFF738FC03468DF81A309DF85D
:103B20001B3083F00103DBB2002B0DD09DF81A305F
:103B300083F00103DBB2002B06D09DF8193083F02F
:103B40000103DBB2002BCCD19DF81930002B0FD133
:103B50009DF81A30002B0BD1039B1B680599184662
:103B6000FFF72BFF059B9A69059B5B6A9A42B8D8C1
:103B7000059B00229A619DF81930002B03D0032386
:103B80000793079B24E09DF81A30002B03D00F23E6
:103B90000793079B1CE0059B93F82930002B06D068
:103BA000039B1B6800211846FFF76FFC0DE0039B89
:103BB0001B6804211846FFF768FC06E0039B1B689E
:103BC0004FF401711846FFF7F1FB00230793079BA1
:103BD000184609B05DF804FBE80C002000B589B078
:103BE00003900291019201238DF81030029B0693FD
:103BF000019B0593039B5B68039A116804AA104616
:103C0000984700BF09B05DF804FB00B587B001908C
:103C1000009100238DF80830009B0493019B9B6862
:103C20000393019B00225A61019B5B68019A116812
:103C300002AA1046984700BF07B05DF804FB00B524
:103C40008BB0019000914FF400710198FFF7B8FB21
:103C50000346002B39D04FF492710198FFF794FB83
:103C60000346002B31D04FF492710198FFF777FB98
:103C70004FF401710198FFF7B3FB009B93F82930D3
:103C800083F00103DBB2002B03D004210198FFF77E
:103C9000FCFB02238DF80C300198FFF7ABFB0346C9
:103CA0000693009B9B690593009BDB680493009B34
:103CB00000229A61009B0022DA61009B5B68009AF7
:103CC000116803AA1046984752E004210198FFF7B3
:103CD00077FB0346002B4BD04FF484710198FFF71C
:103CE00053FB0346002B43D000990198FFF765FE74
:103CF000009B9A69009B5B6A9A4239D1009BDB6901
:103D0000002B19D0009BDB680993009B5B6A08932A
:103D1000009BDA69009B9A61009B1A69009BDA603C
:103D2000009B0022DA61009B00225A62099A0899DE
:103D30000098FFF753FF1BE0009B93F8293083F0B6
:103D40000103DBB2002B03D004210198FFF79DFB98
:103D50004FF401710198FFF743FB009B00229A6129
:103D6000009B596A009BDB681A460098FFF736FFF4
:103D70004FF48E710198FFF707FB0346002B24D008
:103D8000009B5B690793009B1B6A079A9A420DD9B7
:103D9000009B93F82830DBB283F00103DBB2002BE9
:103DA00004D000990198FFF721FD0EE04FF48E71C9
:103DB0000198FFF7D4FA009B5B69002B05D0009BAC
:103DC0005B6919460098FFF720FF4FF4A271019834
:103DD000FFF7DAFA0346002B1CD04FF4A2710198CA
:103DE000FFF7BDFA009B93F82930002B03D0002188
:103DF0000198FFF74AFB009B9B69002B0AD0009BB0
:103E000000229A61009B596A009BDB681A46009861
:103E1000FFF7E4FE00BF0BB05DF804FB08B50349F3
:103E20000348FFF70CFF00BF08BD00BFE80C0020EF
:103E30000020004082B003468DF807309DF907301E
:103E4000002B0CDB9DF8073003F01F0205499DF99C
:103E500007305B09012000FA02F241F8232000BF7D
:103E600002B0704700E100E082B0034600918DF897
:103E700007309DF90730002B0ADB009BDAB20C49B2
:103E80009DF907305201D2B20B4483F800230BE0B6
:103E9000009BDAB207499DF8073003F00F03043B9B
:103EA0005201D2B20B441A7600BF02B0704700BF75
:103EB00000E100E000ED00E082B00190019B03F022
:103EC0006043B3F1005F0CBF01230023DBB218464F
:103ED00002B0704782B00190019B1B0B5BB2184689
:103EE00002B0704700B583B003460A468DF807302C
:103EF00013468DF806309DF806209DF907301146CF
:103F00001846FFF7B1FF00BF03B05DF804FB00B532
:103F100083B003468DF807309DF907301846FFF748
:103F200089FF00BF03B05DF804FB84B001900B462D
:103F3000ADF80230BDF80230019A134400221A6035
:103F4000BDF80230019A13441B680393039B00BF22
:103F500004B0704782B001900B46ADF80230BDF856
:103F60000230019A13441B68002B14BF0123002365
:103F7000DBB2184602B0704782B001900091019BFD
:103F8000D3F80022009B1A43019BC3F8002200BF14
:103F900002B0704782B001900091019BD3F80022DB
:103FA000009BDB431A40019BC3F8002200BF02B014
:103FB000704782B001900091019B009AC3F80423DE
:103FC00000BF02B0704782B001900091019B009A3F
:103FD000C3F8082300BF02B0704784B00190019B72
:103FE000D3F880340393019B039AC3F88024039B86
:103FF000184604B0704782B00190019B0822C3F8B4
:10400000002500BF02B0704784B003900291019276
:10401000039B029AC3F80C25039B019AC3F814254D
:1040200000BF04B0704784B0039002910192039BDB
:10403000029AC3F80825039B019AC3F8102500BF14
:1040400004B0704782B001900B468DF803309DF8A4
:104050000330019A134401221A6000BF02B0704776
:1040600082B001900B468DF8033013468DF8023074
:104070009DF803209DF802301343DBB21A46019BE2
:10408000C3F86C2500BF02B0704782B00190009168
:10409000019B009AC3F8242500BF02B0704784B08A
:1040A000039002910192029A039BC3F84425039B5B
:1040B000019AC3F8482500BF04B0704782B0019050
:1040C000019BD3F84C35184602B0704784B003907A
:1040D00002910192029A039BC3F83425039B019A33
:1040E000C3F8382500BF04B0704782B00190019B2F
:1040F000D3F83C35184602B07047000082B00190FA
:10410000019B1B681F2B02D84FF0A04306E0019BC8
:104110001B6803F01F02019B1A60024B184602B095
:10412000704700BF0003005000B585B001900846FD
:1041300011461A4603468DF803300B468DF80230BF
:1041400013468DF8013001AB1846FFF7D7FF0390F7
:104150009DF803209DF802305B001A439DF8013062
:104160009B001A439DF818301B0242EA03019DF898
:104170001C301B04019A1943039B02F5E07243F8BB
:10418000221000BF05B05DF804FB00B585B00390B8
:1041900000230193002300930023012201210398AF
:1041A000FFF7C2FF00BF05B05DF804FB00B585B0A6
:1041B00003900B468DF80B309DF80B3000220192D6
:1041C00000220092002200210398FFF7ADFF00BFFC
:1041D00005B05DF804FB00B585B0019001AB184651
:1041E000FFF78CFF0390019B012202FA03F31946AB
:1041F000039800F004F800BF05B05DF804FB82B03E
:1042000001900091019B009AC3F8082500BF02B0FD
:10421000704700B583B001900091009B1B68B3F11B
:10422000FF3F09D0009B1B681846FFF7D4FF009B97
:104230001B681846FFF7A9FF009B5B68B3F1FF3FBF
:1042400005D0009B5B6800211846FFF7AFFF019B7C
:104250001A68009B9B6919461046FFF716FF019BE1
:104260001868009B597D009B1B7D1A46FFF7F8FEDE
:10427000019B1868009B1968009B5B681A46FFF752
:10428000C3FE009B1B7D012B22D1009B9B68B3F1D9
:10429000FF3F05D0009B9B6800211846FFF786FF73
:1042A000009BDB68B3F1FF3F09D0009BDB68184639
:1042B000FFF791FF009BDB681846FFF766FF019B45
:1042C0001868009BD968009B9B681A46FFF7ABFEF5
:1042D00000BF03B05DF804FB00B583B001900B464E
:1042E0008DF80330019B1B684FF488711846FFF767
:1042F0001CFE019B1B684FF490711846FFF715FEDA
:10430000019B1B684FF492711846FFF70EFE019B4C
:104310001B684FF4A2711846FFF707FE019B1B684C
:104320004FF4AC711846FFF700FE019B1B680F4964
:104330001846FFF73EFE019B1B681846FFF7CAFDB3
:1043400003461A469DF8033019461046FFF7CAFD8A
:10435000019B1B681846FFF7BDFD03461846FFF793
:10436000D6FD00BF03B05DF804FB00BF10034200A0
:1043700000B587B0039002910192039B1B791A4606
:104380001346DB0013449B00264A13440493002386
:104390000593049B93F82030002B03D0082305934A
:1043A000059B3AE0039B1A68039B1B7919461E4B39
:1043B00053F8213019461046FDF7CCFE0346002B7A
:1043C00003D011230593059B27E002990398FFF77B
:1043D00020FF049B019A5A60029B1A69049B1A6091
:1043E000049B5B68002B05D0029B1B7F194603983A
:1043F000FFF772FF039B1B681846FFF7FCFD049B49
:1044000000229A61049B0022DA61049B00225A6117
:10441000049B012283F82020059B184607B05DF815
:1044200004FB00BF140D0020BC2B030000B589B0B5
:10443000039002910192039B1B791A461346DB00FD
:1044400013449B00434A134405930298FFF734FD3D
:10445000034683F00103DBB2002B03D01023079344
:10446000079B73E0039800F077F80346002B03D016
:1044700011230793079B69E0059B019A5A61059BED
:10448000029A9A6000230793039B1B684FF4907174
:104490001846FFF74AFD039B1B684FF4AC711846A2
:1044A000FFF743FD039B1868059B9968059B5B69B3
:1044B0001A46FFF7F4FD039B1B6808211846FFF717
:1044C000C1FD059B5B68002B3FD1039B1B684FF42C
:1044D00090711846FFF73EFD03468DF81A30039B96
:1044E0001B684FF4AC711846FFF734FD03468DF896
:1044F0001B309DF81A3083F00103DBB2002B06D08D
:104500009DF81B3083F00103DBB2002BDDD19DF859
:104510001B30002B02D00F23079313E0039B1B6873
:104520000C211846FFF78EFD00BF039B1B684FF45C
:10453000AC711846FFF70EFD034683F00103DBB2B2
:10454000002BF2D1059B00225A61079B184609B047
:104550005DF804FB140D002082B00190019B1B79D3
:104560001946084A0B46DB000B449B0013441433E6
:104570001B68002B14BF01230023DBB2184602B0D6
:10458000704700BF140D002000B58BB0039002915E
:104590000192039B1B791A461346DB0013449B00D0
:1045A0006F4A134406930298FFF786FC034683F094
:1045B0000103DBB2002B03D010230893089BCAE051
:1045C00000238DF81F30069B5B68002B06D0039BF1
:1045D0001B684FF404711846FFF7F5FC069B9B69B6
:1045E000002B15D0069BDB69002B0ED0069B5B6869
:1045F000002B06D0039B1B684FF404711846FFF78D
:10460000D8FC11230893089BA5E001238DF81F30E7
:104610009DF81F3083F00103DBB2002B09D0069B0D
:10462000019A9A61069B029ADA60069B0022DA617F
:1046300005E0069B029A1A61069B019ADA61002343
:104640000893039B1B684FF488711846FFF76DFCB5
:10465000039B1B684FF4A2711846FFF766FC039B8F
:104660001B68019A02991846FFF730FD9DF81F302C
:1046700083F00103DBB2002B06D0039B1B680021F3
:104680001846FFF7DFFC05E0039B1B682021184656
:10469000FFF772FC039B1B791946314A0B46DB007E
:1046A0000B449B00134404331B68002B4BD1039B2A
:1046B0001B684FF488711846FFF74CFC03468DF8D1
:1046C0002730039B1B684FF4A2711846FFF742FC8A
:1046D00003468DF81730039B1B684FF49271184600
:1046E000FFF738FC03468DF816309DF8273083F02D
:1046F0000103DBB2002B0DD09DF8173083F00103CE
:10470000DBB2002B06D09DF8163083F00103DBB23C
:10471000002BCCD1039B1B791946114A0B46DB00B9
:104720000B449B001344183300221A609DF8163086
:10473000002B01D0032308939DF81730002B09D0DC
:104740000F23089306E0039B1B684FF4047118467F
:10475000FFF72FFC089B18460BB05DF804FB00BF69
:10476000140D002000B589B003900291019201233D
:104770008DF81030029B0693019B0593039B5B68A9
:10478000039A116804AA1046984700BF09B05DF863
:1047900004FB00B587B00190009100238DF808302C
:1047A000009B0493019B9B680393019B00225A6129
:1047B000019B5B68019A116802AA1046984700BFE6
:1047C00007B05DF804FB00B589B0019000914FF48B
:1047D00092710198FFF7BEFB0346002B22D04FF4E5
:1047E00092710198FFF7A1FB02238DF80830019820
:1047F000FFF7F3FB034605930198FFF776FC0346AA
:104800000493009BDB680393009B00229A61009B4A
:104810000022DA61009B5B68009A116802AA1046C8
:1048200098473BE04FF488710198FFF793FB0346EC
:10483000002B33D04FF488710198FFF776FB019875
:10484000FFF753FC0790009B9B69079A9A4225D17A
:10485000009BDB69002B17D0009BDB6806932021AF
:104860000198FFF797FB009BDA69009B9A61009B18
:104870001A69009BDA60009B0022DA61069A0799A8
:104880000098FFF76FFF09E0009B00229A61009BF0
:10489000DB681A4607990098FFF764FF4FF4A2718E
:1048A0000198FFF757FB0346002B18D04FF4A27175
:1048B0000198FFF73AFB009B9B69002B0FD0009BF0
:1048C00000229A61009B0022DA610198FFF70DFC3B
