:100000000000022075F101005DF101005FF10100C7
:1000100061F1010063F1010065F1010000000000E1
:1000200000000000000000000000000067F1010077
:1000300069F10100000000006BF101006DF10100A9
:100040006FF101006FF10100C11702006D1902008C
:100050006FF101006FF10100992702006FF10100BB
:100060006FF101006FF101006FF101006FF101000C
:100070006FF101006FF101006FF101006FF10100FC
:100080006FF10100991102006FF101006FF10100A1
:10009000D91102006FF101006FF101006FF1010051
:1000A0006FF101006FF101006FF101006FF10100CC
:1000B0006FF101006FF1010000000000000000007E
:1000C0006FF101006FF101006FF10100851902006D
:1000D0006FF101006FF101006FF101006FF101009C
:1000E0006FF10100000000000000000000000000AF
:1000F000000000006FF10100000000009D190200E7
:1001000000000000000000000000000000000000EF
:1001100000000000000000000000000000000000DF
:1001200000000000000000000000000000000000CF
:1001300000000000000000000000000000000000BF
:1001400000000000000000000000000000000000AF
:10015000000000000000000000000000000000009F
:10016000000000000000000000000000000000008F
:10017000000000000000000000000000000000007F
:10018000000000000000000000000000000000006F
:10019000000000000000000000000000000000005F
:1001A000000000000000000000000000000000004F
:1001B000000000000000000000000000000000003F
:1001C000000000000000000000000000000000002F
:1001D000000000000000000000000000000000001F
:1001E000000000000000000000000000000000000F
:1001F00000000000000000000000000000000000FF
:020000021000EC
:10F00000354936480A1A02D0072291438D463449C1
:10F0100034480A1A06D00722914381F30988022254
:10F0200082F3148830483149314A00F044F83148BD
:10F030003149324A00F03FF831483249324A00F053
:10F040003AF832483249334A00F035F83248334909
:10F05000334A00F030F833483349344A00F02BF893
:10F0600033483449344A00F026F834483449002201
:10F0700000F02CF833483449002200F027F83348D8
:10F080003349091A082902DB002202604160314A33
:10F0900090471F481F49884205D00268043003B4D6
:10F0A000904703BCF7E700208646EC46002000218D
:10F0B000294A9047FEE7884207D0521A05D00378C4
:10F0C00001300B700131013AF9D17047884202D00A
:10F0D00002700130FAE770470000022000E00120D2
:10F0E0000000022000000220480C03000000002065
:10F0F00020000020D0F10100D0F10100D000030079
:10F10000480C030000000020000000206401030000
:10F11000640103006401030064010300640103004F
:10F12000640103006401030064010300460C030052
:10F13000680C030020000020200000202000002098
:10F14000E40B0020E40B0020E40B0020F80B00206F
:10F15000F82B00209DF10100C1F50100FEE7FEE75C
:10F16000FEE7FEE7FEE7FEE7FEE7FEE7FEE7FEE777
:10F1700000F002B8FFF7FCBF0F484FF007018843CB
:10F1800085460E4880470E48016841F470010160D1
:10F19000BFF34F8FBFF36F8FFFF732BF09480A49A4
:10F1A0000A4A884207D0521A05D0037801300B7002
:10F1B0000131013AF9D1704700000220B913020071
:10F1C00088ED00E064010300000000200000002042
:10F1D00000B583B0094B1B88184603F03BFA034681
:10F1E0000193019B002B04D0044B1B88184603F0AD
:10F1F00009FA019B184603B05DF804FB00000020EB
:10F2000000B583B00190019B002B05D0044B1B88F7
:10F210000121184603F08AF900BF03B05DF804FB32
:10F220000000002000B585B00190019B002B0AD0A2
:10F23000074B43F001030393019B9B010293039B44
:10F240000298984700E000BF05B05DF804FB00BFDE
:10F250007001030000B583B00190019800F006F939
:10F2600000BF03B05DF804FB00B583B001900198C6
:10F27000FFF7D8FF00BF03B05DF804FB00B585B011
:10F28000264B1B689B680393039B4FF080421A61D7
:10F29000039B4FF0A0525A61039B002283F82C205D
:10F2A000039B0293039B1C330193029B03221A705E
:10F2B000029B01221A73029B194A5A60029B022286
:10F2C0001A72019B03221A70019B08225A70019B3B
:10F2D0001D229A70019BFF22DA70019B02221A7193
:10F2E000019BFF225A71019B4FF080429A60019B63
:10F2F00000221A73019B00225A730A4A6B46126855
:10F30000114619800233120C1A706B4619462620DA
:10F3100003F052F800BF05B05DF804FB10000020B8
:10F3200000F002407801030000B585B00190019B18
:10F33000002B0AD0074B43F001030393019B9B0171
:10F340000293039B0298984700E000BF05B05DF868
:10F3500004FB00BFD001030082B00190019B1B6839
:10F360001F2B02D84FF0A04306E0019B1B6803F05F
:10F370001F02019B1A60024B184602B0704700BF83
:10F380000003005000B585B00190084611461A46AA
:10F3900003468DF803300B468DF8023013468DF886
:10F3A000013001AB1846FFF7D7FF03909DF803200B
:10F3B0009DF802305B001A439DF801309B001A4310
:10F3C0009DF818301B0242EA03019DF81C301B0413
:10F3D000019A1943039B02F5E07243F8221000BF23
:10F3E00005B05DF804FB00B585B0039000230193E0
:10F3F000002300930023012201210398FFF7C2FF9D
:10F4000000BF05B05DF804FB00B585B0019001AB0D
:10F410001846FFF7A1FF0390039800F00AF8024690
:10F42000019B22FA03F303F00103184605B05DF8CF
:10F4300004FB82B00190019BD3F81035184602B04E
:10F44000704700B583B00190019B002B0AD04FF4A8
:10F450007A70FFF769FF019B013B0193019B002B31
:10F46000F5D100E000BF03B05DF804FB00B583B048
:10F4700001900198FFF7E5FF00BF03B05DF804FBC2
:10F4800000B583B002F034FF0190019B0093009B14
:10F49000002B04D0044A4121009800F034FA00BF48
:10F4A00003B05DF804FB00BFA001030000B583B00A
:10F4B00001900B468DF8033000F034F800BF03B024
:10F4C0005DF804FB00B585B0134A01AB1268114624
:10F4D00019800233120C1A7001238DF8053001AB2C
:10F4E0000E4A1946222002F0B1FF0390039B0293BB
:10F4F000029B002B04D00A4A5721029800F003FA1D
:10F500000021222003F012F83320FFF76CFF00BF28
:10F5100005B05DF804FB00BFC0010300ADF40100BD
:10F52000A001030008B506E0074B1B68002B02D0C2
:10F53000054B1B68984700F009F80346002BF3D1F0
:10F5400000BF00BF08BD00BF5000002008B5044B3D
:10F550001B881846FFF758FF0346184608BD00BF32
:10F560000000002000B585B00190019B002B0AD05F
:10F57000074B43F001030393019B9B010293039B01
:10F580000298984700E000BF05B05DF804FB00BF9B
:10F590000002030000B583B00190019B002B0AD04C
:10F5A0004FF47A70FFF7DEFF019B013B0193019B53
:10F5B000002BF5D100E000BF03B05DF804FB0000B4
:10F5C00008B500F09BF90849002000F085F90320F8
:10F5D00002F0E1F8FFF754FFFFF750FEFFF772FF6C
:10F5E0000220FFF7D7FFFEE7DC01030000B583B080
:10F5F0001F4B0193019B02221A61019B02225A6157
:10F60000019B1C4A9A61019B1B4ADA61019B4FF4E2
:10F6100080621A62019B00229A62019B00225A6258
:10F62000019B0022DA62019B124A9A64019B134AF1
:10F63000DA64019B10221A65019B00229A65019BE6
:10F6400000225A65019B0022DA65019B07330C49B1
:10F65000184603F031FA019B0A49184603F02CFAC8
:10F66000019B20229A7100BF03B05DF804FB00BF2C
:10F670005400002008020300CC000020CC0400202D
:10F68000140203001802030000B589B00390029130
:10F69000019200230693039BDB680593039B1B6980
:10F6A0000493049A059B9A4205D9049A059BD31AA0
:10F6B000013B079307E0039B9A680499059BCB1ACB
:10F6C0001344013B0793039B9A68059BD31A079A3F
:10F6D000934228BF13460793079A019B934228BF82
:10F6E00013460793039B5A68059B1344079A029994
:10F6F000184603F085F9069A079B13440693029A6D
:10F70000079B13440293019A079BD31A0193059A0E
:10F71000079B13440593039B9B68059A9A4201D16A
:10F7200000230593039B059ADA60019B002BB5D15A
:10F73000069B184609B05DF804FB00B589B003903C
:10F7400002910192039BDB680793039B9A68079BD6
:10F75000D31A0693069A019B9A420ED9039B5A68C4
:10F76000079B1344019A0299184603F049F9079A36
:10F77000019B1A44039BDA601AE0069B0593039BE6
:10F780005A68079B1344059A0299184603F038F902
:10F79000019A069BD31A0593039B5868029A069B0D
:10F7A0001344059A194603F02BF9039B059ADA6076
:10F7B00000BF09B05DF804FB86B00190019B1B6996
:10F7C0000493019BDB680393049A039B9A4208D835
:10F7D000019B9A68039BD21A049B1344013B059337
:10F7E00004E0049A039BD31A013B0593059B18463A
:10F7F00006B0704700B589B0039002910192029B58
:10F800000693039B5A1C13465B001344DB00204AFB
:10F8100013440593059B5B69022B29D0022B2ED83C
:10F82000002B02D0012B13D029E00598FFF7C4FF6D
:10F830000490049A019B9A4202D20023079321E08C
:10F84000019B0793019A06990598FFF776FF19E047
:10F850000598FFF7B1FF0490019A049B934228BFDB
:10F8600013460793079A06990598FFF766FF09E084
:10F87000019A06990598FFF707FF079002E0002319
:10F88000079300BF079B184609B05DF804FB00BF53
:10F890005400002000B587B00390029101920D4BF7
:10F8A0001B78002B01D1FFF7A1FEEFF311834FF07E
:10F8B000200181F311880593019A02990398FFF7BB
:10F8C00099FF0490059B83F31188049B184607B0A9
:10F8D0005DF804FB5400002000B585B00190009154
:10F8E000009803F00BF90390039A00990198FFF731
:10F8F000D1FF0346184605B05DF804FB08B5FFF7D5
:10F9000075FE00BF08BD00B583B002900091019262
:10F9100044F2010071466A4600F004F803B000BDED
:10F9200000BF000030B58BB007900691059272B60B
:10F9300000BF00F0DBFC00BF00F008FB0346002B1B
:10F94000FAD1079B44F20102934216D0079B44F27E
:10F95000020293423ED1059B09932C4A2C4BD31AA9
:10F96000DB081B0443F00100099B5B681A46099BF6
:10F970001B68284900F0ADFA39E0059B0893234A3B
:10F98000234BD31ADB081B0443F00104089B9D683A
:10F99000089B9B68184600F0C7FC03461846089B66
:10F9A0005B681946089B1B68069A029201930091B6
:10F9B00003462A461849204600F09FFA134A144B82
:10F9C000D31ADB081B0443F001031449184600F066
:10F9D00061FA0CE00D4A0E4BD31ADB081B0443F00E
:10F9E0000103069A0E49184600F062FA00BF0D4B5B
:10F9F0001B6803F00103002B00D000BE059A069996
:10FA0000079800F0D9FC00BF0BB030BD54010300D3
:10FA100024010300200203003C02030064020300EF
:10FA200078020300F0ED00E000B583B00190009192
:10FA3000019B1B681B6800990198984700BF03B0A1
:10FA40005DF804FB00B583B00190019B1B685B6807
:10FA50000198984700BF03B05DF804FB00B583B080
:10FA60000190019B1B689B680198984700BF03B0F9
:10FA70005DF804FB82B00190019BDB6801225A71A2
:10FA800000BF02B0704782B00190019BDB685B79D8
:10FA9000184602B0704784B00190009100238DF8A1
:10FAA0000F30019B1B7803F00403DBB2002B24D042
:10FAB000019B1B78C3F30103DBB2012B02D0022BA5
:10FAC0000CD017E0009B1B68019A1288C2F38312C6
:10FAD000D2B213449A1C009B1A600BE0009B1B6877
:10FAE000019A5288C2F3891292B213449A1C009B65
:10FAF0001A6000BF01238DF80F309DF80F301846B3
:10FB000004B0704700B58BB00023ADF826303B48F9
:10FB100000F015FD3A4800F012FD3A4B9B68049343
:10FB2000394B1B680693049A069B134002339B00D3
:10FB3000344A13440433089304AB19460898FFF77A
:10FB4000AAFF0346002B09D0049A069B13400233F8
:10FB50009B002C4A134404330893EDE700BF0023B5
:10FB6000079311E0049B5A1C0492069A1340079ACB
:10FB7000920001A90A44234902339B000B445B68AD
:10FB80001360079B01330793079B012BEAD99DF86C
:10FB90000430C3F30103DBB2012B10D0022B1CD1C4
:10FBA000BDF80A30ADF82630BDF80630C3F389132E
:10FBB0009BB203339A08049B134404930EE0BDF8F0
:10FBC0000A30ADF82630BDF80430C3F38313DBB23E
:10FBD0001A46049B1344049300E000BF084800F059
:10FBE000BAFC0590059B002B02D0049B054A93604C
:10FBF000BDF8263018460BB05DF804FBC4090020A0
:10FC0000C0090020AC0500201400002000B585B01C
:10FC10000021074800F01CFC0390039B0293029B09
:10FC200083F310030193019B184605B05DF804FBB4
:10FC3000C809002000B589B0039002910192009399
:10FC4000039B1B0C0693FFF7E1FF0790079B19042A
:10FC5000009B5A1C0A9B1340069A0A431B49023315
:10FC60009B000B445A60009A0A9B134002339B008E
:10FC7000164A134404330593039B03F00703D9B2D8
:10FC8000059A137861F3C5031370019B03F00F030A
:10FC9000D9B2059A138861F389131380029BC3F3C9
:10FCA0001501059A136861F39F231360059A137871
:10FCB000012161F301031370059A13786FF3820336
:10FCC000137000BF09B05DF804FB00BFAC05002055
:10FCD00000BF704700B58BB00390029113468DF8BA
:10FCE0000730039B0233089301238DF81F30002057
:10FCF00000F05AFC3E4B5A68029B1A603D4B1A6852
:10FD00003B4B99683A4B5B68CB1A13440133099318
:10FD100014E00121384800F0E2FBFFF7F3FE059004
:10FD20000599354800F0DBFB324B1A68304B996877
:10FD30002F4B5B68CB1A134401330993089A099B34
:10FD40009A42E6D89DF81F30002B48D00023049338
:10FD50009DF80730002B17D09DF81030012262F378
:10FD600001038DF810309DF8103043F004038DF836
:10FD70001030039B03F00F03DAB2BDF8103062F3CA
:10FD80008913ADF8103016E09DF81030022262F3AE
:10FD900001038DF810309DF8103043F004038DF806
:10FDA0001030039BC3F309039AB2BDF8123062F31B
:10FDB0008F13ADF812300E4B5A680E4B1B68134070
:10FDC00002339B000A4A134404330693049A069BA9
:10FDD0001A60074B5A68089B1344054A5360002079
:10FDE00000F0EBFB9DF81F3018460BB05DF804FBEC
:10FDF000AC05002014000020C809002000B58BB01D
:10FE00000590049103920293204B1B68079306AB65
:10FE1000012219460298FFF75DFF0346002B24D00C
:10FE2000069B023309930023089311E0089B9B0073
:10FE3000039A1A44099B591C099107990B401268AF
:10FE4000134902339B000B445A60089B013308930B
:10FE5000089A029B9A42E9D3069A079B009313469D
:10FE6000029A04990598FFF7E5FE094B1B78002BD1
:10FE700005D000BF00F06AF80346002BFAD1FFF767
:10FE800027FF00BF0BB05DF804FB00BF140000208B
:10FE9000AC05002000B583B0019000910023002242
:10FEA00000990198FFF7AAFF00BF03B05DF804FBBB
:10FEB00000B587B0039002910192019B059305AABA
:10FEC000012302990398FFF799FF00BF07B05DF87F
:10FED00004FB00B587B00390029101920093019B4F
:10FEE0000493009B059304AA022302990398FFF749
:10FEF00085FF00BF07B05DF804FB00B58BB0039031
:10FF0000029101920093019B0593009B06930C9B29
:10FF100007930D9B08930E9B099305AA052302994D
:10FF20000398FFF76BFF00BF0BB05DF804FB000008
:10FF3000054B9A68044B5B689A420CBF012300236F
:10FF4000DBB21846704700BFAC05002000B599B081
:10FF5000FFF7EEFF0346002B01D00023B9E19B4BD6
:10FF60000022C3F81824BFF34F8F00BF974B9B6844
:10FF70000493974B1B681093049A109B1340023311
:10FF80009B00924A134404331193002317930023D8
:10FF9000169300230F9304AB19461198FFF77BFDCE
:10FFA0000346002B19D0894BD3F81834002B14D1F9
:10FFB000864B5A68049B9A4205D8844B5B68834AF7
:10FFC0009360002385E1049A109B134002339B0049
:10FFD0007E4A134404331193DDE70023159311E0A7
:10FFE000049B5A1C0492109A1340159A920001A97E
:10FFF0000A44764902339B000B445B681360159BEF
:020000022000DC
:1000000001331593159B012BEAD99DF8043003F0B9
:100010000303DBB2022B40F09C80BDF80630C3F333
:1000200089139BB20D93BDF80630C3F389139BB2BD
:10003000502B28BF50239BB20C930C9BC3F3090396
:100040009AB2BDF8063062F38F13ADF806300C9B00
:1000500008330B939DF80430C3F3C203DBB20F9354
:100060000B995C4800F0B4FA1790179B002B00F036
:10007000D380179800F03DFB01A9169B0822179822
:1000800000F0E1FB169B08331693049BDA43109BA8
:10009000134001339B000A930C9A0A9B9A4242D95F
:1000A0000A9B002B08D0049A109B134002339B003C
:1000B000464A1344043300E0474B08930A9B002B45
:1000C00002D00A9BDBB201E00C9BDBB28DF81F3043
:1000D0000A9B002B01D0404B00E0002306930A9BB3
:1000E000002B06D00C9BDAB20A9BDBB2D31ADBB230
:1000F00000E000238DF817309DF81F20169B08990B
:10010000179800F0A0FB9DF81F30169A1344169321
:10011000069B002B16D09DF81720169B0699179862
:1001200000F091FB0EE0049A109B134002339B00F9
:10013000264A134404330993169B0C9A099917987D
:1001400000F081FB0D9B03339A08049B1344049336
:1001500062E09DF8043003F00303DBB2012B5BD1B6
:10016000BDF80430C3F38313DBB2062B28BF06238C
:10017000DAB2BDF8043062F38913ADF80430BDF88B
:100180000430C3F38313DBB202330E939DF80430C3
:10019000C3F3C203DBB20F930E9B9B0019460D48BD
:1001A00000F016FA1790179B002B35D0179800F027
:1001B000A0FA01A9169B0822179800F044FB169B91
:1001C00008331693002315931DE000BFAC050020F3
:1001D00014000020E40B0020B8050020049B5A1CEA
:1001E0000492109A134002339B003C4A1344191D99
:1001F000169B0422179800F026FB169B04331693D7
:10020000159B01331593BDF80430C3F38313DBB2A0
:100210001A46159B9342E1D3179B002B39D02F4BE5
:10022000D3F8103414932D4BD3F81834002B1BD073
:10023000179800F06DFA46E000238DF84F301498BF
:10024000FFF721FC0346002B02D001238DF84F302D
:100250009DF84F30002B03D017991498FFF7E4FB5B
:10026000149BDB681B681493149B002BE4D1179834
:1002700000F04EFA002000F097F9184BD3F818342C
:10028000002B02D1049B154A9360002000F095F9E1
:1002900019E0124BD3F81034129306E01298FFF7CE
:1002A000DDFB129BDB681B681293129B002BF5D1C0
:1002B0000B4A0C4BD31ADB081B0443F002030A4918
:1002C0001846FFF7E7FDFFF733FE034683F001030F
:1002D000DBB2184619B05DF804FB00BFAC05002086
:1002E00054010300240103009402030000B583B00D
:1002F0000C4BD3F8103401930A4B01221A7009E019
:100300000198FFF7B7FB0198FFF79CFB019BDB68A7
:100310001B680193019B002BF2D100BF00BF03B00B
:100320005DF804FBAC05002000B585B00190019894
:1003300000F00EF80390039B002B01D0039B00E01C
:10034000024B184605B05DF804FB00BFA80203008D
:1003500086B00190164B0593164B04931FE0049A48
:10036000059BD31ADB10DA0F13445B10DB00059AF0
:1003700013440393039B1B680293029A019B9A42C6
:1003800002D9039B04930AE0029A019B9A4203D28A
:10039000039B0833059302E0039B5B6804E0059A26
:1003A000049B9A42DBD30023184606B0704700BF77
:1003B0007C0603009407030086B00390029101922B
:1003C00001238DF817309DF81730204A039B1360E6
:1003D0001E4A029B53601D4A019B9360039B44F29B
:1003E0000102934212D0039B44F20202934220D1B5
:1003F000019B164AD360154BDB681B68134A936157
:10040000124BDB685B68114AD36112E0019B0F4A13
:1004100013610E4B1B699B680C4A53610B4B1B69A4
:100420001B680A4A9361094B1B695B68074AD361E1
:1004300000BF72B600BF00BF9DF81730DBB2002BC3
:10044000FAD162B600BF00BF06B07047CC090020E9
:1004500010B487B001900091019B009A53E8004FBF
:10046000104643E8000191F0000FF7D10594049085
:100470000391059B184607B05DF8044B704710B414
:1004800087B001900091019B009A53E8004F44EA25
:10049000020043E8000191F0000FF6D105940490AA
:1004A0000391049B184607B05DF8044B704710B4E5
:1004B00087B001900091019B009A53E8004F04EA35
:1004C000020043E8000191F0000FF6D1059404907A
:1004D0000391059B184607B05DF8044B704710B4B4
:1004E00087B001900091019B009A53E8004F04EB04
:1004F000020043E8000191F0000FF6D1059404904A
:100500000391049B184607B05DF8044B704710B484
:1005100087B001900091019B009A53E8004FA4EB33
:10052000020043E8000191F0000FF6D10594049019
:100530000391049B184607B05DF8044B704700B563
:1005400083B0019001210198FFF799FF03461846F7
:1005500003B05DF804FB00B583B001900021019861
:10056000FFF7A5FF0346184603B05DF804FB000043
:1005700072B600BF034B1B680133024A136000BF11
:10058000704700BFEC090020064B1B68013B054A81
:100590001360044B1B68002B01D162B600BF00BF83
:1005A000704700BFEC09002000B583B00190FFF751
:1005B000DFFF00BF03B05DF804FB00B583B0034666
:1005C0008DF80730FFF7E0FF00BF03B05DF804FBD4
:1005D00000B58BB001900091019B1B8A043B0793EF
:1005E000009A079B1344DA1C079BB2FBF3F38DF8C8
:1005F0001B30019800F05BF90590059B002B01D1A1
:10060000002338E0059B00221A71059B01225A71D4
:10061000079B9AB2059BDA80059B09939DF81B30D6
:10062000013B0493099B019A1A60002308931DE083
:10063000019800F03CF90390039B002B0ED0059B22
:100640005B790133DAB2059B5A71099B039A1A60F0
:10065000039B019A1A60039B099304E0059800F03C
:100660000EF8002307E0089B01330893089A049BC7
:100670009A42DDD3059B18460BB05DF804FB00B52C
:100680008BB00190019B0793079B5B798DF81B3022
:10069000019B08939DF81B30013B059300230993B0
:1006A00005E0089B1B680893099B01330993099A8D
:1006B000059B9A42F5D3089B1B680493019B089302
:1006C000002309930BE0089B1B6803930899049887
:1006D00000F024F9039B0893099B013309939DF8CB
:1006E0001B30099A9A42EED300BF00BF0BB05DF8F1
:1006F00004FB00B585B00190019B0393039B043379
:1007000001211846FFF7EBFE00BF05B05DF804FBC2
:1007100000B587B00190019B0593059B043301212F
:100720001846FFF7F4FE0346039303AB0493049BC0
:100730001B78002B02D10198FFF7A1FF00BF07B083
:100740005DF804FB00B591B0039002910192009313
:10075000039B0993039B0F93099BDB881A46099B14
:100760005B7902FB03F3043B0893099BDB88079347
:10077000009B1A1D079BB2FBF3F30E93009B0433FF
:10078000079AB3FBF2F2079901FB02F29B1A0D9351
:10079000019B1A68009B1344089A9A4203D2089A54
:1007A000009BD31A01E0019B1B680C93019B0C9AE0
:1007B0001A6005E00F9B1B680F930E9B013B0E9385
:1007C0000E9B002BF6D100230B93079A0D9BD31A97
:1007D0000A930A9A0C9B934228BF13460A932AE075
:1007E000029A0B9B134406930F9A0D9B13440433F8
:1007F00005939DF84830002B05D00A9A0599069874
:1008000002F0FEF804E00A9A0699059802F0F8F85A
:1008100000230D930F9B1B680F930C9A0A9BD31A0E
:100820000C930B9A0A9B13440B93079A0C9B9342CD
:1008300028BF13460A930C9B002BD1D100BF00BFE9
:1008400011B05DF804FB00B589B0059004910392E6
:100850000293039B079307AA00230093029B04992A
:100860000598FFF76FFF00BF09B05DF804FB82B089
:1008700001900B468DF80330019BDA689DF8033038
:100880000199098A01FB03F31344184602B070472B
:1008900082B001900091009B019AD2689B1A019A44
:1008A000128AB3FBF2F3DBB2184602B0704700B510
:1008B00085B00190002303930020FFF775FE019B94
:1008C0001B681A68019B5B689A421FD9019B1B68D1
:1008D0001A68013A1A601B681B7819460198FFF7DD
:1008E000C6FF0390019B9A68019B1B681B68D31A83
:1008F0008DF80B30019B1B681B799DF80B209A42E9
:1009000004D9019B1B689DF80B201A710020FFF78A
:1009100054FE039B184605B05DF804FB10B584B087
:1009200001900091009B03930020FFF73DFE019B87
:100930001B681C68621C1A6003990198FFF7A8FFE6
:10094000034623700020FFF738FE00BF04B010BD3F
:1009500082B003468DF807309DF90730002B0CDB81
:100960009DF8073003F01F0205499DF907305B0928
:10097000012000FA02F241F8232000BF02B07047C4
:1009800000E100E082B003468DF807309DF90730A2
:10099000002B13DB9DF8073003F01F0209499DF976
:1009A00007305B09012000FA02F2203341F82320CE
:1009B000BFF34F8F00BFBFF36F8F00BF00BF02B008
:1009C000704700BF00E100E082B003468DF80730B9
:1009D0009DF90730002B0DDB9DF8073003F01F0257
:1009E00006499DF907305B09012000FA02F2403305
:1009F00041F8232000BF02B0704700BF00E100E0D3
:100A000082B003468DF807309DF90730002B0DDBCF
:100A10009DF8073003F01F0206499DF907305B0976
:100A2000012000FA02F2603341F8232000BF02B037
:100A3000704700BF00E100E000B585B00190019B68
:100A4000002B0AD0074B43F001030393019B9B014A
:100A50000293039B0298984700E000BF05B05DF841
:100A600004FB00BFA007030008B50D4B4FF4803214
:100A7000C3F844230A4B4FF48032C3F804231120F7
:100A8000FFF7BEFF1120FFF763FF054B01221A603D
:100A90002F20FFF7D1FF034B01221A7000BF08BDC2
:100AA000001001400E0B002008B51120FFF76AFF6F
:100AB0000E4B4FF48032C3F848230C4B4FF4803276
:100AC000C3F80823094B01225A602F20FFF7B4FF17
:100AD000064B01229A60064B00221A602F20FFF776
:100AE000ABFF044B00221A7000BF08BD001001408C
:100AF000000B00200E0B0020024BD3F804351846E3
:100B0000704700BF0010014082B001900091019A2F
:100B1000009BD31A23F07F43184602B070470000B1
:100B200082B00190034A019BC2F8403500BF02B079
:100B3000704700BF0010014086B00190284B1B6831
:100B4000002B03D1264A019B136045E0019B1A68E4
:100B5000234B1B681B689A4210D8214B1B681968ED
:100B6000019B1A681E4B1B688A1A1A601C4B1A6874
:100B7000019BDA611A4A019B13602DE0019B1B68FF
:100B80000393174B1B680593154B1B68049309E0EF
:100B9000049B1B68039AD31A0393049B0593049B3D
:100BA000DB690493049B002B04D0049B1B68039A0D
:100BB0009A42EDD8049B002B05D0049B1A68039B36
:100BC000D21A049B1A60019B039A1A60019B049A33
:100BD000DA61059B019ADA6100BF06B0704700BF79
:100BE000FC0A002000B587B001902A4B1B680393D4
:100BF000284B1B680593059B049308E0049A019B0E
:100C00009A4208D0049B0593049BDB690493049BE0
:100C1000002BF3D100E000BF049B002B01D1002387
:100C200033E0059A049B9A4214D11A4B1B68DB6986
:100C3000184A1360174B1B68002B0BD1164B01226F
:100C40009A60164B00221A60154B01221A702F2051
:100C5000FFF7F2FE049B1B680293049BDA69059B75
:100C6000DA61059BDB690493049B002B05D0049B90
:100C70001A68029B1A44049B1A60064B1B68039A6D
:100C80009A4214BF01230023DBB2184607B05DF877
:100C900004FB00BFFC0A002000100140000B0020F4
:100CA0000F0B002008B51120FFF78EFE00BF08BD16
:100CB00008B51420FFF788FE00BF08BD00B583B05B
:100CC0000190019B5B69019A92691046984700BFA9
:100CD00003B05DF804FB000000B585B02B4B1B682A
:100CE000002B4ED000230193FFF706FF0246284B4E
:100CF0001B6819461046FFF707FF0290234B1B683D
:100D000003931DE0039B1B68029A9A421CD3039B2A
:100D10001B68029AD31A0293039B1B68019A13441F
:100D20000193039B0093039BDB690393009B1B7C54
:100D3000002B05D0009B00221A740098FFF7BEFF1D
:100D4000039B002BDED100E000BF124B1A78124B40
:100D50001B789A420CD1104B1B780133DAB20E4B40
:100D60001A700D4B1B78022B02D10B4B00221A700C
:100D7000094B1B781946094A019B42F82130FFF7BD
:100D800097FF00BF05B05DF804FB00BFFC0A002020
:100D9000000B00200C0B00200D0B0020040B00208A
:100DA00082B00190184B1A78184B1B789A4223D0C6
:100DB000154B1B780133DAB2134B1A70124B1B78A8
:100DC000022B02D1104B00221A700F4B1B781A46CF
:100DD0000F4B53F82220019B1A60019B1A680D4BA0
:100DE0001B6813440B4A13600A4B1B6823F07F43B4
:100DF000084A1360012303E0019B00221A600023CC
:100E0000184602B0704700BF0C0B00200D0B0020ED
:100E1000040B0020000B002088B003900291019287
:100E20000023079338E0204B1B680693069B1B6842
:100E3000039A9A4206D2069B1A68039BD21A069B13
:100E40001A602EE0069B1B68039AD31A0393069B35
:100E50001B68079A13440793069B00221A60124BE3
:100E60001B680593069BDB690F4A1360069BDB68D2
:100E7000002B11D0029A079B134423F07F42069B5C
:100E80005A60069BDA68069B9A60019B1A68069B6B
:100E9000DA61019B059A1A60034B1B68002BC2D1D3
:100EA00000BF00BF08B07047FC0A002000B589B041
:100EB000019000238DF81F30664B1B680593AAE054
:100EC000019B002B05D0019B0693069BDB690193D8
:100ED00061E0614B1B781A4613465B001344DB004C
:100EE0005D4A1344043304935B4B1B780133DAB23D
:100EF000594B1A70584B1A78574B9B789A4202D12B
:100F0000554B00221A70049B5B680693049B1B7868
:100F1000032B1ED0032B7EDC012B1FD0022B7AD19A
:100F2000049B5B681846FFF75DFE0346002B02D06A
:100F300001238DF81F30069B00221A746BE0454B8D
:100F40001B680393039B00221A74039BDB69414ACD
:100F50001360404B1B68002BF1D15CE000BF069B87
:100F60001B7C002B00D056E0049B9A68069B5A60BD
:100F7000049BDA68069B9A60049B1A69069BDA60F8
:100F8000049B5A69069B9A61344B1B78002B02D054
:100F9000069B00225A60069B5A68314B1B68D31A85
:100FA00023F07F432F4A93420ED8069B5B682C4A5E
:100FB000126811461846FFF7A7FD0246069B9B687C
:100FC0001A44069B1A6017E0254B1A68069B5B685B
:100FD00019461046FFF798FD0290069B9B68029AFF
:100FE0009A4206D2069B9A68029BD21A069B1A6006
:100FF00002E0069B00221A60069B00225A60069BB4
:1010000000229A60069B01221A74069B0022DA6174
:101010000698FFF791FD019B002B7FF451AF0E4B1B
:101020001A780D4B5B789A427FF44AAF9DF81F30D7
:10103000002B04D1074B1B68059A9A4201D001236B
:1010400000E0002303F00103DBB2184609B05DF8AD
:1010500004FB00BFFC0A0020F00900200F0B002059
:10106000000B0020FEFF7F0010B588B00190274BD9
:101070001B68002B44D0254B1B681B680793FFF7A8
:101080003BFD0690224B1B68059305990698FFF7D8
:101090003BFD0346033304931E4B1B7883F001038F
:1010A000DBB2002B01D0FFF7DFFC049A079B9342D1
:1010B00038BF1346059A13440593059B23F07F43DD
:1010C00005930598FFF72CFDFFF716FD0390069991
:1010D0000398FFF719FD0346DC1C06990598FFF7F6
:1010E00013FD03469C420DD9FFF706FD0346184643
:1010F000FFF716FD2F20FFF79FFCFFF7D3FD01E060
:10110000FFF7D2FC00BF08B010BD00BFFC0A0020F2
:10111000000B00200E0B002000B587B000230193C8
:1011200000238DF81730194B1B680493184B1B686C
:1011300003936B461846FFF733FE03468DF80B30DA
:101140009DF80B30002B08D0009B01AA049918468B
:10115000FFF762FE01238DF81730019B1846FFF759
:10116000A5FE0346002B02D001238DF817309DF811
:101170001730002B02D00398FFF776FF054B0022B3
:101180001A7000BF07B05DF804FB00BF000B002021
:10119000FC0A00200F0B002008B50E4B0022C3F8FC
:1011A00040210C4B0022C3F844210A4B0022C3F813
:1011B0004821084B0022C3F84C21064B0022C3F8FB
:1011C0000021044B0022C3F80421FFF785FD00BF76
:1011D00008BD00BF0010014008B5FFF79DFF00BF2C
:1011E00008BD0000BFF34F8F00BF064BDB6803F460
:1011F000E0620449044B1343CB60BFF34F8F00BF41
:1012000000BFFDE700ED00E00400FA0582B0114BDD
:101210001B680193104B1B680093019B0D2B14D18D
:10122000009B022B0DD0009B022B0CD8009B002BA7
:1012300003D0009B012B02D005E0012306E001232F
:1012400004E0012302E0012300E00023184602B07D
:10125000704700BF300100103401001082B0114B04
:101260001B680193104B1B680093019B0D2B14D13D
:10127000009B022B0DD0009B022B0CD8009B002B57
:1012800003D0009B012B02D005E0012306E00123DF
:1012900004E0012302E0012300E00023184602B02D
:1012A000704700BF300100103401001082B0114BB4
:1012B0001B680193104B1B680093019B0D2B14D1ED
:1012C000009B022B0DD0009B022B0CD8009B002B07
:1012D00003D0009B012B02D005E0012306E001238F
:1012E00004E0012302E0012300E00023184602B0DD
:1012F000704700BF300100103401001082B0114B64
:101300001B680193104B1B680093019B0D2B14D19C
:10131000009B022B0DD0009B022B0CD8009B002BB6
:1013200003D0009B012B02D005E0002306E0002340
:1013300004E0012302E0012300E00023184602B08C
:10134000704700BF300100103401001008B5FFF7EE
:10135000D5FF0346002B07D04FF010234FF08042FB
:10136000D3F80832C2F8583500BF08BD00BF044B9F
:10137000D3F80034002BFAD000BF00BF704700BF85
:1013800000E0014000B583B00190054A019BC2F81E
:101390000435FFF7EBFF00BF03B05DF804FB00BFAF
:1013A00000E00140024B034A1A6000BF704700BFD3
:1013B000180000200090D00308B5FFF727FF034670
:1013C000002B0ED04FF080430022C3F80C214FF0C9
:1013D00080430022C3F810214FF080430022C3F85D
:1013E0003825FFF73BFF0346002B76D04FF08053A4
:1013F0005E4AD3F80434C2F820354FF080535B4A7C
:10140000D3F80834C2F824354FF08053574AD3F844
:101410000C34C2F828354FF08053544AD3F81034B6
:10142000C2F82C354FF08053504AD3F81434C2F828
:1014300030354FF080534D4AD3F81834C2F8343564
:101440004FF08053494AD3F81C34C2F840354FF06E
:101450008053464AD3F82034C2F844354FF08053C5
:10146000424AD3F82434C2F848354FF080533F4AFB
:10147000D3F82834C2F84C354FF080533B4AD3F8A8
:101480002C34C2F850354FF08053384AD3F83034FA
:10149000C2F854354FF08053344AD3F83434C2F88C
:1014A00060354FF08053314AD3F83834C2F8643590
:1014B0004FF080532D4AD3F83C34C2F868354FF0D2
:1014C00080532A4AD3F84034C2F86C354FF0805329
:1014D000264AD3F84434C2F87035FFF7E7FE0346D6
:1014E000002B0DD04FF08043D3F8003403F00103FC
:1014F000002B05D04FF080436FF00102C3F80024A9
:101500001B4BD3F888301A4A43F47003C2F8883072
:10151000BFF34F8F00BFBFF36F8F00BFFFF716FF02
:101520004FF01023D3F80032002B05DB4FF01023CF
:10153000D3F80432002B15DA0120FFF723FF4FF018
:1015400010231222C3F80022FFF710FF4FF01023E0
:101550001222C3F80422FFF709FF0020FFF712FF51
:10156000FFF740FEFFF71EFF00BF08BD00C00040B0
:1015700000ED00E082B00190019B1B681F2B02D898
:101580004FF0A04306E0019B1B6803F01F02019B84
:101590001A60024B184602B0704700BF00030050AB
:1015A00000B585B00190084611461A4603468DF8ED
:1015B00003300B468DF8023013468DF8013001AB35
:1015C0001846FFF7D7FF03909DF803209DF80230DF
:1015D0005B001A439DF801309B001A439DF81830B8
:1015E0001B0242EA03019DF81C301B04019A1943B7
:1015F000039B02F5E07243F8221000BF05B05DF8CE
:1016000004FB00B585B003900023019300230093F1
:101610000023012201210398FFF7C2FF00BF05B09C
:101620005DF804FB00B585B003900B468DF80B30D8
:101630009DF80B300022019200220092002200212E
:101640000398FFF7ADFF00BF05B05DF804FB00B5E0
:1016500085B0019001AB1846FFF78CFF0390019B0A
:10166000012202FA03F31946039800F02AF800BF9A
:1016700005B05DF804FB00B585B0019001AB1846DC
:10168000FFF778FF0390019B012202FA03F319464A
:10169000039800F020F800BF05B05DF804FB00B52A
:1016A00083B001900091009B002B03D10198FFF7BC
:1016B000E2FF02E00198FFF7CAFF00BF03B05DF848
:1016C00004FB82B001900091019B009AC3F80825A9
:1016D00000BF02B0704782B001900091019B009A58
:1016E000C3F80C2500BF02B07047000000B583B0FE
:1016F0000190064A019B13441B7801211846FFF70D
:10170000CEFF00BF03B05DF804FB00BFA8070300D5
:1017100000B583B00023019305E00198FFF7E6FFD1
:10172000019B01330193019B032BF6D900BF00BF3E
:1017300003B05DF804FB000000B583B00023019303
:1017400009E0094A019B13441B781846FFF759FF2B
:10175000019B01330193019B032BF2D9FFF7D8FFC3
:1017600000BF03B05DF804FBA807030000B583B019
:101770000023019307E0022303211846FFF752FFDD
:10178000019B01330193019B002BF4D000BF00BFEC
:1017900003B05DF804FB00B583B00190019B03F03A
:1017A0000103002B01D0FFF7C7FF019B03F00203E9
:1017B000002B01D0FFF7DAFF00BF03B05DF804FB98
:1017C00008B5024B1B68984700BF08BD100B0020EE
:1017D00084B001900B46ADF80230BDF80230019A9A
:1017E000134400221A60BDF80230019A13441B68AA
:1017F0000393039B00BF04B0704782B001900B4677
:10180000ADF80230BDF80230019A13441B68002B7A
:1018100014BF01230023DBB2184602B0704700005A
:1018200082B00190019B1B681F2B02D84FF0A04390
:1018300006E0019B1B6803F01F02019B1A60024B2C
:10184000184602B0704700BF0003005000B585B0D5
:10185000019001AB1846FFF7E3FF0390019B0122C3
:1018600002FA03F31946039800F018F800BF05B018
:101870005DF804FB00B585B0019001AB1846FFF799
:10188000CFFF0390019B012202FA03F3194603984C
:1018900000F00EF800BF05B05DF804FB82B00190C7
:1018A0000091019B009AC3F8082500BF02B0704761
:1018B00082B001900091019B009AC3F80C2500BFF3
:1018C00002B07047024A034B1B68136000BF7047A9
:1018D000000E0040840B002000B583B00190019BF6
:1018E000DB7FFF2B0ED0019B9B7F002B05D0019B44
:1018F000DB7F1846FFF7BEFF04E0019BDB7F184645
:10190000FFF7A4FF019B00225A77019B00221A7265
:10191000019B1B68019A02F10800019A5268114666
:10192000984700BF03B05DF804FB000000B583B02A
:10193000019000914FF48C710198FFF75EFF034610
:10194000002B0DD0019B084A934201D1FFF7BAFF4B
:101950004FF48C710198FFF73BFF0098FFF7BCFF35
:1019600000BF03B05DF804FB00F0024008B5034976
:101970000348FFF7DBFF00BF08BD00BF180B0020C6
:101980000030004008B503490348FFF7CFFF00BF10
:1019900008BD00BF3C0B00200030024008B50349E1
:1019A0000348FFF7C3FF00BF08BD00BF600B002066
:1019B00000F0024082B003468DF807309DF90730F1
:1019C000002B0CDB9DF8073003F01F0205499DF941
:1019D00007305B09012000FA02F241F8232000BF22
:1019E00002B0704700E100E082B0034600918DF83C
:1019F00007309DF90730002B0ADB009BDAB20C4957
:101A00009DF907305201D2B20B4483F800230BE05A
:101A1000009BDAB207499DF8073003F00F03043B3F
:101A20005201D2B20B441A7600BF02B0704700BF19
:101A300000E100E000ED00E082B00190019B1B0B93
:101A40005BB2184602B0704700B583B003460A4641
:101A50008DF8073013468DF806309DF806209DF965
:101A6000073011461846FFF7BFFF00BF03B05DF80F
:101A700004FB00B583B003468DF807309DF90730AD
:101A80001846FFF797FF00BF03B05DF804FB00B5F1
:101A900083B00346ADF80630BDF80630184600F0B6
:101AA00026F803461B68012B0CBF01230023DBB281
:101AB000184603B05DF804FB00B585B00346ADF8E9
:101AC0000630BDF80630184600F011F803461A46F5
:101AD00000231360BDF80630184600F008F80346EE
:101AE0001B680393039B00BF05B05DF804FB82B045
:101AF0000346ADF80630BDF8063003F1804303F528
:101B0000C043184602B0704782B00190034A019B5F
:101B1000C2F8043300BF02B0704700BF006000404D
:101B200082B00190034A019BC2F8083300BF02B0A3
:101B3000704700BF0060004082B00190034BD3F8B3
:101B40000423019B1340184602B070470060004018
:101B500082B00190084A019B03F5A27352F823302A
:101B6000054943F00102019B03F5A27341F82320CC
:101B700000BF02B0704700BF0060004082B001901B
:101B8000084A019B03F5A27352F82330054923F05C
:101B90000102019B03F5A27341F8232000BF02B0AC
:101BA000704700BF0060004084B00390029113466C
:101BB0008DF80730144A039B03F5A27352F82330C3
:101BC000114923F44F3323F44073039A02F5A272B0
:101BD00041F822300C4A039B03F5A27352F82320EC
:101BE000029B1B0203F47C519DF807301B0403F495
:101BF00040330B4304491A43039B03F5A27341F896
:101C0000232000BF04B070470060004082B0019004
:101C1000054A019B03F5A27352F823301B0A03F017
:101C20003F03184602B070470060004082B0019048
:101C3000064A019B03F5A27352F823301B0C03F0F4
:101C40000303DBB2184602B0704700BF00600040DB
:101C500084B00390029111461A460B468DF8073066
:101C600013468DF80630184A039B03F5A27352F809
:101C70002330154923F4991323F4F853039A02F5FA
:101C8000A27241F82230104A039B03F5A27352F866
:101C90002320029B1B0203F47C519DF807301B0498
:101CA00003F4403319439DF806301B0503F48013F9
:101CB0000B4305491A43039B03F5A27341F8232004
:101CC00000BF04B0704700BF0060004082B00190C8
:101CD000019B1B681F2B02D84FF0A04306E0019B1D
:101CE0001B6803F01F02019B1A60024B184602B0EA
:101CF000704700BF0003005000B585B00190084652
:101D000011461A4603468DF803300B468DF8023013
:101D100013468DF8013001AB1846FFF7D7FF03904B
:101D20009DF803209DF802305B001A439DF80130B6
:101D30009B001A439DF818301B0242EA03019DF8EC
:101D40001C301B04019A1943039B02F5E07243F80F
:101D5000221000BF05B05DF804FB00B585B003900C
:101D60000023019300230093002301220121039803
:101D7000FFF7C2FF00BF05B05DF804FB00B585B0FA
:101D800003900B468DF80B309DF80B30002201922A
:101D900000220092002200210398FFF7ADFF00BF50
:101DA00005B05DF804FB00B585B0019001AB1846A5
:101DB000FFF78CFF0390019A039B02F5E07253F842
:101DC000223023F002030293019A039B02F5E07292
:101DD000029943F8221000BF05B05DF804FB00B57E
:101DE00085B001900B468DF8033001AB1846FFF724
:101DF0006DFF0390019A039B02F5E07253F82230C5
:101E0000019A23F44031039B02F5E07243F822105B
:101E1000019A039B02F5E07253F822309DF80320EB
:101E200012041146019A1943039B02F5E07243F82C
:101E3000221000BF05B05DF804FB00B585B001902D
:101E400001AB1846FFF742FF0390019B012202FA03
:101E500003F31946039800F04BF800BF05B05DF896
:101E600004FB00B585B0019001AB1846FFF72EFFCB
:101E70000390019B012202FA03F31946039800F034
:101E800041F800BF05B05DF804FB00B585B00190D6
:101E900001AB1846FFF71AFF0390039800F020F8F3
:101EA0000246019B22FA03F303F00103184605B032
:101EB0005DF804FB00B585B0019001AB1846FFF753
:101EC00005FF0390019A039B02F5E07253F822305C
:101ED0001B0C03F00303DBB2184605B05DF804FBEE
:101EE00082B00190019BD3F81035184602B07047BC
:101EF00082B001900091019B009AC3F8082500BFB1
:101F000002B0704782B001900091019B009AC3F823
:101F10000C2500BF02B0704788B003900291019277
:101F2000164A05AB92E8030083E80300039B07937E
:101F300019E0079B9B0008AA134453F80C3CD3F804
:101F40002025019B1A60079B9B0008AA134453F8A5
:101F50000C3C019A1268C3F82025019B04330193BD
:101F6000079B01330793039A029B1344079A9A42F3
:101F7000DFD300BF00BF08B0704700BFB807030041
:101F800000B585B0019001AB1846FFF79FFE0390A6
:101F9000019B012202FA03F31A46039BC3F8202592
:101FA00000BF05B05DF804FB84B00190019B5B09A4
:101FB000029300230393029B002B03D0029B012B6F
:101FC00004D007E04FF0FF33039303E040F2FF3308
:101FD000039300BF019B03F01F030193039A019B2E
:101FE00022FA03F303F00103002B14BF01230023A3
:101FF000DBB2184604B0704784B001900091009B9A
:102000000393019BDB080293019B03F007030193F9
:102010000122019B02FA03F30399029A0A441278FF
:102020001340184604B0704784B001900091009BA3
:102030000393019BDB080293019B03F007030193C9
:10204000039A029B13441B785AB20121019B01FAA7
:1020500003F35BB2134359B2039A029B1344CAB20F
:102060001A7000BF04B0704782B00190074A019B0C
:102070001344243393F90030B3F1FF3F14BF01231D
:102080000023DBB2184602B0704700BF880B002067
:1020900082B001900C4A019B1344243393F9003021
:1020A000002B09DB084A019B1344243393F90030C9
:1020B000072B01DC012300E0002303F00103DBB266
:1020C000184602B0704700BF880B002082B0019014
:1020D000064A019B1344243393F90030072BCCBFED
:1020E00001230023DBB2184602B07047880B0020A2
:1020F00082B00190064A019B1344243393F90030C7
:10210000DB43DBB2DB09DBB2184602B0704700BF2D
:10211000880B002084B00390029101928DF8033067
:10212000029B59B20E4A039B134424330A461A7089
:102130000B49029B019A41F823209DF8033083F05C
:102140000103DBB2002B08D0029B083B039A51B27B
:10215000034A13440A4683F84E2000BF04B0704778
:10216000880B002082B00190044A019B1344243361
:10217000FE221A7000BF02B0704700BF880B00201B
:1021800082B00190044A019B13442433FF221A7049
:1021900000BF02B0704700BF880B002000B583B0BD
:1021A000019004490198FFF73FFF00BF03B05DF8BD
:1021B00004FB00BFD70B002082B00190044A019BB2
:1021C0001344243393F90030184602B0704700BF1F
:1021D000880B002082B00190034A019B52F8233003
:1021E000184602B0704700BF880B002084B00190F1
:1021F000074A019B13444E3393F900308DF80F309A
:102200009DF80F3023F0C003184604B0704700BF9C
:10221000880B002084B00190074A019B13444E3381
:1022200093F900308DF80F309DF80F309B09DBB229
:10223000184604B0704700BF880B002000B589B075
:102240000390029113468DF80730FF238DF81F305D
:102250009DF80730002B01D0002300E008230593F0
:102260009DF80730002B01D0082300E009230493D8
:10227000059B069314E00F4A069B52F82330B3F1F6
:10228000FF3F0AD19DF80730029A06990398FFF79D
:1022900041FF069B8DF81F3006E0069B0133069335
:1022A000069A049B9A42E6D39DF91F30184609B05E
:1022B0005DF804FB880B002082B003468DF80730E0
:1022C0009DF80730094A4FF0FF3142F823109DF87E
:1022D0000730072B07D99DF80730083B034A134402
:1022E000FF2283F84E2000BF02B07047880B002009
:1022F00000B583B02D4B93F85530002B03D0082345
:102300000093009B4EE000238DF8073011E09DF80C
:1023100007301846FFF748FE0346002B04D09DF80F
:1023200007301846FFF72CFF9DF8073001338DF872
:1023300007309DF80730292BE9D900238DF80730A5
:1023400009E09DF807301846FFF7B6FF9DF8073003
:1023500001338DF807309DF80730082BF1D906229C
:102360000021134800F075FB1248FFF765FB034698
:1023700007211846FFF768FB0E48FFF75DFB034691
:102380001846FFF776FB4FF4BE70FFF795FB4FF052
:102390000040FFF7B9FB054B012283F855200023CD
:1023A0000093009B184603B05DF804FB880B0020E7
:1023B000D70B00200060004000B585B0019000916F
:1023C000002303930198FFF74FFE0346002B02D032
:1023D0000823039334E0009B9B78002B19D0012243
:1023E00000210198FFF72AFF03468DF80B309DF975
:1023F0000B30B3F1FF3F09D09DF90B00009B1A7819
:10240000009B5B780199FFF723FC05E0042303930D
:1024100002E00198FFF7A6FE039B002B10D1009B62
:102420005B78012B03D10198FFF707FD02E00198CB
:10243000FFF717FD0198FFF790FC0198FFF7AEFE3C
:10244000039B184605B05DF804FB000000B587B09B
:10245000039002910192002305930398FFF748FE31
:102460000346002B02D00823059357E0029B9B787C
:10247000C3F34003DBB21A4601990398FFF7DEFE6F
:1024800003468DF813309DF91330B3F1FF3F43D06D
:10249000029B9B78C3F38003DBB283F00103DBB2C2
:1024A000002B13D0029B9B7803F00103DBB2002BBF
:1024B00003D00398FFF777FC05E0029B5B78194691
:1024C0000398FFF75BFC0398FFF768FE029B9B787D
:1024D00003F00203DBB2002B08D09DF91300029B2E
:1024E0001B781A460399FFF75FFB17E09DF913303D
:1024F000083B0D4A134493F94E10029B1B789B0135
:102500005AB29DF91330083B0A4351B2064A1344AC
:102510000A4683F84E2001E004230593059B1846E4
:1025200007B05DF804FB00BF880B002000B589B040
:1025300001900B468DF803300198FFF7C7FD034665
:10254000002B2AD00198FFF737FE0346083B1846B8
:10255000FFF760FE03468DF80F309DF80F30032B18
:102560000BD10198FFF791FC0346002B01D0032308
:1025700000E002238DF81F3008E09DF80F30012B9A
:1025800001D1022300E003238DF81F309DF81F3096
:1025900019460198FFF723FC30E00198FFF778FD1A
:1025A0000346002B2AD00198FFF706FE0346069348
:1025B000069B9BB240339BB29B00ADF81630069B46
:1025C0001846FFF7C5FABDF816301846FFF774FA3B
:1025D0009DF80330002B11D00198FFF7EDFD034665
:1025E0001846FFF7F7FD0490049B002B06D001224C
:1025F000069B02FA03F31846FFF786FA00BF09B0FC
:102600005DF804FB00B585B001900198FFF75EFD11
:102610000346002B04D000210198FFF7E0FB15E0F2
:102620000198FFF735FD0346002B0FD00198FFF707
:10263000C3FD03460393039B1846FFF79FFA01224D
:10264000039B02FA03F31846FFF76AFA00BF05B0CE
:102650005DF804FB00B583B001900198FFF715FC0D
:102660000346002B14BF01230023DBB2184603B03E
:102670005DF804FB00B585B00190019A02210020AD
:10268000FFF74AFC002303930BE0039B9B00019A96
:1026900013441B68002B01D0012306E0039B013388
:1026A0000393039B012BF0D90023184605B05DF876
:1026B00004FB000000B587B00190002305935BE0A8
:1026C000344A059B13444E3393F90030B3F1FF3F76
:1026D0004ED00598FFF78AFD049001990498FFF702
:1026E0008BFC0346002B44D00598FFF793FD03466F
:1026F0008DF80F300498FFF7DDFB03468DF80E30A0
:102700009DF80E30022B01D1032300E002238DF847
:102710000D309DF80D3019460498FFF760FB0498C2
:10272000FFF72EFC0498FFF747FD03461846FFF716
:1027300051FD0290029B002B1BD09DF80F30032B04
:102740000FD09DF80E30022B03D19DF80F30012BD6
:1027500007D09DF80E30032B0BD19DF80F30022BC4
:1027600007D19DF80F20029B11460498984700E07E
:1027700000BF059B01330593059B002BA0D001985A
:10278000FFF778FF0346002B97D100BF00BF07B0CB
:102790005DF804FB880B002000B58BB00023089384
:1027A00001AB00221A605A604FF48073ADF81A3002
:1027B000012309930023079321E0BDF81A3018463E
:1027C000FFF765F90346002B0ED00998FFF7B4F91F
:1027D0000346002B08D0BDF81A301846FFF76CF9F5
:1027E000089A099B13430893099B5B000993BDF862
:1027F0001A300433ADF81A30079B01330793079B57
:10280000072BDAD94FF4BE70FFF741F90346002BCE
:102810000DD04FF4BE70FFF74FF9089B43F0004313
:10282000089301AB1A4602210020FFF775FB089BB5
:10283000DBB2002B29D0012309930023079321E069
:10284000099A089B1340002B16D00798FFF7DEF972
:1028500005900798FFF7EAF903468DF813300798BB
:10286000FFF7B8FC0390039B002B05D09DF81320C5
:10287000039B114605989847099B5B000993079BAA
:1028800001330793079B072BDAD9089B002B03DA48
:1028900001AB1846FFF70EFF00BF0BB05DF804FB5D
:1028A00053EA020C61D02DE9F04BB3FA83F51E0018
:1028B00007BFB2FA82F502FA05F403FA05F41646E8
:1028C000C5F120051EBF22FA05F73C43203556EA24
:1028D000044C4FEA144418BF0134A3464FF00009DA
:1028E000C846904271EB030C39D3094207BFB0FAD6
:1028F00080F700FA07F6B1FA81F701FA07F6C7F197
:1029000020071EBF20FA07FC46EA0C062037B6FB5C
:10291000FBFC7F1B103F07F01F04C4F120060CFADC
:1029200004F42CFA06F644BF34460026202FA4BF38
:102930002646002454EA060C08BF012418EB0408BC
:1029400049EB0609A4FB027CC01B06FB02CC04FB7E
:1029500003CC71EB0C01904271EB030CC5D20B461A
:10296000024649464046BDE8F08BB2FBF3F2000058
:1029700038B5204B204A9B1A102B39D9044600F059
:10298000EDF804F1130020F00F021C4B186858B347
:102990004FF0FF340025294611E041B103680B6078
:1029A000044644F8042B00F0DAF8204638BD0168EC
:1029B000124B1960F4E70368014653B118464368A7
:1029C0009342EAD09342F6D9A3423CBF1C46054647
:1029D000F1E74DB16B689B1A6B60A31AEC18EA50D3
:1029E00000F0BDF80434E0E700F0B9F80024DCE7BB
:1029F0000024DAE7F82B0020F80B00201C00002050
:102A0000844640EA010313F0030F18D18446202ABC
:102A10000BD32DE9F007B1E8F807A0E8F807A2F119
:102A20002002202AF7D2BDE8F007042A07D351F884
:102A3000043B40F8043BA2F10402042AF7D2002A26
:102A400005D011F8013B00F8013B013AF9D160468D
:102A500070478446002A2DD010F0030F04D000F8F0
:102A6000011B013A26D0F7E7C9B241EA012141EA48
:102A70000141202A12D3A2F120022DE9F0030B46D6
:102A80000C460D460E460F4688468946A0E8FA03D6
:102A9000203AFBD2BDE8F00320320BD0042A05D344
:102AA00040F8041B043A05D0042AF9D200F8011BAF
:102AB000013AFBD160467047024610F0030F16D171
:102AC00011F0030F13D12DE9F0004FF001374FF053
:102AD000803351F8044BA4EB070525EA04051D409B
:102AE00002D142F8044BF4E7A1F10401F0BC11F863
:102AF000013B02F8013B002BF9D1704700F10101C5
:102B000010F0030F11D010F8012B002A23D010F081
:102B1000030F0AD010F8012B002A1CD010F0030F6D
:102B200003D010F8012B002A15D02DE970004FF0CA
:102B300001324FF0803350F8044BA4EB020525EA34
:102B400004051D4000D1F6E7A0F1040070BC10F8A8
:102B5000012B002AFBD1A0EB0100704770477047A2
:102B60002DE9F04385B005461C4683685E69E2B1F5
:102B700002911FFA82F8ADF80C804FF00009ADF811
:102B80000E90776B02AB4A462021B847ADF8008023
:102B9000ADF80290E368C3F380138DF80430776BCF
:102BA0006B464A4637212846B847E36813F01D0FA5
:102BB00005D0776B2346002205212846B847636875
:102BC000002B0CDB776B231D002210212846B84711
:102BD000776B04F10803002251212846B847766B31
:102BE00004F10C03002204212846B04705B0BDE8DB
:102BF000F08330B583B002AB0024002563E90245C1
:102C000082685269546B00225F21A047DDE9000110
:102C100003B030BD10B583685B695C6B00231A4656
:102C20000321A04710BD00002DE9F04784B0044601
:102C300083685D69D1F808A00B6803934A6804AB08
:102C400043F8082D6F6B00224F21B847074618B193
:102C5000384604B0BDE8F087A3685A6994F94C304F
:102C6000002B3CDB576B01AB002257212046B847B5
:102C7000A8BB9DF807209DF806301B0443EA0263B9
:102C80009DF8042013439DF8052043EA0223BAF17E
:102C9000000F31D103F5783303F5207303934FF020
:102CA000010AA3685F690DF1020300227B2120461F
:102CB0007E6BB04794F94D30012B4ED094F94C30D7
:102CC000012202FA03F3BDF8022022EA030204AB58
:102CD00023F80E2D7F6B00226B212046B847BAF1F6
:102CE000000F4AD16D6B00231A461F212046A847CA
:102CF0000746002850D1ABE7039AD31A98464FEA0B
:102D0000E3794FEA4912580142EAD361C01A61EBF4
:102D100009014B0243EAD053420212EB080043EB95
:102D200009018B0143EA90638201121A63EB0103EC
:102D300016461F46314A002316EB080047EB0901EF
:102D4000FFF7AEFDB0F57F7FABDDA3685F69B0F53F
:102D50007F70A8D0FCF788FAA5E794F94C300122DF
:102D60009A40BDF802301A4304AB23F80E2D7F6B56
:102D700000226B212046B847B1E76E6B03AB0022FF
:102D800005212046B047074630B96D6B002301226C
:102D90001F212046A847074694F94C30002BFFF628
:102DA00057AFA3685D696E6B01AB00227B212046A3
:102DB000B04794F94D308BB194F94C30012202FAAE
:102DC00003F3BDF8042022EA030204AB23F80C2D20
:102DD0006D6B00226B212046A84739E794F94C30EF
:102DE00001229A40BDF804301A4304AB23F80C2D9D
:102DF0006D6B00226B212046A84729E70098E00E62
:102E000010B582B00091ADF804200022ADF8062084
:102E100083685B695C6B6B462121A04702B010BDE3
:102E200010B5054B186883681B69DC6A00231A46D5
:102E30000321A04710BD00BFE00B002008B5044BE4
:102E40001B689A681269126A01461846904708BDC5
:102E5000E00B002000290DDD10B4431E194410467C
:102E6000054C13F8012F5040205C8B42F9D15DF8DE
:102E7000044B704710467047E80703009829024842
:102E800018BF0020704700BFE009030070472DE91C
:102E9000F04184B005460E46BDF82C10901900F0A4
:102EA0007F003244C2F30442840044EA422441EAEF
:102EB0000402120A8DF80C2001F003073C438DF840
:102EC0000D401F4673B900295CD0730063F07E0388
:102ED0008DF80C30012400292FD0A1F500410329E1
:102EE0000AD9FEE700284FD1B1F5004F03D00029E1
:102EF0004AD1012421E001242B6D9B7D4BB92B6825
:102F00005D680A9B3A4603A92046A84704B0BDE87D
:102F1000F0810022214603A8FFF79CFF02463946B4
:102F20000A98FFF797FF2B6800909D680A9B3A4626
:102F300003A92046A847E9E701242B68D3F80080BD
:102F40000A9B3A4603A92046C0472B6D9B7D022B66
:102F5000DCD1182EDAD00022214603A8FFF77AFF31
:102F6000024639460A98FFF775FF044600221821E9
:102F7000284600F041F88442C8D0EB68002BC5D049
:102F80009847C3E70028D7D042F040028DF80C20C4
:102F90000224A0E710B582B000240194049C0094A0
:102FA000FFF775FF02B010BD00B585B003AB00930D
:102FB000042392B2FFF7EEFF0DF10F030DF10B01A9
:102FC000002013F8012902EB00208B42F9D105B053
:102FD0005DF804FB00B585B003AB0093022392B209
:102FE000FFF7D8FF9DF80D309DF80C0000EB032093
:102FF00080B205B05DF804FB00B585B00DF10F039C
:103000000093012392B2FFF7C5FF9DF80F0005B0B2
:103010005DF804FB30B5BDB005460C46036DDA7BA8
:10302000012A1CD0032A40F0D4811B7E13F0080F24
:103030000CD113F0040F02AB009314BF38232023EC
:1030400000224FF4F011FFF7A5FF19E002AB009347
:10305000E82300224FF4F011FFF79CFF10E01B7EE5
:1030600013F0080F40F0AC8113F0040F02AB009393
:1030700014BF3823202300224FF4C011FFF78AFF2A
:103080000DF1170204F11A0304F1200012F8011FD8
:1030900003F8011B8342F9D19DF815209DF81430E7
:1030A00043EA0223C3F30C0363849DF81F209DF8B9
:1030B0001E3043EA0223C3F30D0313F4005F1CBF69
:1030C0006FEA83436FEA934323849DF825209DF89C
:1030D000243043EA0223C3F30B03E3872B6D1B7EEB
:1030E00013F0020F40F06A810AAA631E201D12F835
:1030F000011B03F8011FD1791972D17B59748342E6
:10310000F5D19DF82F3063719DF82E209DF82D305C
:1031100043EA0223E3809DF837209DF8363003EB25
:103120000223C3F3CF13A4F80D309DF832209DF88D
:10313000313043EA0223A4F80F309DF83F209DF878
:103140003E3003EB0223C3F3CF13E3829DF83A2012
:103150009DF8393043EA022323832B6D1B7E13F045
:10316000040F40F02B819DF843209DF842301B0452
:1031700043EA02639DF8402013439DF8412043EA4F
:10318000022323F0604363629DF847209DF8463098
:103190001B0443EA02639DF8442013439DF8452035
:1031A00043EA022323F00043A3629DF84B209DF8DD
:1031B0004A301B0443EA02639DF8482013439DF8FC
:1031C000492043EA0223C3F31003E3629DF84F2032
:1031D0009DF84E301B0443EA02639DF84C201343D4
:1031E0009DF84D2043EA0223C3F3150323639DF8A2
:1031F00053209DF852301B0443EA02639DF850208F
:1032000013439DF8512043EA0223C3F3150363637C
:103210009DF857209DF856301B0443EA02639DF841
:10322000542013439DF8552043EA0223C3F31503AA
:10323000A3639DF865209DF8643043EA0223A387C9
:103240009DF877209DF876301B0443EA02639DF8D1
:10325000742013439DF8752043EA022323F0404372
:1032600023649DF879209DF8783043EA0223636453
:103270009DF87F209DF87E301B0443EA02639DF891
:103280007C2013439DF87D2043EA0223C3F31503FA
:10329000A3649DF883209DF882301B0443EA0263F7
:1032A0009DF8802013439DF8812043EA0223C3F355
:1032B0001503E3649DF887209DF886301B0443EADC
:1032C00002639DF8842013439DF8852043EA02237E
:1032D000C3F3150323659DF895209DF8943043EAC8
:1032E0000223C3F30E03A4F854309DF8A5209DF8E3
:1032F000A43043EA0223C3F30B03A4F856309DF82D
:10330000BF209DF8BE301B0443EA02639DF8BC2039
:1033100013439DF8BD2043EA022323F04043A365F5
:103320009DF8C1209DF8C03043EA0223E3659DF873
:10333000C7209DF8C6301B0443EA02639DF8C420F1
:1033400013439DF8C52043EA0223C3F31503236604
:103350009DF8CB209DF8CA301B0443EA02639DF818
:10336000C82013439DF8C92043EA0223C3F3150381
:1033700063669DF8CF209DF8CE301B0443EA0263BC
:103380009DF8CC2013439DF8CD2043EA0223C3F3DC
:103390001503A3669DF8DD209DF8DC3043EA022387
:1033A000C3F30E03A4F86C309DF8ED209DF8EC30CB
:1033B00043EA0223C3F30B03A4F86E303DB030BDE3
:1033C00002AB0093E82300224FF4C011FFF7E2FDA7
:1033D00056E61B7E13F0010F00F09F8102AB0093B5
:1033E0006C2300224FF44021FFF7D4FD1DAB009366
:1033F0006C2300224FF450212846FFF7CBFD02AA90
:10340000631E201D12F8011B03F8011FD1791972E8
:10341000D17B5974D17D99768342F3D19DF82530C3
:10342000E3779DF80F3063719DF80E209DF80D3005
:1034300043EA0223E3809DF816309DF8172043EA03
:103440000222C2F3CF12A4F80D209DF8152042EA03
:103450000322A4F80F209DF81F2043EA0223C3F3A0
:10346000CF13E3829DF81E209DF81D3043EA02230E
:1034700023839DF827209DF8263043EA0223C3F3D7
:103480000D0313F4005F1CBF6FEA83436FEA93439D
:1034900023849DF829209DF8283043EA0223C3F3B2
:1034A0000C0363849DF82F209DF82E301B0443EA03
:1034B00002639DF82C2013439DF82D2043EA02233C
:1034C00023F0604363622B6D1B7E13F0010F3FF40A
:1034D00075AF9DF833209DF832301B0443EA026338
:1034E0009DF8302013439DF8312043EA022323F056
:1034F0000043A3629DF837209DF836301B0443EA51
:1035000002639DF8342013439DF8352043EA0223DB
:10351000C3F31003E3629DF83B209DF83A301B048F
:1035200043EA02639DF8382013439DF8392043EAAB
:103530000223C3F3150323639DF83F209DF83E301B
:103540001B0443EA02639DF83C2013439DF83D2091
:1035500043EA0223C3F3150363639DF843209DF8F8
:1035600042301B0443EA02639DF8402013439DF858
:10357000412043EA0223C3F31503A3639DF85120BE
:103580009DF8503043EA0223A3879DF861209DF8FF
:10359000603043EA0223C3F30B03E3879DF86720FF
:1035A0009DF866301B0443EA02639DF864201343D0
:1035B0009DF8652043EA022323F0404323649DF8ED
:1035C00069209DF8683043EA022363649DF86F2008
:1035D0009DF86E301B0443EA02639DF86C20134390
:1035E0009DF86D2043EA0223C3F31503A3649DF8FD
:1035F00073209DF872301B0443EA02639DF870202B
:1036000013439DF8712043EA0223C3F31503E364D7
:103610009DF877209DF876301B0443EA02639DF8FD
:10362000742013439DF8752043EA0223C3F3150366
:1036300023659DF885209DF8843043EA0223C3F377
:103640000E03A4F854309DF895209DF8943043EA79
:103650000223C3F30B03A4F856309DF8AF209DF866
:10366000AE301B0443EA02639DF8AC2013439DF87F
:10367000AD2043EA022323F04043A3659DF8B12027
:103680009DF8B03043EA0223E3659DF8B7209DF82A
:10369000B6301B0443EA02639DF8B42013439DF83F
:1036A000B52043EA0223C3F3150323669DF8BB202C
:1036B0009DF8BA301B0443EA02639DF8B820134317
:1036C0009DF8B92043EA0223C3F3150363669DF80E
:1036D000BF209DF8BE301B0443EA02639DF8BC2066
:1036E00013439DF8BD2043EA0223C3F31503A366E9
:1036F0009DF8CD209DF8CC3043EA0223C3F30E039E
:10370000A4F86C309DF8DD209DF8DC3043EA0223FC
:10371000C3F30B03A4F86E3050E602AB00932823EA
:1037200000224FF44021FFF735FC68E600B583B076
:10373000036DDB7B012B0BD0032B10D100910523F4
:1037400004224FF4F011FFF725FC03B05DF804FBF1
:103750000091052300220549FFF71CFCF5E70091C5
:10376000052300226421FFF715FCEEE70400180092
:1037700010B582B04FF400440194049C0094FFF70C
:1037800086FB02B010BD10B584B004AC04F8013D56
:103790000094012392B2FFF7EBFF04B010BD0000CC
:1037A00010B50446036DDB7B012B13D0032B1DD119
:1037B000F02300221249FFF7E6FF00224FF4F01138
:1037C0002046FFF707FC236D1A7BA2B1C0F3090066
:1037D000588410BD0F2300220949FFF7D4FF0022AF
:1037E0004FF4C0112046FFF7F5FBECE700224C2117
:1037F000FFF7F0FBE7E700F07F005884E9E700BF40
:103800002400010038B505460C46022300224FF47F
:103810007021FFF7B8FF04B938BD012300224FF42F
:1038200070212846FFF7AFFFF6E700B585B08DF8A9
:103830000C301B0A8DF80D3003AB0093022392B2BB
:10384000FFF796FF05B05DF804FB000038B50446AD
:1038500000231A464FF42021FFF7E7FF00231A4602
:1038600008492046FFF78FFF074D00231A462946D7
:103870002046FFF788FF0223002229462046FFF753
:1038800082FF38BD14000A0004000A0008B50129AF
:1038900002D0052907D008BD41F6220300220549C0
:1038A000FFF7C3FFF7E74FF4007300220149FFF76A
:1038B000BCFFF0E70400110038B505460C4641F4A2
:1038C00000739BB200224FF43021FFF7AEFFA3B28A
:1038D00000224FF430212846FFF7A7FF38BD000033
:1038E00070B504460E460C4D012300222946FFF711
:1038F0009CFF3346002209492046FFF796FF02232A
:10390000002229462046FFF790FF00220449204666
:10391000FFF74AFB70BD00BF08000B0004000B005E
:1039200010000B0038B504460B4600220A49FFF789
:103930007CFF0A4D8823002229462046FFF723FFFB
:1039400000231A4629462046FFF71DFF002204499E
:103950002046FFF751FB38BD0C000A0004000A00A6
:1039600008000A0070B504460B461546B1F5807F85
:1039700034BF0026202600220B49FFF756FF2B46B6
:1039800000220A492046FFF7FEFE094D46F090034B
:10399000002229462046FFF7F6FE00231A46294654
:1039A0002046FFF7F0FE70BD0C000A0010000A0070
:1039B00004000A0070B504460D461646002240F287
:1039C0000B11FFF7CFFF4FF482712046FFF7AAFFDC
:1039D00000F01F024FF482712046FFF7C3FF236DF2
:1039E0005A8A15435D82236D5B8A00224FF42021A1
:1039F0002046FFF71AFF3346002202492046FFF710
:103A0000C2FE70BD14000A0010B582B00446002248
:103A1000009213461321FFF7ABFE236DDA7B032AD6
:103A20000CBF01220322DA7302B010BD10B584B0BE
:103A30008DF80C301C0A8DF80D401C0C8DF80E40D2
:103A40001B0E8DF80F3003AB0093042392B2FFF7E7
:103A50008FFE04B010BD0000F8B5044600224FF4FC
:103A6000F811FFF7C9FA0546002244212046FFF766
:103A70009BFA0646236D00225A8483F82420DA61DB
:103A80001A849A62236D9C62236DD861226DD37D66
:103A900003F00303032B79D016F4806F05D092F85E
:103AA000243043F0040382F8243015F0800F74D1E1
:103AB00015F0010F40F0A38015F0400F0BD0636AA2
:103AC00013B1206D1C3098474FF4C073022244217B
:103AD0002046FFF7AAFE15F0080F00F0EA80236DDC
:103AE000002283F82420236DDB7B002B40F095809F
:103AF000236DDE6116F4802F00F0A980226D92F80C
:103B0000243043F0080382F824304FF4802716F065
:103B1000805F08D0226D92F8243043F0100382F8C1
:103B2000243047F0805716F4005F06D0226DD37D15
:103B300003F00303032B00F0968016F4804F40F04F
:103B40009E8047F4DE43002244212046FFF76EFFAB
:103B5000206D438C002B40F0A180C37D03F0030354
:103B6000032B00F09B80C36923F49043C361226D53
:103B7000D36943F48053D361E36913B1206D1C30E2
:103B80009847236D002283F824208BE010F4005F17
:103B90001CBF45F00805EDB27EE7276D00224821E5
:103BA0002046FFF717FA3884236D9A7D1AB1DA6937
:103BB00012F0040F03D11B8C03F460638BB1042358
:103BC000002244212046FFF7DEFD4FF4606300220F
:103BD00048212046FFF729FE236A13B1206D1C30CF
:103BE0009847236D1B8C13F4807F3FF461AF4FF433
:103BF0008073002248212046FFF717FE58E7F8237C
:103C0000002244212046FFF7BEFD2369002B3FF42C
:103C100053AF206D1C3098474EE73B492046FFF7D5
:103C2000EBF9236DDB7B032B08BFC0F3071010F00B
:103C3000010F18BF46F4804610F0020F18BF46F47B
:103C4000005610F0040F18BF46F4806650E716F4D3
:103C5000806F1FBF226D92F8243043F0040382F876
:103C60002430002753E792F8243043F0020382F80F
:103C70002430236D00225A8447F4004761E7204630
:103C8000FFF78EFD10F4004F3FF45BAF226D92F80A
:103C9000243043F0010382F8243052E763690BB10A
:103CA0001C309847236DDB7B53B9236D002283F8CA
:103CB000242015F0100F07D115F0200F14D1F8BDF6
:103CC0002046FFF7A1FEF0E7104B002244212046DA
:103CD000FFF7ACFEE36913B1206D1C309847236DEC
:103CE000002283F82420E7E7094B002244212046E4
:103CF000FFF79CFEA36913B1206D1C309847236D1C
:103D0000002283F82420DAE724000100009405341F
:103D10000004221038B5044689B900222C21FFF78F
:103D200043F9054601224FF460212046FFF764F96C
:103D30002B1A00222C212046FFF778FE38BD0022E6
:103D40002C21FFF731F90546012205492046FFF7EE
:103D500053F92B1A00222C212046FFF767FEEDE7CE
:103D60000400010070B506460C46084D00222946A5
:103D7000FFF71AF9000D0005C4F3130303430022F3
:103D800029463046FFF752FE70BD00BF0800010013
:103D900038B505460C4600224FF4A021FFF704F980
:103DA0000B4B034014F0010F18BF43F4802314F0B1
:103DB000020F18BF43F4104314F0040F18BF43F070
:103DC000120300224FF4A0212846FFF72FFE38BD32
:103DD000C00FE0FF38B505460C460B6800220B49C2
:103DE000FFF724FE6368002209492846FFF71EFEFC
:103DF000A368002207492846FFF718FEE36800225F
:103E000005492846FFF712FE38BD00BF0C0002002E
:103E100010000200140002001800020038B5054628
:103E20000C460B6800220B49FFF700FE6368002276
:103E300009492846FFF7FAFDA368002207492846EA
:103E4000FFF7F4FDE368002205492846FFF7EEFD81
:103E500038BD00BF1C000200200002002400020048
:103E6000280002002DE9F0470446052940D0264DE0
:103E70002E46264FDFF8D880DFF8D890DFF8D8A09C
:103E8000234B002223492046FFF7D0FD5346002252
:103E900021492046FFF7CAFD4B4600221F49204614
:103EA000FFF7C4FD434600221D492046FFF7BEFD33
:103EB0003B4600221B492046FFF7B8FD334600224F
:103EC00019492046FFF7B2FD2B460022174920462C
:103ED000FFF7ACFD164B002216492046FFF7A6FD62
:103EE000154B002215492046FFF7A0FDBDE8F087DD
:103EF000134D144E144FDFF86480DFF86490DFF840
:103F000064A0124BBDE700BFB5AF02007DAF020059
:103F1000FEA80200380003003C000300400003003C
:103F200044000300480003004C000300500003005D
:103F3000400200101C00030089A46D1B2000030038
:103F4000F5CF0100B5CF010036CF0100FDC0010063
:103F50003EAF0200FEA5020036AC02007EC70100A3
:103F6000BEC601003EC4010008B500231A4602493E
:103F7000FFF75CFD08BD00BF0400070038B504462C
:103F80000D4600231A460A49FFF750FD00231A4642
:103F90004FF4E0212046FFF749FD05B938BD4FF049
:103FA000E053002203492046FFF740FDF6E700BF3B
:103FB0004800070014000700F0B583B0046DE47BEF
:103FC000032C0CBF4FF4981C4FF4901C9C18B4F5B4
:103FD000806F19DA1D4616460F4604467F2B15D909
:103FE0004FEA1C4300220D49FFF720FD2B4600221B
:103FF0000B492046FFF71AFD0097334600224FF485
:10400000E8112046FEF7C6FF03B0F0BD009113464D
:104010002A466146FEF7BEFFF6E700BF04001F0018
:1040200008001F0030B583B005460C4671B121F081
:104030000203013B0F2B56D8DFE803F01055552142
:10404000555555285555555555555533002200920F
:1040500013460221FFF78CFB20460EE0002200925F
:1040600013460421FFF784FB032244212846FEF770
:10407000C3FF10F0080F1FD1002003B030BD002295
:10408000009213460A21FFF773FBEDE70021FFF7CB
:1040900041FE00220092134608212846FFF768FBE4
:1040A000E2E70121FFF736FE0022009213460621C7
:1040B0002846FFF75DFBD7E7002100910B460A4633
:1040C0002846FFF755FB14F0020F02D04FF0FF30E7
:1040D000D3E700220092134602212846FFF748FB4F
:1040E0004FF0FF30C9E74FF0FF30C6E7F0B583B0BF
:1040F0005C18B4F5806F24DA1C4617460E46054658
:104100007F2B15D9142300220F49FFF78FFC23467C
:1041100000220E492846FFF789FC0097334600220B
:104120004FF4E8112846FFF723FB002003B0F0BD51
:1041300000920B4622464FF4A011FFF719FB002016
:10414000F4E74FF0FF30F1E704001F0008001F0004
:1041500030B585B0089C8DF808301D0A8DF80950DF
:104160001D0C8DF80A501B0E8DF80B308DF80C408D
:10417000230A8DF80D30230C8DF80E30240E8DF8A7
:104180000F4048F20303019302AB0093082392B25D
:10419000FEF77DFE05B030BD00B583B0052904D023
:1041A00009290BD003B05DF804FB402300936FF4A2
:1041B000005300220649FFF7CBFFF3E74FF401530A
:1041C00000936FF4005300220149FFF7C1FFE9E7B4
:1041D00008000B0070B582B004460E46134D4FF038
:1041E000082300934FF0FF3300222946FFF7B0FF6A
:1041F0004FF0601300934FF0FF3300222946204612
:10420000FFF7A6FF0A4B00934FF0FF3300224FF455
:10421000E0212046FFF79CFF0EB902B070BD054BB0
:10422000002205492046FFF701FCF6E74800070099
:10423000003C0002001101011400070000B583B02A
:10424000054B00934FF0FF3300220449FFF780FF36
:1042500003B05DF804FB00BF003C0002040007004F
:104260002DE9F04383B004460D461746564E002212
:104270003146FEF799FE81464FF4704300934FF0AC
:10428000FF33002231462046FFF762FFDFF83C8112
:104290001823002241462046FFF7C7FA2521204671
:1042A000FFF70AFB02212046FFF706FB4FF4FE71E1
:1042B0002046FFF701FBF9B241F480712046FFF779
:1042C000FBFA4FF480712046FFF7F6FA00212046F2
:1042D000FFF7F2FA02212046FFF7EEFA4FF4E07101
:1042E0002046FFF7E9FAE9B241F480712046FFF772
:1042F000E3FAC5F3072141F480712046FFF7DCFAA9
:10430000C5F3074141F480712046FFF7D5FA290E25
:1043100041F480712046FFF7CFFA00212046FFF7D5
:10432000CBFA3A212046FFF7C7FA40F2FF112046A8
:10433000FFF7C2FA4FF485712046FFF7BDFA00215E
:104340002046FFF7B9FA3A212046FFF7B5FA40F2C6
:1043500001112046FFF7B0FA022300224FF430216A
:104360002046FFF762FA00231A464FF43021204618
:10437000FFF75BFA0220FAF76DFF3A212046FFF7BC
:104380009BFA4FF481712046FFF796FA0223002230
:104390004FF430212046FFF748FA00231A464FF425
:1043A00030212046FFF741FA00231A4641462046B5
:1043B000FFF73BFA4B46002231462046FFF736FB1B
:1043C00003B0BDE8F08300BF4400070008000B0005
:1043D000F0B583B0002423460126072702E001340C
:1043E000092C09D006FA04F50D42F8D004EB440577
:1043F00007FA05F52B43F2E71A400092DB4300224F
:104400004FF4A021FFF7A4FE03B0F0BD2DE9F04169
:1044100082B00446884617461D46FAF7D9FE06467E
:10442000022D2DD0012D38D0002500956FEA08030C
:104430002A463C212046FFF78BFE0095FB432A4687
:1044400040212046FFF784FE00223C212046FEF753
:10445000ABFD0346002244212046FFF7E7FA002285
:1044600040212046FEF7A0FD0346002248212046B9
:10447000FFF7DCFA3046FAF7C3FE02B0BDE8F08180
:10448000434600223C212046FFF7D0FA3B4600225B
:1044900040212046FFF7CAFAD6E7CDF800804FF05A
:1044A000FF3300223C212046FFF752FE00974FF0D9
:1044B000FF33002240212046FFF74AFEC4E70000F8
:1044C00010B582B004467F2A12D9803241EAC32156
:1044D00041EA024100910C4B00222421FFF738FEF3
:1044E00000224FF400212046FEF786FD02B010BDE9
:1044F00041EAC32141EA02410091034B00222421F9
:10450000FFF726FEF2E700BF00F400FC00B583B021
:1045100000920B4600224421FFF71AFE002003B050
:104520005DF804FB00B585B08DF80C309DF81830AF
:104530008DF80D3048F20103019303AB0093022381
:1045400092B2FEF7A4FC05B05DF804FB30B583B071
:1045500004460D4611F0010F15D000230093EF2300
:1045600002224FF46021FFF7DDFF236D1D76236DDE
:104570001B7E5B0810D06B0800220E492046FFF717
:1045800002F903B030BD10230093FF2302224FF441
:104590006021FFF7C7FFE8E701230093FF23002214
:1045A00004492046FFF7BEFF226D137E43F002034D
:1045B0001376E6E72800010070B582B004460D4688
:1045C0000121FFF763F900212046FFF703FE204693
:1045D000FFF734FEC5F30B03002215492046FFF711
:1045E00024F903230093FF23002212492046FFF7FA
:1045F00099FF104E00252A4631462046FEF7FCFC66
:1046000010F0010FF7D12046FFF7AEFC0021204645
:10461000FFF7B4FC05212046FFF738F900220649D0
:104620002046FEF7E9FC00F03F0002B070BD00BF7D
:104630001C000800100008001C00070038B50546E3
:104640000C46B1F8051049B1FFF7B6FFD4F80130B8
:10465000002205492846FFF7E9F938BD23780022F2
:104660000249FFF790F8F1E70C0001001C00070079
:1046700030B583B004460D4610230093FF2300227B
:104680000649FFF74FFF2B46022D38BF02230022B9
:104690002C212046FFF7CAF903B030BD24000F00DB
:1046A00030B583B0044601291DD0022930D0012342
:1046B0000093FF2300222649FFF734FF254D4FF4D6
:1046C000000300936FF48073002229462046FFF711
:1046D0003FFD002300937F23022229462046FFF757
:1046E00021FF03B030BD0521FFF7D0F84FF48173EF
:1046F00000934FF0FF33002217492046FFF728FDB3
:1047000001220092FF2313492046FFF70BFFE8E741
:1047100003230093FF2300220D49FFF703FF0D4DF4
:104720004FF4000300936FF4807300222946204663
:10473000FFF70EFD002300937F2302222946204627
:10474000FFF7F0FE05212046FFF7A0F8C9E700BFFC
:1047500004001100080011000800090030B583B002
:10476000054602290ED000240094FE232246102183
:10477000FFF7D8FE2346224614212846FFF755F8B6
:1047800003B030BD144601230093FF230022102103
:10479000FFF7C8FE2346002214212846FFF745F8FC
:1047A000EEE700002DE9F04182B00546294C2A4B86
:1047B00000222146FFF73AF910230093FF2300223D
:1047C00021462846FFF7AEFE03244FF01408234F7E
:1047D00000264046FAF748FD324639462846FEF79D
:1047E0000BFC012834D0631E13F0FF04F1D16FF0ED
:1047F0000204184E00231A4631462846FEF7C3FF2E
:104800000123002215492846FEF7BDFF012300932E
:10481000FF23022231462846FFF784FE002210497A
:104820002846FEF7C1FB6FF06043984208BF6FF067
:10483000030400220B492846FEF7B6FB6FF06043E5
:10484000984214BF20466FF0040002B0BDE8F0812A
:104850000024CEE70C000400010002002000040048
:10486000140004001C00040000B583B000290BBF35
:10487000FF23F72300220822009201221021FFF7D4
:1048800051FE03B05DF804FB10B584B0BDF81840CC
:104890008DF80C301B0A8DF80D308DF80E40240A6F
:1048A0008DF80F4048F20203019303AB00930423F9
:1048B00092B2FEF7ECFA04B010BD000010B582B061
:1048C00004464FF4C07300934FF6FF73002207496C
