:100000000000022075F101005DF101005FF10100C7
:1000100061F1010063F1010065F1010000000000E1
:1000200000000000000000000000000067F1010077
:1000300069F10100000000006BF101006DF10100A9
:100040006FF101006FF10100A53B0200994502002C
:100050006FF101006FF101001D5402006FF101000A
:100060006FF101006FF101006FF101006FF101000C
:100070006FF101006FF101006FF101006FF10100FC
:100080006FF10100D93202006FF101006FF1010040
:10009000193302006FF101006FF101006FF10100EF
:1000A0006FF101006FF101006FF101006FF10100CC
:1000B0006FF101006FF1010000000000000000007E
:1000C0006FF101006FF101006FF10100B145020015
:1000D0006FF101006FF101006FF101006FF101009C
:1000E0006FF10100000000000000000000000000AF
:1000F000000000006FF1010000000000C94502008F
:1001000000000000000000000000000000000000EF
:1001100000000000000000000000000000000000DF
:1001200000000000000000000000000000000000CF
:1001300000000000000000000000000000000000BF
:1001400000000000000000000000000000000000AF
:10015000000000000000000000000000000000009F
:10016000000000000000000000000000000000008F
:10017000000000000000000000000000000000007F
:10018000000000000000000000000000000000006F
:10019000000000000000000000000000000000005F
:1001A000000000000000000000000000000000004F
:1001B000000000000000000000000000000000003F
:1001C000000000000000000000000000000000002F
:1001D000000000000000000000000000000000001F
:1001E000000000000000000000000000000000000F
:1001F00000000000000000000000000000000000FF
:020000021000EC
:10F00000354936480A1A02D0072291438D463449C1
:10F0100034480A1A06D00722914381F30988022254
:10F0200082F3148830483149314A00F044F83148BD
:10F030003149324A00F03FF831483249324A00F053
:10F040003AF832483249334A00F035F83248334909
:10F05000334A00F030F833483349344A00F02BF893
:10F0600033483449344A00F026F834483449002201
:10F0700000F02CF833483449002200F027F83348D8
:10F080003349091A082902DB002202604160314A33
:10F0900090471F481F49884205D00268043003B4D6
:10F0A000904703BCF7E700208646EC46002000218D
:10F0B000294A9047FEE7884207D0521A05D00378C4
:10F0C00001300B700131013AF9D17047884202D00A
:10F0D00002700130FAE770470000022000E00120D2
:10F0E0000000022000000220D08003000000002069
:10F0F0007C000020D0F10100D0F10100BC690300C8
:10F10000D08003000000002000000020506A0300AF
:10F11000506A0300506A0300506A0300506A0300FB
:10F12000506A0300506A0300506A0300CE80030057
:10F130004C8103007C0000207C0000207C0000202B
:10F14000181300201813002020130020341300206F
:10F15000343300209DF1010021FC0100FEE7FEE7B1
:10F16000FEE7FEE7FEE7FEE7FEE7FEE7FEE7FEE777
:10F1700000F002B8FFF7FCBF0F484FF007018843CB
:10F1800085460E4880470E48016841F470010160D1
:10F19000BFF34F8FBFF36F8FFFF732BF09480A49A4
:10F1A0000A4A884207D0521A05D0037801300B7002
:10F1B0000131013AF9D17047000002207136020096
:10F1C00088ED00E0506A03000000002000000020ED
:10F1D00000B583B0094B1B88184606F07DF803463E
:10F1E0000193019B002B04D0044B1B88184606F0AA
:10F1F0004BF8019B184603B05DF804FB06000020A5
:10F2000000B583B00190019B002B05D0044B1B88F7
:10F210000121184605F0CCFF00BF03B05DF804FBE8
:10F220000600002000B585B00190019B002B0AD09C
:10F23000074B43F001030393019B9B010293039B44
:10F240000298984700E000BF05B05DF804FB00BFDE
:10F25000506A030000B583B00190019800F003FCF0
:10F2600000BF03B05DF804FB00B583B001900198C6
:10F27000FFF7D8FF00BF03B05DF804FB00B585B011
:10F280000190019B002B0AD0074B43F0010303932D
:10F29000019B9B010293039B0298984700E000BFEB
:10F2A00005B05DF804FB00BF806A030082B00190E6
:10F2B000019B1B681F2B02D84FF0A04306E0019B67
:10F2C0001B6803F01F02019B1A60024B184602B034
:10F2D000704700BF0003005000B585B0019008469C
:10F2E00011461A4603468DF803300B468DF802305E
:10F2F00013468DF8013001AB1846FFF7D7FF039096
:10F300009DF803209DF802305B001A439DF8013000
:10F310009B001A439DF818301B0242EA03019DF836
:10F320001C301B04019A1943039B02F5E07243F859
:10F33000221000BF05B05DF804FB82B00190019B74
:10F340000722C3F8002500BF02B0704782B00190C9
:10F35000019B0022C3F8002500BF02B0704700B532
:10F360008FB003900291009313468DF8073000236D
:10F370000D93029B09939DF807300A93009B0B9312
:10F380009DF840300C93039B043309A900221846D2
:10F3900005F094F80D900D9B18460FB05DF804FB36
:10F3A00000B583B00190019B002B0AD04FF47A7016
:10F3B000FFF764FF019B013B0193019B002BF5D1FB
:10F3C00000E000BF03B05DF804FB000000B585B0AD
:10F3D000264B1B689B680393039B4FF080421A6186
:10F3E000039B4FF0A0525A61039B002283F82C200C
:10F3F000039B0293039B1C330193029B03221A700D
:10F40000029B01221A73029B194A5A60029B022234
:10F410001A72019B03221A70019B08225A70019BE9
:10F420001D229A70019BFF22DA70019B02221A7141
:10F43000019BFF225A71019B4FF080429A60019B11
:10F4400000221A73019B00225A730A4A6B46126803
:10F45000114619800233120C1A706B461946262089
:10F4600005F0E2FD00BF05B05DF804FB14000020CC
:10F4700000F00240586A030000B585B00190019B7E
:10F480005B6803930398FFF758FF0023184605B005
:10F490005DF804FB00B585B00190019B5B680393A8
:10F4A0000398FFF753FF0023184605B05DF804FBEF
:10F4B00000B583B0104B1B681A690F4B1B685A626A
:10F4C0000D4B1B6818460C4B1B6803F11C010023F5
:10F4D000002204F011FB0190019B002B04D0074A8D
:10F4E0008421019801F00AFF0220FFF759FF00BFB5
:10F4F00003B05DF804FB00BF000000205C6A03005D
:10F5000000B585B01D4B1B685A691C4B1B685A62BD
:10F510001A4B1B681846194B1B6803F11C0100238A
:10F52000002204F0E9FA0390039B002B04D0144A54
:10F530009621039801F0E2FE104B1B681B7F1846D2
:10F540000023019303230093002300220121FFF7EE
:10F55000C3FE0A4B1B685B7F1846002301930323FD
:10F560000093002301220121FFF7B6FE0220FFF7DE
:10F5700017FF00BF05B05DF804FB00BF00000020CE
:10F580005C6A030000B589B0049103930346ADF8AB
:10F5900016301346ADF81430BDF81620BDF81430FF
:10F5A000134401330793079BC82B01D904235BE065
:10F5B00000BF2F4B1B6893F82C30002BF9D12C4B3C
:10F5C0001B6893F82C30112B01D111234CE0284BF0
:10F5D0001B68112283F82C20254B1B681846FFF767
:10F5E0004BFF244B0693BDF816301A460499069833
:10F5F00007F024FFBDF81630069A13440693BDF8B1
:10F6000014301A460399069807F018FFBDF8143015
:10F61000069A1344069301220AA9069807F00EFFE2
:10F62000154B1B88184605F048FD144B00221A7034
:10F630000F4B1B681846079BDAB2079BDBB200939F
:10F640000F4B0C49FFF78BFE094B1B681846FFF761
:10F6500021FF094B1B88184605F02FFD044B1B6842
:10F66000002283F82C200023184609B05DF804FB23
:10F6700000000020B000002004000020AC000020AA
:10F680007801002000B589B0049103930346ADF8DA
:10F6900016301346ADF81430BDF81620BDF81430FE
:10F6A00013440793079BC82B01D9042351E000BFE3
:10F6B0002A4B1B6893F82C30002BF9D1274B1B6881
:10F6C00093F82C30112B01D1112342E0234B1B68FE
:10F6D000112283F82C20214B1B681846FFF7CCFE23
:10F6E0001F4B0693BDF816301A460499069807F08A
:10F6F000A5FEBDF81630069A13440693BDF81430E3
:10F700001A460399069807F099FE164B1B8818466F
:10F7100005F0D3FC144B00221A70104B1B681846DE
:10F72000079BDAB2079BDBB20093104B0C49FFF743
:10F7300016FE0A4B1B681846FFF7ACFE094B1B88E8
:10F74000184605F0BAFC054B1B68002283F82C20F4
:10F750000023184609B05DF804FB00BF000000203C
:10F76000B000002004000020AC0000207801002040
:10F7700000B589B0049103930346ADF816301346E3
:10F78000ADF81430BDF81620BDF8143013440793BB
:10F79000079BC82B01D9042363E000BF334B1B68D0
:10F7A00093F82C30002BF9D1304B1B6893F82C3098
:10F7B000112B01D1112354E02C4B1B68112283F82B
:10F7C0002C202A4B1B681846FFF756FE284B069341
:10F7D000BDF816301A460499069807F02FFEBDF8BA
:10F7E0001630069A13440693BDF814301A460021C9
:10F7F000069807F04CFEBDF81620BDF814301344EF
:10F8000007931C4B1B88184605F057FC1A4B002227
:10F810001A70164B1B681846079BDAB2079BDBB2BF
:10F820000093164B1249FFF79AFDBDF81630134AA4
:10F8300013440693BDF814301A460699039807F04E
:10F84000FDFD0A4B1B681846FFF724FE094B1B8879
:10F85000184605F032FC054B1B68002283F82C206B
:10F860000023184609B05DF804FB00BF000000202B
:10F87000B000002004000020AC000020780100202F
:10F8800000B585B00190019B002B0AD0074B43F0D7
:10F8900001030393019B9B010293039B02989847EA
:10F8A00000E000BF05B05DF804FB00BFB06A0300D4
:10F8B00082B00190019B1B681F2B02D84FF0A04320
:10F8C00006E0019B1B6803F01F02019B1A60024BBC
:10F8D000184602B0704700BF0003005000B585B065
:10F8E0000190084611461A4603468DF803300B4630
:10F8F0008DF8023013468DF8013001AB1846FFF742
:10F90000D7FF03909DF803209DF802305B001A4357
:10F910009DF801309B001A439DF818301B0242EA03
:10F9200003019DF81C301B04019A1943039B02F547
:10F93000E07243F8221000BF05B05DF804FB00B58B
:10F9400085B003900023019300230093002301223C
:10F9500001210398FFF7C2FF00BF05B05DF804FB6B
:10F9600000B585B003900B468DF80B309DF80B3039
:10F970000022019200220092002200210398FFF74A
:10F98000ADFF00BF05B05DF804FB00B585B0019088
:10F9900001AB1846FFF78CFF0390019B012202FA8E
:10F9A00003F31946039800F035F800BF05B05DF881
:10F9B00004FB00B585B0019001AB1846FFF778FF56
:10F9C0000390019B012202FA03F31946039800F009
:10F9D0002BF800BF05B05DF804FB00B585B00190C1
:10F9E00001AB1846FFF764FF0390039800F00AF894
:10F9F0000246019B22FA03F303F00103184605B007
:10FA00005DF804FB82B00190019BD3F810351846D5
:10FA100002B0704782B001900091019B009AC3F838
:10FA2000082500BF02B0704782B001900091019B91
:10FA3000009AC3F80C2500BF02B0704700B583B030
:10FA40000190019B002B0AD04FF47A70FFF718FF4A
:10FA5000019B013B0193019B002BF5D100E000BF0E
:10FA600003B05DF804FB00B583B001900198FFF787
:10FA7000E5FF00BF03B05DF804FB000000B583B0F4
:10FA800005F06EFA0190019B0093009B002B04D0BF
:10FA9000044A4121009801F031FC00BF03B05DF839
:10FAA00004FB00BF886A030000B583B001900B46D9
:10FAB0008DF8033000F054F800BF03B05DF804FB8C
:10FAC00000B585B0134A01AB1268114619800233A4
:10FAD000120C1A7001238DF8053001AB0E4A19463D
:10FAE000222005F0F5FA0390039B0293029B002B62
:10FAF00004D00A4A5721029801F000FC002122207C
:10FB000005F056FB3320FFF71AFF00BF05B05DF884
:10FB100004FB00BFA86A0300A9FA0100886A030079
:10FB200008B51920FFF70BFF1920FFF742FF02204D
:10FB3000FFF784FF00211920FFF712FF0220FFF7D3
:10FB40007DFF00BF08BD08B53320FFF71EFFC820AA
:10FB5000FFF796FE3320FFF72CFF00BF08BD000023
:10FB600008B506E0074B1B68002B02D0054B1B684D
:10FB7000984700F009F80346002BF3D100BF00BFFF
:10FB800008BD00BF4002002008B5044B1B88184682
:10FB9000FFF723FF0346184608BD00BF06000020FC
:10FBA00000B585B00190019B002B0AD0074B43F0B4
:10FBB00001030393019B9B010293039B02989847C7
:10FBC00000E000BF05B05DF804FB00BF006B030060
:10FBD00000B583B00190019B002B0AD04FF47A70DE
:10FBE000FFF7DEFF019B013B0193019B002BF5D149
:10FBF00000E000BF03B05DF804FB000000B583B077
:10FC000001900199002000F099F90449002000F0CA
:10FC100095F900BF03B05DF804FB00BFD86A03008C
:10FC200008B500F09DF90949002000F087F903208C
:10FC300003F01FFFFFF722FFFFF7C8FBFFF740FFAE
:10FC40000220FFF7C5FF01F01FFAFEE7DC6A0300A0
:10FC500000B583B01F4B0193019B02221A61019BE7
:10FC600002225A61019B1C4A9A61019B1B4ADA617C
:10FC7000019B4FF480621A62019B00229A62019BF1
:10FC800000225A62019B0022DA62019B124A9A64A6
:10FC9000019B134ADA64019B10221A65019B002222
:10FCA0009A65019B00225A65019B0022DA65019B3F
:10FCB00007330C49184607F01DFC019B0A491846FA
:10FCC00007F018FC019B20229A7100BF03B05DF879
:10FCD00004FB00BF44020020086B0300BC020020AC
:10FCE000BC060020146B0300186B030000B589B03C
:10FCF00003900291019200230693039BDB68059316
:10FD0000039B1B690493049A059B9A4205D9049AA4
:10FD1000059BD31A013B079307E0039B9A6804995C
:10FD2000059BCB1A1344013B0793039B9A68059BE1
:10FD3000D31A079A934228BF13460793079A019B49
:10FD4000934228BF13460793039B5A68059B1344AD
:10FD5000079A0299184607F071FB069A079B13440D
:10FD60000693029A079B13440293019A079BD31AA6
:10FD70000193059A079B13440593039B9B68059A7F
:10FD80009A4201D100230593039B059ADA60019BF7
:10FD9000002BB5D1069B184609B05DF804FB00B5F1
:10FDA00089B0039002910192039BDB680793039B48
:10FDB0009A68079BD31A0693069A019B9A420ED91A
:10FDC000039B5A68079B1344019A0299184607F04F
:10FDD00035FB079A019B1A44039BDA601AE0069BE5
:10FDE0000593039B5A68079B1344059A029918468A
:10FDF00007F024FB019A069BD31A0593039B5868CE
:10FE0000029A069B1344059A194607F017FB039BB9
:10FE1000059ADA6000BF09B05DF804FB86B0019076
:10FE2000019B1B690493019BDB680393049A039B6A
:10FE30009A4208D8019B9A68039BD21A049B1344E8
:10FE4000013B059304E0049A039BD31A013B0593FD
:10FE5000059B184606B0704700B589B00390029123
:10FE60000192029B0693039B5A1C13465B001344AA
:10FE7000DB00204A13440593059B5B69022B29D0C4
:10FE8000022B2ED8002B02D0012B13D029E005988D
:10FE9000FFF7C4FF0490049A019B9A4202D2002308
:10FEA000079321E0019B0793019A06990598FFF7B4
:10FEB00076FF19E00598FFF7B1FF0490019A049BC3
:10FEC000934228BF13460793079A06990598FFF7B0
:10FED00066FF09E0019A06990598FFF707FF07906A
:10FEE00002E00023079300BF079B184609B05DF8A6
:10FEF00004FB00BF4402002000B587B003900291CC
:10FF000001920D4B1B78002B01D1FFF7A1FEEFF3FF
:10FF100011834FF0200181F311880593019A029912
:10FF20000398FFF799FF0490059B83F31188049BC6
:10FF3000184607B05DF804FB4402002000B585B008
:10FF400001900091009807F01EFB0390039A00991E
:10FF50000198FFF7D1FF0346184605B05DF804FB92
:10FF600008B5FFF775FE00BF08BD000000B587B0FB
:10FF70000346ADF8063000230593BDF80630B3F50F
:10FF80007A7F01D3002359E0BDF80630452B01D814
:10FF9000712353E0BDF80630C82B0BD92123ADF8EF
:10FFA0001030C823ADF80E301923ADF80C30254BB6
:10FFB00005930AE00E23ADF810304623ADF80E305D
:10FFC0000A23ADF80C30204B0593BDF80620BDF890
:10FFD0000E30D21ABDF80C3092FBF3F39BB2BDF891
:10FFE0001020D31AADF81230BDF81020BDF8123031
:10FFF000D31A9BB2BDF80C2012FB03F39AB2BDF8E2
:020000022000DC
:100000000E301344ADF80A30BDF80620BDF80A30B2
:10001000D31A184606F0C4FF0246BDF80C305B0840
:100020009BB29A4204DDBDF81230013BADF81230AC
:10003000BDF81230013B059A13441B78184607B0EF
:100040005DF804FB206B0300446B030000B587B030
:1000500003900291019200930023059300230493DF
:10006000019B002B14D00AE0009B002B07D009F065
:1000700047FB0490049A009B1340002B15D109F014
:100080002DFB0590059A019B1340002BECD00DE051
:10009000009B002B0AD000BF09F032FB0490049AA9
:1000A000009B1340002BF7D000E000BF039B002B08
:1000B00002D0039B059A1A60029B002B02D0029B80
:1000C000049A1A6000BF07B05DF804FB00B585B064
:1000D0000190019B002B0AD0074B43F001030393CF
:1000E000019B9B010293039B0298984700E000BF8D
:1000F00005B05DF804FB00BF9072030082B0019070
:10010000019B1B681F2B02D84FF0A04306E0019B08
:100110001B6803F01F02019B1A60024B184602B0D5
:10012000704700BF0003005000B585B0019008463D
:1001300011461A4603468DF803300B468DF80230FF
:1001400013468DF8013001AB1846FFF7D7FF039037
:100150009DF803209DF802305B001A439DF80130A2
:100160009B001A439DF818301B0242EA03019DF8D8
:100170001C301B04019A1943039B02F5E07243F8FB
:10018000221000BF05B05DF804FB00B585B00390F8
:100190000B468DF80B309DF80B30002201920022A7
:1001A0000092002200210398FFF7BEFF00BF05B0B8
:1001B0005DF804FB00B585B0039000230193002394
:1001C00000930023012200210398FFF7ADFF00BF39
:1001D00005B05DF804FB00B585B0019001AB184691
:1001E000FFF78CFF0390019A039B02F5E07253F82E
:1001F0002230DBB203F00103DBB2184605B05DF834
:1002000004FB00B583B00190019B002B0AD04FF492
:100210007A70FFF75BFF019B013B0193019B002B71
:10022000F5D100E000BF03B05DF804FB82B000230D
:10023000ADF804302A4B5B78012B04D14FF4806376
:10024000ADF8063003E04FF40053ADF80630244B10
:100250005B881A46BDF8063002FB03F3002B01DA77
:1002600003F2FF339B12ADF80430BDF80630002BCB
:1002700000DA7F33DB119AB2BDF804301344ADF8D5
:100280000430BDF80630002B00DA7F33DB119AB260
:10029000BDF804301344ADF80430114B9B8A1A4664
:1002A000BDF8063002FB03F3002B00DA7F33DB11CD
:1002B0009AB2BDF804301344ADF80430BDF80630EE
:1002C000002B00DA3F339B119AB2BDF8043013447F
:1002D000ADF80430BDF80430184602B0704700BFD6
:1002E0002000002000B585B00190019B1B78022BF7
:1002F0004FD0022B69DC002B02D0012B57D064E0D9
:100300000DF10B03184602F0D3F90390039B002B69
:100310005DD1022003F046FB0A20FFF772FF0220A6
:1003200003F052FB9DF80B300D2B03D09DF80B30E2
:100330000A2B19D1284B1B88002B29D0264B1B8850
:100340001A46264B00219954012003F02BFB642010
:10035000FFF757FF012003F037FB204800F024FC93
:100360001D4B00221A8013E01B4B1B88FE2B0BD861
:10037000194B1B885A1C91B2174A11801A469DF8D6
:100380000B10164B995422E0134B00221A801EE0EA
:100390001DE0134B4FF0FF32C3F880240E4B0022B8
:1003A0001A80104B9B6801330E4A936010E00C4B8F
:1003B0004FF0FF32C3F88024074B00221A80094B0C
:1003C0009B680133074A936002E000BF00E000BF72
:1003D00000BF05B05DF804FB0408002008080020F9
:1003E00000200040CC06002030B5CDB040AB4A9391
:1003F00020A84FF0FF3302934FF0FF3301931B23EC
:1004000000930F23AD4A802106F0CAFE20AB1846A8
:10041000FFF7F4FBAA48FFF7F1FB1B20FFF7DBFE19
:10042000034649930F20FFF7D6FE034648934FF04B
:10043000A043D3F86C3747934FF0A043D3F83C3731
:10044000469320A8469B0493479B0393489B0293A3
:100450000F230193499B00931B239A4A802106F0A6
:100460009FFE20AB1846FFF7C9FB974B0022C3F84D
:1004700000250A20FFF7C5FE0F20FFF79BFE1B207B
:10048000FFF798FE1420FFF7BCFE03210F20FFF7B3
:100490007CFE0520FFF7B5FE1B20FFF79CFE034600
:1004A00049930F20FFF797FE034648934FF0A04370
:1004B000D3F86C3747934FF0A043D3F83C374693BB
:1004C00020A8469B0493479B0393489B02930F23CA
:1004D0000193499B00931B237C4A802106F060FE18
:1004E00020AB1846FFF78AFB794B1AAC1D460FCD9F
:1004F0000FC495E8030084E803001C9A1D9B9DF837
:10050000781020A8019100931346724A802106F0CA
:1005100047FE20AB1846FFF771FB1A9A1B9B20A8D9
:10052000009313466C4A802106F03AFE20AB184631
:10053000FFF764FB694B16934FF480731793684B76
:1005400018934FF48073199316A91AA80623654AC5
:1005500002F01EF803464A93409B20A8624A80217D
:1005600006F01EFE20AB1846FFF748FB409B002B11
:100570000FD1554B4FF0FF32C3F88024524B042269
:10058000C3F80423504B0422C3F800250A20FFF7C8
:1005900038FE6420FFF735FE409B20A8534A802197
:1005A00006F0FEFD20AB1846FFF728FB409B002B12
:1005B00048D1454BD3F814354593434BD3F80C350C
:1005C0004493414BD3F8083543933F4BD3F8103550
:1005D00042933D4BD3F80035419320A8419B0393B0
:1005E000429B0293439B0193449B0093459B404A4B
:1005F000802106F0D5FD20AB1846FFF7FFFA459B9A
:100600000F2B02D1449B1B2B0FD020A8449B02939D
:10061000459B01931B2300930F23364A802106F04C
:10062000BFFD20AB1846FFF7E9FA419B042B09D028
:1006300020A8419B304A802106F0B2FD20AB18462D
:10064000FFF7DCFA409B002B2FD0409B06A82B4ADB
:10065000402106F0A5FD06AB1846FFF7CFFA409AF9
:10066000409B20A800931346254A802106F098FD60
:1006700020AB1846FFF7C2FA00234B930EE0002090
:1006800003F090F93220FFF7BCFD002003F09CF945
:100690003220FFF7B6FD4B9B01334B934B9B132B43
:1006A000EDDD002003F07EF905E01648FFF7A6FA1D
:1006B0001548FFF7A3FA00BF4DB030BD5C6B0300D7
:1006C000906B0300D86B030000200040386C0300DF
:1006D000846E0300986C0300D06C030008090020AE
:1006E000080A0020E5020200F06C0300146D03000C
:1006F000446D0300806D0300CC6D0300106E030099
:100700002C6E0300586E0300686E030000B59BB0AA
:100710000390039806F037FF15900023189304A860
:10072000159B0093039B6B4A402106F039FD04ABF7
:100730001846FFF763FA022003F034F900231793F9
:1007400067E04FF47A731993179B002B1AD1039A21
:10075000179B13441B781946039A179B13441B7865
:1007600004A800930B465C4A402106F019FD04AB37
:100770001846FFF743FA05E0199B013B1993012046
:10078000FFF771F9039A179B13441B78184601F081
:10079000C1FF1490149B002B02D0199B002BEBD1AE
:1007A000149B002B13D0199B002B10D1039A179B7D
:1007B00013441B781A4604A8149B00931346474A17
:1007C000402106F0EDFC04AB1846FFF717FA199B21
:1007D000002B18D1022003F0F7F8002003F0E2F814
:1007E0003220FFF70EFD002003F0EEF804A8159B61
:1007F0000093179B3A4A402106F0D2FC04AB1846FE
:10080000FFF7FCF963E0189B01331893179B013342
:100810001793179A159B9A4293D34FF47A731993AF
:1008200005E0199B013B19930120FFF71CF90D20EE
:1008300001F070FF0346002B02D0199B002BF0D172
:10084000199B002B02D0189B013318934FF47A7335
:10085000199305E0199B013B19930120FFF703F958
:100860000A2001F057FF0346002B02D0199B002BF2
:10087000F0D1199B002B02D0189B0133189305204F
:10088000FFF7BFFC022003F09FF804A8189B154A4D
:10089000402106F085FC04AB1846FFF7AFF9189B22
:1008A000002B14D1002316930EE0002003F07AF8F9
:1008B0006420FFF7A6FC002003F086F86420FFF711
:1008C000A0FC169B01331693169B022BEDDD1BB08B
:1008D0005DF804FB9C6E0300C06E0300EC6E030029
:1008E000246F0300446F030010B588B0FFF79EFC2F
:1008F0000346ADF81E30BDF81E301846FFF736FB34
:100900000346ADF81C301E4B9B89BDF81C2093425A
:1009100028BF1346ADF81A30194B9968184B1A784E
:1009200004ACBDF81A000DF10E030093234608F045
:10093000F9FE0590059BB3F1FF3F0BD1114B124A15
:10094000106818609188927999809A710F48FFF722
:1009500055F90EE0049B0B4AC2F801300A4BB3F87C
:1009600005309AB2074BA3F80520074B1A78054BC0
:100970001A70044808F000FE00BF08B010BD00BFA8
:1009800020000020BC07002018000020686F030032
:1009900000B585B001907649019806F06DFC039092
:1009A00001238DF80B30CAE003227249039806F048
:1009B0001AFC0346002B0DD1039B0333184606F0A7
:1009C000E4FC0346DAB26C4B1A706B4B1A786B4B33
:1009D0001A70AFE005226A49039806F004FC03464A
:1009E000002B20D1039B05336649184606F0A4FD71
:1009F0000346002B06D1604B01225A705F4B012247
:100A00009A7197E0039B05335F49184606F094FD01
:100A10000346002B40F08E80574B00225A70574BF4
:100A200000229A7186E003225849039806F0DBFB06
:100A30000346002B36D1039B0333184606F0A5FC72
:100A40000346ADF808304C4ABDF808305380BDF875
:100A50000830402B03D1494B01225A706AE0BDF89F
:100A60000830802B03D1454B05225A7062E0BDF857
:100A70000830B3F5807F03D1404B09225A7059E00A
:100A8000BDF80830B3F5007F03D13C4B0D225A70FE
:100A900050E0BDF80830B3F5806F4BD1374B0222E0
:100AA0005A7047E004223A49039806F09CFB03463B
:100AB000002B09D1039B0433184606F066FC03465D
:100AC0009AB22D4B9A8235E008223249039806F0FB
:100AD0008AFB0346002B0AD1039B08331022002116
:100AE000184606F062FC0346234A936022E0062281
:100AF0002949039806F077FB0346002B09D1039B95
:100B00000633184606F041FC03469AB21A4B9A8106
:100B100010E008222149039806F065FB0346002BEC
:100B200008D1039B0833184606F02FFC03461A46EB
:100B3000114B1A610E49002006F09EFB0390039BA7
:100B4000002B7FF431AF9DF80B30002B08D000F064
:100B5000D1F9094B01229A751148FFF7D7FD02E040
:100B60001048FFF7D3FD00BF05B05DF804FB00BFE0
:100B7000786F03007C6F0300200000203800002005
:100B8000806F0300886F03008C6F0300946F030075
:100B9000986F0300A06F0300AC6F0300B46F0300F5
:100BA000C06F0300CC6F0300F0B5DDB05CABA3F504
:100BB000AA7318605CABA3F5AA7348A83F22196812
:100BC00006F02FFB00238DF85F3100235B9319E0C3
:100BD00048AA5B9B13441B78602B10D948AA5B9BE7
:100BE00013441B787A2B0AD848AA5B9B13441B78C2
:100BF000203BD9B248AA5B9B13440A461A705B9B00
:100C000001335B9348AA5B9B13441B78002BDFD115
:100C100048AB9949184606F08FFC0346002B07D0D5
:100C200048AB9649184606F087FC0346002B09D1CD
:100C30009348FEF7E3FF9348FFF768FD9248FEF7FD
:100C4000DDFF17E148AB09229049184606F0CBFAC0
:100C50000346002B03D18E48FFF758FD0AE148AB4D
:100C600004228C49184606F0BEFA0346002B08D031
:100C700048AB0B228849184606F0B5FA0346002B0C
:100C800014D15CABA3F5AA732021186806F09CFA76
:100C90005A905A9B002B03D05A9B01335A9301E080
:100CA0007E4B5A935A98FFF773FEE3E048AB7C49BA
:100CB000184606F041FC0346002B07D048AB7949A3
:100CC000184606F039FC0346002B5ED1764B9B7D1F
:100CD000002B03D17548FFF719FDCBE0744B1B784F
:100CE000002B03D17348FFF711FDC3E0724B0122C3
:100CF0001A70724B00221A60714B00221A60704BFE
:100D000000225A606E4B00229A606D4B0022DA601E
:100D10006B4B00221A61644B1B694FF47A72B2FB71
:100D2000F3F35993599B002B01D101235993654B40
:100D30000693599B00221C4615464FF000024FF0C7
:100D40000003EB0343EA5443E20312F57A7643F1DE
:100D500000074FF4FA624FF000033046394606F0C0
:100D600009F802460B46134600221946069802F07F
:100D70003DFB5890589B002B03D15348FFF7C6FC0E
:100D800078E05248FFF7C2FC74E048AB504918467F
:100D900006F0D2FB0346002B07D048AB4D4918465E
:100DA00006F0CAFB0346002B0CD1434B00221A70FD
:100DB000444B184602F050FB08F02AFC4648FFF767
:100DC000A5FC57E048AB4549184606F0B5FB03467D
:100DD000002B07D048AB4249184606F0ADFB03464E
:100DE000002B1ED1364B1D68354B5B68344A926828
:100DF0003349C96832480069314C248B264608AC17
:100E0000049603900291019200932B46354A4FF4C9
:100E10008071204606F0C4F908AB1846FFF776FC4F
:100E200028E048AB3049184606F086FB0346002B05
:100E300007D048AB2D49184606F07EFB0346002B31
:100E400015D11F4B00221A601D4B00225A601C4B0B
:100E500000229A601A4B0022DA60194B00221A61B4
:100E6000164B00221A600748FFF750FC02E02048AA
:100E7000FFF74CFC5DB0F0BDD86F0300DC6F0300E2
:100E8000E46F03000C70030010700300287003006F
:100E90003470030048700300507003005C7003005E
:100EA000607003006870030020000020747003006D
:100EB000B807002088700300E8060020EC06002038
:100EC000CC060020C40700209C700300A87003001B
:100ED000BC700300C4700300D0700300D87003001E
:100EE000E0700300EC7003004071030044710300E4
:100EF0005071030008B5094808F032FB0346002B87
:100F000003D00748FEF77AFE07E0FFF7EDFCFFF796
:100F10008DF903461A46034B1A8308BD380000209A
:100F200060710300CC06002000B583B00190054B32
:100F30001B78DBB2002B01D000F01CF800BF03B01F
:100F40005DF804FBE806002000B583B00190064878
:100F5000FEF754FE0548FFF7D9FB0548FEF74EFEA5
:100F600000BF03B05DF804FB7071030090710300D3
:100F70009871030000B585B03E4B5B6801333D4A74
:100F800053603D4B1B685A1C3B490A603B4A136047
:100F900008F02CFB0346394A53600023039308E012
:100FA000364A039B13440833AA221A70039B013369
:100FB0000393334B9B8A1A46039B934202DA039BAB
:100FC0003F2BEDD92E4B9B8A0A33ADF80A302C4BC0
:100FD0009B8A0833ADF80830BDF808301A46274917
:100FE000284806F02BFABDF808300022254918469B
:100FF00008F0CEFABDF80A3000220021184608F0A9
:10100000D5FA08F005FB002008F0DEFA01A800235D
:1010100080220021FFF71AF8019B03F08003002BC8
:1010200010D0802008F048FB124B1B680133114A96
:10103000136008F0DBFA03460E4A53610D4B0022A1
:101040001A6112E00B4B9B6801330A4A9360094B0B
:1010500001221A61074B9B680133064A9360054BD6
:1010600001221A61B02008F027FB00BF05B05DF82F
:1010700004FB00BFCC060020EC0600207007002017
:1010800020000020F006002000B587B08A48FEF757
:10109000B5FD002002F098FC012002F095FC022032
:1010A00002F092FC032002F08FFC002002F07AFC98
:1010B0006420FFF7A6F8002002F086FC6420FFF70A
:1010C000A0F8002002F06EFC6420FFF79AF80020E0
:1010D00002F07AFC03210F20FFF757F8FFF784F99D
:1010E000012002F05FFC022002F05CFCC820FFF748
:1010F00088F8012002F068FC022002F065FC642000
:10110000FFF77FF8012002F04DFC022002F04AFCBC
:10111000C820FFF776F8012002F056FC022002F00A
:1011200053FC4FF49670FEF79EFC6448FEF766FD94
:101130006420FEF798FC02F0F5F80190019B002B6B
:101140001BD05F48FEF75AFD002305930EE00020F8
:1011500002F028FC3220FFF754F8002002F034FCA3
:101160003220FFF74EF8059B01330593059B132BA7
:10117000EDDD002002F016FC22E0524A0121524827
:1011800002F004F90190019B002B02D14F4B012288
:101190001A704F4A01214F4802F0F8F80190019B64
:1011A000002B0DD14C4B00224FF4A031184602F019
:1011B0001DF90190019B002B02D14848FEF71EFD4E
:1011C000FEF79EF9FEF7ACFC0220FEF74CFC44480B
:1011D00008F05CF908F0A6F900900023049305E0FC
:1011E000049B013304930120FEF73DFC08F02AFA2A
:1011F0000346002B03D1049BB3F57A7FF0D3049B05
:10120000B3F57A7F1DD33748FFF780FA3648FEF7EB
:10121000F5FC002303930EE0002002F0C3FB322014
:10122000FEF7EFFF002002F0CFFB3220FEF7E9FFD0
:10123000039B01330393039B132BEDDD002002F08E
:10124000B1FB002008F080F90346B3F1FF3F1ED147
:101250002648FFF75BFA2648FEF7D0FC00230293EE
:101260000EE0002002F09EFB3220FEF7CAFF0020B5
:1012700002F0AAFB3220FEF7C4FF029B0133029367
:10128000029B132BEDDD002002F08CFB02E01948DD
:10129000FEF7B4FC032008F0FDF9FFF72BFE08F081
:1012A000B7F96420FEF7DFFB1348FEF7A7FC6420C4
:1012B000FEF7D9FBFBE700BFC8710300E071030034
:1012C000F0710300290F0200546B0300B8070020DF
:1012D000490F0200586B0300E4070020047203006A
:1012E000CC6A0300287203003C7203004C720300B6
:1012F00064720300707203008072030000B583B053
:1013000002900091019244F2010071466A4600F099
:1013100003F803B000BD00BF30B58BB00790069155
:10132000059272B600BF00F0DBFC00BF00F008FBC6
:101330000346002BFAD1079B44F20102934216D0D8
:10134000079B44F2020293423ED1059B09932C4A2B
:101350002C4BD31ADB081B0443F00100099B5B688C
:101360001A46099B1B68284900F0ADFA39E0059B35
:101370000893234A234BD31ADB081B0443F00104D0
:10138000089B9D68089B9B68184600F0C7FC0346B5
:101390001846089B5B681946089B1B68069A0292D0
:1013A0000193009103462A461849204600F09FFA0F
:1013B000134A144BD31ADB081B0443F001031449EE
:1013C000184600F061FA0CE00D4A0E4BD31ADB0808
:1013D0001B0443F00103069A0E49184600F062FA16
:1013E00000BF0D4B1B6803F00103002B00D000BEB3
:1013F000059A0699079800F0D9FC00BF0BB030BDE4
:10140000406A0300106A030098720300B47203007C
:10141000DC720300F0720300F0ED00E000B583B071
:1014200001900091019B1B681B68009901989847E7
:1014300000BF03B05DF804FB00B583B00190019BD1
:101440001B685B680198984700BF03B05DF804FB18
:1014500000B583B00190019B1B689B680198984779
:1014600000BF03B05DF804FB82B00190019BDB6814
:1014700001225A7100BF02B0704782B00190019BF7
:10148000DB685B79184602B0704784B00190009128
:1014900000238DF80F30019B1B7803F00403DBB2AF
:1014A000002B24D0019B1B78C3F30103DBB2012B7B
:1014B00002D0022B0CD017E0009B1B68019A128807
:1014C000C2F38312D2B213449A1C009B1A600BE041
:1014D000009B1B68019A5288C2F3891292B213448E
:1014E0009A1C009B1A6000BF01238DF80F309DF8F5
:1014F0000F30184604B0704700B58BB00023ADF82C
:1015000026303B4800F015FD3A4800F012FD3A4BFA
:101510009B680493394B1B680693049A069B1340FF
:1015200002339B00344A13440433089304AB194636
:101530000898FFF7AAFF0346002B09D0049A069BE0
:10154000134002339B002C4A134404330893EDE705
:1015500000BF0023079311E0049B5A1C0492069AD3
:101560001340079A920001A90A44234902339B00C1
:101570000B445B681360079B01330793079B012BA8
:10158000EAD99DF80430C3F30103DBB2012B10D07C
:10159000022B1CD1BDF80A30ADF82630BDF806305C
:1015A000C3F389139BB203339A08049B1344049337
:1015B0000EE0BDF80A30ADF82630BDF80430C3F3B4
:1015C0008313DBB21A46049B1344049300E000BF6C
:1015D000084800F0BAFC0590059B002B02D0049B44
:1015E000054A9360BDF8263018460BB05DF804FB41
:1015F000F00F0020EC0F0020D80B00204800002046
:1016000000B585B00021074800F01CFC0390039B47
:101610000293029B83F310030193019B184605B0CC
:101620005DF804FBF40F002000B589B0039002912F
:1016300001920093039B1B0C0693FFF7E1FF0790B9
:10164000079B1904009B5A1C0A9B1340069A0A43E5
:101650001B4902339B000B445A60009A0A9B1340BB
:1016600002339B00164A134404330593039B03F093
:101670000703D9B2059A137861F3C5031370019B70
:1016800003F00F03D9B2059A138861F3891313800D
:10169000029BC3F31501059A136861F39F2313603E
:1016A000059A1378012161F301031370059A1378E9
:1016B0006FF38203137000BF09B05DF804FB00BF35
:1016C000D80B002000BF704700B58BB0039002918B
:1016D00013468DF80730039B0233089301238DF8DE
:1016E0001F30002000F05AFC3E4B5A68029B1A60E3
:1016F0003D4B1A683B4B99683A4B5B68CB1A1344D5
:101700000133099314E00121384800F0E2FBFFF7B0
:10171000F3FE05900599354800F0DBFB324B1A6863
:10172000304B99682F4B5B68CB1A134401330993F4
:10173000089A099B9A42E6D89DF81F30002B48D0A2
:10174000002304939DF80730002B17D09DF810302C
:10175000012262F301038DF810309DF8103043F040
:1017600004038DF81030039B03F00F03DAB2BDF8C9
:10177000103062F38913ADF8103016E09DF8103088
:10178000022262F301038DF810309DF8103043F00F
:1017900004038DF81030039BC3F309039AB2BDF81C
:1017A000123062F38F13ADF812300E4B5A680E4BA5
:1017B0001B68134002339B000A4A13440433069308
:1017C000049A069B1A60074B5A68089B1344054A03
:1017D0005360002000F0EBFB9DF81F3018460BB063
:1017E0005DF804FBD80B002048000020F40F002017
:1017F00000B58BB00590049103920293204B1B68B7
:10180000079306AB012219460298FFF75DFF0346D6
:10181000002B24D0069B023309930023089311E088
:10182000089B9B00039A1A44099B591C099107992C
:101830000B401268134902339B000B445A60089B0B
:1018400001330893089A029B9A42E9D3069A079BB0
:1018500000931346029A04990598FFF7E5FE094B99
:101860001B78002B05D000BF00F06AF80346002B60
:10187000FAD1FFF727FF00BF0BB05DF804FB00BFF4
:1018800048000020D80B002000B583B001900091E3
:101890000023002200990198FFF7AAFF00BF03B0C0
:1018A0005DF804FB00B587B0039002910192019BA3
:1018B000059305AA012302990398FFF799FF00BF3A
:1018C00007B05DF804FB00B587B003900291019268
:1018D0000093019B0493009B059304AA02230299A1
:1018E0000398FFF785FF00BF07B05DF804FB00B564
:1018F0008BB00390029101920093019B0593009B92
:1019000006930C9B07930D9B08930E9B099305AAC6
:10191000052302990398FFF76BFF00BF0BB05DF83A
:1019200004FB0000054B9A68044B5B689A420CBFAD
:1019300001230023DBB21846704700BFD80B0020FC
:1019400000B599B0FFF7EEFF0346002B01D000234E
:10195000B9E19B4B0022C3F81824BFF34F8F00BF9F
:10196000974B9B680493974B1B681093049A109BAA
:10197000134002339B00924A134404331193002313
:1019800017930023169300230F9304AB1946119865
:10199000FFF77BFD0346002B19D0894BD3F8183491
:1019A000002B14D1864B5A68049B9A4205D8844B6D
:1019B0005B68834A9360002385E1049A109B13407F
:1019C00002339B007E4A134404331193DDE7002366
:1019D000159311E0049B5A1C0492109A1340159A17
:1019E000920001A90A44764902339B000B445B68CC
:1019F0001360159B01331593159B012BEAD99DF8B4
:101A0000043003F00303DBB2022B40F09C80BDF8EE
:101A10000630C3F389139BB20D93BDF80630C3F3B0
:101A200089139BB2502B28BF50239BB20C930C9B65
:101A3000C3F309039AB2BDF8063062F38F13ADF811
:101A400006300C9B08330B939DF80430C3F3C2039C
:101A5000DBB20F930B995C4800F0B4FA1790179B18
:101A6000002B00F0D380179800F03DFB01A9169BD6
:101A70000822179800F0E1FB169B08331693049B8D
:101A8000DA43109B134001339B000A930C9A0A9B84
:101A90009A4242D90A9B002B08D0049A109B13400B
:101AA00002339B00464A1344043300E0474B08933B
:101AB0000A9B002B02D00A9BDBB201E00C9BDBB23D
:101AC0008DF81F300A9B002B01D0404B00E0002313
:101AD00006930A9B002B06D00C9BDAB20A9BDBB262
:101AE000D31ADBB200E000238DF817309DF81F20D9
:101AF000169B0899179800F0A0FB9DF81F30169AC6
:101B000013441693069B002B16D09DF81720169BA6
:101B10000699179800F091FB0EE0049A109B134071
:101B200002339B00264A134404330993169B0C9AF4
:101B30000999179800F081FB0D9B03339A08049BC9
:101B40001344049362E09DF8043003F00303DBB216
:101B5000012B5BD1BDF80430C3F38313DBB2062B3A
:101B600028BF0623DAB2BDF8043062F38913ADF85A
:101B70000430BDF80430C3F38313DBB202330E9399
:101B80009DF80430C3F3C203DBB20F930E9B9B009E
:101B900019460D4800F016FA1790179B002B35D008
:101BA000179800F0A0FA01A9169B0822179800F0D8
:101BB00044FB169B08331693002315931DE000BFCA
:101BC000D80B00204800002020130020E40B002048
:101BD000049B5A1C0492109A134002339B003C4A07
:101BE0001344191D169B0422179800F026FB169B20
:101BF00004331693159B01331593BDF80430C3F3DA
:101C00008313DBB21A46159B9342E1D3179B002B3B
:101C100039D02F4BD3F8103414932D4BD3F81834FC
:101C2000002B1BD0179800F06DFA46E000238DF8CA
:101C30004F301498FFF721FC0346002B02D00123FC
:101C40008DF84F309DF84F30002B03D01799149822
:101C5000FFF7E4FB149BDB681B681493149B002BB9
:101C6000E4D1179800F04EFA002000F097F9184BD5
:101C7000D3F81834002B02D1049B154A936000203E
:101C800000F095F919E0124BD3F81034129306E0E6
:101C90001298FFF7DDFB129BDB681B681293129B07
:101CA000002BF5D10B4A0C4BD31ADB081B0443F075
:101CB00002030A491846FFF7E7FDFFF733FE034624
:101CC00083F00103DBB2184619B05DF804FB00BFD6
:101CD000D80B0020406A0300106A03000C73030055
:101CE00000B583B00C4BD3F8103401930A4B01229A
:101CF0001A7009E00198FFF7B7FB0198FFF79CFB0A
:101D0000019BDB681B680193019B002BF2D100BF94
:101D100000BF03B05DF804FBD80B002000B585B010
:101D20000190019800F00EF80390039B002B01D066
:101D3000039B00E0024B184605B05DF804FB00BFB2
:101D40002073030086B00190164B0593164B049345
:101D50001FE0049A059BD31ADB10DA0F13445B10C3
:101D6000DB00059A13440393039B1B680293029ABA
:101D7000019B9A4202D9039B04930AE0029A019BB9
:101D80009A4203D2039B0833059302E0039B5B68EE
:101D900004E0059A049B9A42DBD30023184606B060
:101DA000704700BFF47603000C78030086B0039000
:101DB0000291019201238DF817309DF81730204AC7
:101DC000039B13601E4A029B53601D4A019B936054
:101DD000039B44F20102934212D0039B44F202029D
:101DE000934220D1019B164AD360154BDB681B68D8
:101DF000134A9361124BDB685B68114AD36112E0AE
:101E0000019B0F4A13610E4B1B699B680C4A53617F
:101E10000B4B1B691B680A4A9361094B1B695B6882
:101E2000074AD36100BF72B600BF00BF9DF81730EC
:101E3000DBB2002BFAD162B600BF00BF06B070471C
:101E4000F80F002010B487B001900091019B009A18
:101E500053E8004F104643E8000191F0000FF7D11E
:101E6000059404900391059B184607B05DF8044B58
:101E7000704710B487B001900091019B009A53E81D
:101E8000004F44EA020043E8000191F0000FF6D150
:101E9000059404900391049B184607B05DF8044B29
:101EA000704710B487B001900091019B009A53E8ED
:101EB000004F04EA020043E8000191F0000FF6D160
:101EC000059404900391059B184607B05DF8044BF8
:101ED000704710B487B001900091019B009A53E8BD
:101EE000004F04EB020043E8000191F0000FF6D12F
:101EF000059404900391049B184607B05DF8044BC9
:101F0000704710B487B001900091019B009A53E88C
:101F1000004FA4EB020043E8000191F0000FF6D15E
:101F2000059404900391049B184607B05DF8044B98
:101F3000704700B583B0019001210198FFF799FF28
:101F40000346184603B05DF804FB00B583B001906A
:101F500000210198FFF7A5FF0346184603B05DF87E
:101F600004FB000072B600BF034B1B680133024A3A
:101F7000136000BF704700BF18100020064B1B689D
:101F8000013B054A1360044B1B68002B01D162B66C
:101F900000BF00BF704700BF1810002000B583B01D
:101FA0000190FFF7DFFF00BF03B05DF804FB00B551
:101FB00083B003468DF80730FFF7E0FF00BF03B0A2
:101FC0005DF804FB00B58BB001900091019B1B8A6A
:101FD000043B0793009A079B1344DA1C079BB2FB50
:101FE000F3F38DF81B30019800F05BF90590059B29
:101FF000002B01D1002338E0059B00221A71059BBC
:1020000001225A71079B9AB2059BDA80059B0993BE
:102010009DF81B30013B0493099B019A1A60002331
:1020200008931DE0019800F03CF90390039B002BFE
:102030000ED0059B5B790133DAB2059B5A71099B7F
:10204000039A1A60039B019A1A60039B099304E0A8
:10205000059800F00EF8002307E0089B0133089371
:10206000089A049B9A42DDD3059B18460BB05DF895
:1020700004FB00B58BB00190019B0793079B5B7934
:102080008DF81B30019B08939DF81B30013B059395
:102090000023099305E0089B1B680893099B013303
:1020A0000993099A059B9A42F5D3089B1B680493F0
:1020B000019B0893002309930BE0089B1B68039383
:1020C0000899049800F024F9039B0893099B0133B5
:1020D00009939DF81B30099A9A42EED300BF00BFC6
:1020E0000BB05DF804FB00B585B00190019B039334
:1020F000039B043301211846FFF7EBFE00BF05B038
:102100005DF804FB00B587B00190019B0593059B2A
:10211000043301211846FFF7F4FE0346039303AB93
:102120000493049B1B78002B02D10198FFF7A1FFB9
:1021300000BF07B05DF804FB00B591B003900291B9
:1021400001920093039B0993039B0F93099BDB88E8
:102150001A46099B5B7902FB03F3043B0893099B36
:10216000DB880793009B1A1D079BB2FBF3F30E93CA
:10217000009B0433079AB3FBF2F2079901FB02F2CA
:102180009B1A0D93019B1A68009B1344089A9A426C
:1021900003D2089A009BD31A01E0019B1B680C93A1
:1021A000019B0C9A1A6005E00F9B1B680F930E9B16
:1021B000013B0E930E9B002BF6D100230B93079A45
:1021C0000D9BD31A0A930A9A0C9B934228BF13467D
:1021D0000A932AE0029A0B9B134406930F9A0D9BD5
:1021E0001344043305939DF84830002B05D00A9A18
:1021F0000599069805F022F904E00A9A06990598CF
:1022000005F01CF900230D930F9B1B680F930C9A8C
:102210000A9BD31A0C930B9A0A9B13440B93079AAD
:102220000C9B934228BF13460A930C9B002BD1D1E1
:1022300000BF00BF11B05DF804FB00B589B0059088
:10224000049103920293039B079307AA0023009330
:10225000029B04990598FFF76FFF00BF09B05DF876
:1022600004FB82B001900B468DF80330019BDA68C5
:102270009DF803300199098A01FB03F313441846C2
:1022800002B0704782B001900091009B019AD26821
:102290009B1A019A128AB3FBF2F3DBB2184602B022
:1022A000704700B585B00190002303930020FFF72D
:1022B00075FE019B1B681A68019B5B689A421FD9D7
:1022C000019B1B681A68013A1A601B681B78194643
:1022D0000198FFF7C6FF0390019B9A68019B1B685A
:1022E0001B68D31A8DF80B30019B1B681B799DF876
:1022F0000B209A4204D9019B1B689DF80B201A7190
:102300000020FFF754FE039B184605B05DF804FB60
:1023100010B584B001900091009B03930020FFF75B
:102320003DFE019B1B681C68621C1A6003990198A2
:10233000FFF7A8FF034623700020FFF738FE00BF19
:1023400004B010BD00B587B00390029113468DF81C
:10235000073000230593039B1B781A46114B9B5CA7
:10236000002B09D0039B04339DF8072002991846DF
:1023700004F0ACF905900FE0039B1B781A46094B5B
:102380009B5C002B08D1039B0C339DF8072002991E
:10239000184603F0C5FB0590059B184607B05DF88D
:1023A00004FB00BFB812002000B585B001900023E7
:1023B0008DF80F30019B1B781A46114B9B5C002B4C
:1023C00008D0019B0433184604F016FA03468DF832
:1023D0000F300EE0019B1B781A46094B9B5C002BCB
:1023E00007D1019B0C33184603F006FC03468DF819
:1023F0000F309DF80F30184605B05DF804FB00BFA4
:10240000B812002000B587B00390029113468DF8F2
:10241000073000230593039B1B781A46114B9B5CE6
:10242000002B09D0039B04339DF80720029918461E
:1024300004F0FAF905900FE0039B1B781A46094B4C
:102440009B5C002B08D1039B0C339DF8072002995D
:10245000184603F029FC0590059B184607B05DF867
:1024600004FB00BFB812002084B00190019B9B6860
:102470000393019BDA68039BD31A184604B0704794
:1024800000B587B001900091019B1B78022B45D0CD
:10249000022B6ADC002B52D0012B66D1019B1B7AE8
:1024A000002B05D1012233493348FFF7ABFF5DE034
:1024B000019B5B681B781946304800F0D4F9059001
:1024C000059B002B0AD001238DF80C30059B04934B
:1024D0002B4B1B6803AA104698470DE02748FFF7CF
:1024E000C3FF0346002B07D000238DF80C30244B8C
:1024F0001B6803AA104698472048FFF7B5FF03461C
:102500001E4A9288934205D801221A491A48FFF7B9
:1025100079FF2BE01B4B01221A7027E002238DF874
:102520000C30019BDB680493012212491248FFF72B
:1025300069FF134B1B6803AA1046984716E012491F
:10254000124800F0ABF90346002B05D101220E49D9
:102550000948FFF7F7FE09E003238DF80C30084B1C
:102560001B6803AA1046984700E000BF00BF07B0F1
:102570005DF804FB241000204C00002028100020EF
:102580001C100020251000202010002038100020F2
:1025900030B591B00390029101928DF803303C4A1E
:1025A000019B1360029B002B01D107236DE0029B6E
:1025B0001968029B5B689BB21A46364800F027F9FF
:1025C0000F900F9B0E930E9B002B01D00E9B5CE097
:1025D000029B9968029BDB689BB21A462E4800F06A
:1025E00016F90F900F9B0D930D9B002B01D00D9BA7
:1025F0004BE02A4B04AC1D460FCD0FC495E80F00ED
:1026000084E80F00039B5B690A93039B1B7C002BF0
:1026100014BF01230023DBB28DF824309DF8033072
:102620008DF82C30039B5B7C002B01D00E2300E047
:1026300000238DF82530039BDB680693039B9B6882
:102640000793039B1B680593039B5B68049304AB90
:10265000134A1946134804F029FB0F900F9B0C9363
:102660000C9B002B01D00C9B0FE00F4B00221A702B
:10267000039B1B68B3F1FF3F06D001220B490948B9
:10268000FFF7C0FE034600E00023184611B030BD3E
:102690001C10002028100020381000200C780300A7
:1026A000812402004C00002025100020241000206E
:1026B00000B587B00190124B1B788DF81730019947
:1026C000104800F0EBF804909DF81730002B12D062
:1026D0000B4B00221A7001220B490C48FFF792FEA7
:1026E0000390039B0293029B002B04D0084AD6213F
:1026F0000298FEF703FE049B184607B05DF804FB42
:102700002510002028100020241000204C0000205C
:102710002C78030000B585B003468DF807309DF88E
:1027200007301946104800F09EF80390039B002BD9
:1027300015D10E48FFF738FE034683F00103DBB2E4
:10274000002B0CD00A49084800F0A8F80346002BDB
:1027500005D1012206490548FFF7F4FD0390039BCC
:10276000184605B05DF804FB381000204C0000202E
:102770002010002084B00190019B9B680393019B73
:10278000DA68039BD31A184604B0704782B00190F0
:102790000B468DF80330019B1A68019BDB68019999
:1027A00089880B4013449DF803201A70019BDB6855
:1027B0005A1C019BDA6000BF02B0704784B00390DE
:1027C0000B460192ADF80A30039B1A68039B996887
:1027D000BDF80A300B44039989880B4013441A78DA
:1027E000019B1A7000BF04B0704700B583B0019020
:1027F0000091009A00210198FFF7E0FF019B9B6880
:102800005A1C019B9A6000BF03B05DF804FB84B0C2
:10281000039002911346ADF80630029B002B01D1C4
:102820000E231DE0BDF80630002B07D0BDF80630A2
:102830005A1EBDF806301340002B01D009230FE0CB
:10284000039B029A1A60BDF80630013B9AB2039BC3
:102850009A80039B00229A60039B0022DA60002387
:10286000184604B0704700B583B001900B468DF850
:1028700003300198FFF77EFF0246019B9B889A4236
:1028800007D89DF8033019460198FFF77FFF002312
:1028900000E00423184603B05DF804FB00B583B0E4
:1028A000019000910198FFF765FF0346002B05D0CA
:1028B00000990198FFF799FF002300E005231846CF
:1028C00003B05DF804FB000082B003468DF80730CA
:1028D0009DF90730002B0CDB9DF8073003F01F0239
:1028E00005499DF907305B09012000FA02F241F821
:1028F000232000BF02B0704700E100E082B0034631
:102900008DF807309DF90730002B13DB9DF8073059
:1029100003F01F0209499DF907305B09012000FA05
:1029200002F2203341F82320BFF34F8F00BFBFF3E3
:102930006F8F00BF00BF02B0704700BF00E100E032
:1029400082B003468DF807309DF90730002B0DDB70
:102950009DF8073003F01F0206499DF907305B0917
:10296000012000FA02F2403341F8232000BF02B0F8
:10297000704700BF00E100E082B003468DF80730E9
:102980009DF90730002B0DDB9DF8073003F01F0287
:1029900006499DF907305B09012000FA02F2603315
:1029A00041F8232000BF02B0704700BF00E100E003
:1029B00082B0034600918DF807309DF90730002B57
:1029C0000ADB009BDAB20C499DF907305201D2B202
:1029D0000B4483F800230BE0009BDAB207499DF813
:1029E000073003F00F03043B5201D2B20B441A76B6
:1029F00000BF02B0704700BF00E100E000ED00E062
:102A000000B585B00190019B002B0AD0074B43F025
:102A100001030393019B9B010293039B0298984738
:102A200000E000BF05B05DF804FB00BF8078030044
:102A300000B583B00190064A019BC2F80835072112
:102A40001120FFF7B5FF00BF03B05DF804FB00BF26
:102A50000010014008B50D4B4FF48032C3F84423F9
:102A60000A4B4FF48032C3F804231120FFF784FF90
:102A70001120FFF729FF054B01221A602F20FFF7D5
:102A8000BFFF034B01221A7000BF08BD00100140B8
:102A90006611002008B51120FFF730FF0E4B4FF4F0
:102AA0008032C3F848230C4B4FF48032C3F808231C
:102AB000094B01225A602F20FFF7A2FF064B01228B
:102AC0009A60064B00221A602F20FFF799FF044BF3
:102AD00000221A7000BF08BD0010014058110020EC
:102AE00066110020024BD3F804351846704700BF2A
:102AF0000010014082B001900091019A009BD31A0E
:102B000023F07F43184602B07047000082B0019066
:102B1000034A019BC2F8403500BF02B0704700BFB6
:102B20000010014086B00190284B1B68002B03D198
:102B3000264A019B136045E0019B1A68234B1B68E2
:102B40001B689A4210D8214B1B681968019B1A68B0
:102B50001E4B1B688A1A1A601C4B1A68019BDA61AB
:102B60001A4A019B13602DE0019B1B680393174BCE
:102B70001B680593154B1B68049309E0049B1B68B5
:102B8000039AD31A0393049B0593049BDB69049374
:102B9000049B002B04D0049B1B68039A9A42EDD837
:102BA000049B002B05D0049B1A68039BD21A049B3C
:102BB0001A60019B039A1A60019B049ADA61059BD3
:102BC000019ADA6100BF06B0704700BF54110020BF
:102BD00000B587B001902A4B1B680393284B1B68F4
:102BE0000593059B049308E0049A019B9A4208D040
:102BF000049B0593049BDB690493049B002BF3D196
:102C000000E000BF049B002B01D1002333E0059AB4
:102C1000049B9A4214D11A4B1B68DB69184A136053
:102C2000174B1B68002B0BD1164B01229A60164BD9
:102C300000221A60154B01221A702F20FFF7E0FEC8
:102C4000049B1B680293049BDA69059BDA61059B70
:102C5000DB690493049B002B05D0049B1A68029B3C
:102C60001A44049B1A60064B1B68039A9A4214BFCD
:102C700001230023DBB2184607B05DF804FB00BF58
:102C8000541100200010014058110020671100204D
:102C900008B51120FFF754FE00BF08BD08B5142089
:102CA000FFF74EFE00BF08BD00B583B00190019B49
:102CB0005B69019A92691046984700BF03B05DF8BE
:102CC00004FB000000B585B02B4B1B68002B4ED0D9
:102CD00000230193FFF706FF0246284B1B681946A5
:102CE0001046FFF707FF0290234B1B6803931DE07C
:102CF000039B1B68029A9A421CD3039B1B68029A8F
:102D0000D31A0293039B1B68019A13440193039BFC
:102D10000093039BDB690393009B1B7C002B05D076
:102D2000009B00221A740098FFF7BEFF039B002B44
:102D3000DED100E000BF124B1A78124B1B789A428A
:102D40000CD1104B1B780133DAB20E4B1A700D4BBD
:102D50001B78022B02D10B4B00221A70094B1B78F7
:102D60001946094A019B42F82130FFF797FF00BF3F
:102D700005B05DF804FB00BF54110020581100207D
:102D800064110020651100205C11002082B00190C8
:102D9000184B1A78184B1B789A4223D0154B1B7886
:102DA0000133DAB2134B1A70124B1B78022B02D18B
:102DB000104B00221A700F4B1B781A460F4B53F81A
:102DC0002220019B1A60019B1A680D4B1B6813445B
:102DD0000B4A13600A4B1B6823F07F43084A1360B9
:102DE000012303E0019B00221A600023184602B071
:102DF000704700BF64110020651100205C110020A5
:102E00005811002088B0039002910192002307938B
:102E100038E0204B1B680693069B1B68039A9A4276
:102E200006D2069B1A68039BD21A069B1A602EE0F4
:102E3000069B1B68039AD31A0393069B1B68079A89
:102E400013440793069B00221A60124B1B680593DC
:102E5000069BDB690F4A1360069BDB68002B11D0D1
:102E6000029A079B134423F07F42069B5A60069BFD
:102E7000DA68069B9A60019B1A68069BDA61019BDF
:102E8000059A1A60034B1B68002BC2D100BF00BF1C
:102E900008B070475411002000B589B0019000239C
:102EA0008DF81F30664B1B680593AAE0019B002B31
:102EB00005D0019B0693069BDB69019361E0614BA2
:102EC0001B781A4613465B001344DB005D4A13442B
:102ED000043304935B4B1B780133DAB2594B1A70FD
:102EE000584B1A78574B9B789A4202D1554B002287
:102EF0001A70049B5B680693049B1B78032B1ED0FF
:102F0000032B7EDC012B1FD0022B7AD1049B5B6844
:102F10001846FFF75DFE0346002B02D001238DF813
:102F20001F30069B00221A746BE0454B1B6803930D
:102F3000039B00221A74039BDB69414A1360404BD8
:102F40001B68002BF1D15CE000BF069B1B7C002BB3
:102F500000D056E0049B9A68069B5A60049BDA688E
:102F6000069B9A60049B1A69069BDA60049B5A6967
:102F7000069B9A61344B1B78002B02D0069B0022E3
:102F80005A60069B5A68314B1B68D31A23F07F4363
:102F90002F4A93420ED8069B5B682C4A1268114652
:102FA0001846FFF7A7FD0246069B9B681A44069B3E
:102FB0001A6017E0254B1A68069B5B681946104695
:102FC000FFF798FD0290069B9B68029A9A4206D2F0
:102FD000069B9A68029BD21A069B1A6002E0069B27
:102FE00000221A60069B00225A60069B00229A600B
:102FF000069B01221A74069B0022DA610698FFF7ED
:1030000091FD019B002B7FF451AF0E4B1A780D4BB5
:103010005B789A427FF44AAF9DF81F30002B04D1B1
:10302000074B1B68059A9A4201D0012300E0002358
:1030300003F00103DBB2184609B05DF804FB00BFE2
:103040005411002048100020671100205811002062
:10305000FEFF7F0010B588B00190274B1B68002B46
:1030600044D0254B1B681B680793FFF73BFD069078
:10307000224B1B68059305990698FFF73BFD034615
:10308000033304931E4B1B7883F00103DBB2002B48
:1030900001D0FFF7DFFC049A079B934238BF134629
:1030A000059A13440593059B23F07F4305930598E8
:1030B000FFF72CFDFFF716FD039006990398FFF725
:1030C00019FD0346DC1C06990598FFF713FD03461E
:1030D0009C420DD9FFF706FD03461846FFF716FD83
:1030E0002F20FFF78DFCFFF7D3FD01E0FFF7D2FCA7
:1030F00000BF08B010BD00BF5411002058110020BF
:103100006611002000B587B00023019300238DF8DD
:103110001730194B1B680493184B1B6803936B46BD
:103120001846FFF733FE03468DF80B309DF80B3041
:10313000002B08D0009B01AA04991846FFF762FEF5
:1031400001238DF81730019B1846FFF7A5FE0346B3
:10315000002B02D001238DF817309DF81730002B7B
:1031600002D00398FFF776FF054B00221A7000BFCC
:1031700007B05DF804FB00BF581100205411002077
:103180006711002082B003468DF80730034A9DF88E
:103190000730537000BF02B0704700BF48100020D6
:1031A00084B00190144B5B7801338DF80F30124BD3
:1031B0009B789DF80F209A4202D100238DF80F30A2
:1031C0000D4B1B789DF80F209A4201D100230FE090
:1031D000019B9DF80F201A70074B5B781A46134627
:1031E0005B001344DB00044A134404330293029B44
:1031F000184604B0704700BF4810002000B589B0E1
:103200000390029101920093002307930020FEF7A0
:10321000C5FE0DF117031846FFF7C2FF0690069B87
:10322000002B02D10423079318E0069B01221A7099
:10323000069B039A5A60FFF755FC0246069B9A606C
:10324000069B029ADA60069B019A1A61069B009A15
:103250005A619DF817301846FFF794FF0020FEF7DB
:10326000A6FE079B002B01D1FFF718FD079B184610
:1032700009B05DF804FB00B587B001900B468DF8EE
:103280000330002305930020FEF788FE0DF10F03A5
:103290001846FFF785FF0490049B002B02D10423FE
:1032A00005930BE0049B9DF803201A70049B019A80
:1032B0005A609DF80F301846FFF764FF0020FEF7B4
:1032C00076FE059B002B01D1FFF7E8FC059B184615
:1032D00007B05DF804FB000008B50E4B0022C3F8F0
:1032E00040210C4B0022C3F844210A4B0022C3F8B2
:1032F0004821084B0022C3F84C21064B0022C3F89A
:103300000021044B0022C3F80421FFF7DBFC00BFBF
:1033100008BD00BF0010014008B5FFF7F3FE00BF75
:1033200008BD000008B5FFF7B5FB134B00221A706B
:10333000114B00225A70104B0B229A700F4B002237
:103340001A600F4B00221A700E4B00221A701420C4
:10335000FFF712FB07211420FFF72AFB1420FFF7C9
:10336000B3FA0120FFF764FBFFF7BCFB0346064AF4
:1033700013600023184608BD481000205411002097
:1033800064110020651100205811002086B00390C0
:103390000B4601928DF80B30134B9B78002B01D11B
:1033A00008231EE0019B002B01D1072319E0039B9A
:1033B000002B01D1072314E0039B1B681B7C002B0F
:1033C00001D008230DE0039B1B680593059B002299
:1033D0001A74059B9DF80B205A74059B019A5A613B
:1033E0000023184606B070474810002000B587B08B
:1033F000039002910192039B0593164B9B78002B3F
:1034000001D1082322E0039B002B01D108231DE0FA
:10341000029B042B03D9029BB3F1807F01D30723C6
:1034200014E0059B5B69002B01D108230EE0059B8E
:103430005B7C012B01D1029B00E000230493019BE4
:10344000049A02990598FFF7D9FE0346184607B07B
:103450005DF804FB4810002000B585B00190019B89
:1034600003930D4B9B78002B01D1082310E0019BA7
:10347000002B03D0039B5B69002B01D1082307E0DD
:10348000039B00221A7402210398FFF7F4FE0346FF
:10349000184605B05DF804FB48100020BFF34F8FBD
:1034A00000BF064BDB6803F4E0620449044B13439E
:1034B000CB60BFF34F8F00BF00BFFDE700ED00E022
:1034C0000400FA0582B0114B1B680193104B1B6876
:1034D0000093019B0D2B14D1009B022B0DD0009B60
:1034E000022B0CD8009B002B03D0009B012B02D099
:1034F00005E0012306E0012304E0012302E00123AB
:1035000000E00023184602B0704700BF30010010F1
:103510003401001082B0114B1B680193104B1B68E3
:103520000093019B0D2B14D1009B022B0DD0009B0F
:10353000022B0CD8009B002B03D0009B012B02D048
:1035400005E0012306E0012304E0012302E001235A
:1035500000E00023184602B0704700BF30010010A1
:103560003401001082B0114B1B680193104B1B6893
:103570000093019B0D2B14D1009B022B0DD0009BBF
:10358000022B0CD8009B002B03D0009B012B02D0F8
:1035900005E0012306E0012304E0012302E001230A
:1035A00000E00023184602B0704700BF3001001051
:1035B0003401001082B0114B1B680193104B1B6843
:1035C0000093019B0D2B14D1009B022B0DD0009B6F
:1035D000022B0CD8009B002B03D0009B012B02D0A8
:1035E00005E0002306E0002304E0012302E00123BC
:1035F00000E00023184602B0704700BF3001001001
:103600003401001008B5FFF7D5FF0346002B07D0A3
:103610004FF010234FF08042D3F80832C2F85835EB
:1036200000BF08BD00BF044BD3F80034002BFAD014
:1036300000BF00BF704700BF00E0014000B583B08D
:103640000190054A019BC2F80435FFF7EBFF00BF6C
:1036500003B05DF804FB00BF00E00140024B034AE9
:103660001A6000BF704700BF600000200090D003C8
:1036700008B5FFF727FF0346002B0ED04FF080431D
:103680000022C3F80C214FF080430022C3F8102120
:103690004FF080430022C3F83825FFF73BFF034675
:1036A000002B76D04FF080535E4AD3F80434C2F832
:1036B00020354FF080535B4AD3F80834C2F82435E4
:1036C0004FF08053574AD3F80C34C2F828354FF0E6
:1036D0008053544AD3F81034C2F82C354FF080533D
:1036E000504AD3F81434C2F830354FF080534D4A65
:1036F000D3F81834C2F834354FF08053494AD3F820
:103700001C34C2F840354FF08053464AD3F8203479
:10371000C2F844354FF08053424AD3F82434C2F8FB
:1037200048354FF080533F4AD3F82834C2F84C351F
:103730004FF080533B4AD3F82C34C2F850354FF049
:103740008053384AD3F83034C2F854354FF08053A0
:10375000344AD3F83434C2F860354FF08053314ADC
:10376000D3F83834C2F864354FF080532D4AD3F87B
:103770003C34C2F868354FF080532A4AD3F84034BD
:10378000C2F86C354FF08053264AD3F84434C2F85F
:103790007035FFF7E7FE0346002B0DD04FF0804356
:1037A000D3F8003403F00103002B05D04FF0804321
:1037B0006FF00102C3F800241B4BD3F888301A4A7B
:1037C00043F47003C2F88830BFF34F8F00BFBFF3DC
:1037D0006F8F00BFFFF716FF4FF01023D3F80032B2
:1037E000002B05DB4FF01023D3F80432002B15DA41
:1037F0000120FFF723FF4FF010231222C3F800220D
:10380000FFF710FF4FF010231222C3F80422FFF736
:1038100009FF0020FFF712FFFFF740FEFFF71EFF32
:1038200000BF08BD00C0004000ED00E082B0019084
:10383000019B1B681F2B02D84FF0A04306E0019BA1
:103840001B6803F01F02019B1A60024B184602B06E
:10385000704700BF0003005000B585B001900846D6
:1038600011461A4603468DF803300B468DF8023098
:1038700013468DF8013001AB1846FFF7D7FF0390D0
:103880009DF803209DF802305B001A439DF801303B
:103890009B001A439DF818301B0242EA03019DF871
:1038A0001C301B04019A1943039B02F5E07243F894
:1038B000221000BF05B05DF804FB00B585B0039091
:1038C0000023019300230093002301220121039888
:1038D000FFF7C2FF00BF05B05DF804FB00B585B07F
:1038E00003900B468DF80B309DF80B3000220192AF
:1038F00000220092002200210398FFF7ADFF00BFD5
:1039000005B05DF804FB00B585B0019001AB184629
:10391000FFF78CFF0390019B012202FA03F3194683
:10392000039800F02AF800BF05B05DF804FB00B56D
:1039300085B0019001AB1846FFF778FF0390019B1B
:10394000012202FA03F31946039800F020F800BFA1
:1039500005B05DF804FB00B583B001900091009BB9
:10396000002B03D10198FFF7E2FF02E00198FFF777
:10397000CAFF00BF03B05DF804FB82B00190009164
:10398000019B009AC3F8082500BF02B0704782B0BF
:1039900001900091019B009AC3F80C2500BF02B072
:1039A0007047000000B583B00190064A019B1344A4
:1039B0001B7800211846FFF7CEFF00BF03B05DF86B
:1039C00004FB00BF8878030000B583B00190064A6D
:1039D000019B13441B7801211846FFF7BCFF00BF71
:1039E00003B05DF804FB00BF8878030000B583B026
:1039F0000023019305E00198FFF7E6FF019B0133E7
:103A00000193019B032BF6D900BF00BF03B05DF803
:103A100004FB000000B583B00023019309E0094ACC
:103A2000019B13441B781846FFF747FF019B0133A6
:103A30000193019B032BF2D9FFF7D8FF00BF03B01E
:103A40005DF804FB8878030000B583B00023019380
:103A500007E0022303211846FFF740FF019B0133D3
:103A60000193019B002BF4D000BF00BF03B05DF8B1
:103A700004FB00B583B00190019B03F00103002B10
:103A800001D0FFF7C7FF019B03F00203002B01D019
:103A9000FFF7DAFF00BF03B05DF804FB00B589B0A3
:103AA00001900091009B0793019B1B788DF80830D3
:103AB000019B5B680393019B9B68DBB28DF8103020
:103AC000019BDB680593019B1B69DBB28DF8183005
:103AD000074A079B52F823300649079A51F82210EB
:103AE00002AA1046984700BF09B05DF804FB00BF6A
:103AF000681100207811002010B58AB0039002915F
:103B000001920093039B1B7809932249099B019A18
:103B100041F823202049099B009A41F823200023E3
:103B200008931E4B04AC0FCB84E80F00029B1B785C
:103B30008DF81030029B5B788DF81130029B9B78DA
:103B40008DF81230029BDB788DF81330029B1B79C5
:103B50008DF81530029B5B798DF81630029B9B68BF
:103B60000693029B1B7B8DF81C30029B5B7B8DF8C0
:103B70001D30039B181D019B002B01D0084A00E05B
:103B80000022099B04A900F0BFFA0890089B184680
:103B90000AB010BD68110020781100208C78030055
:103BA0009D3A020008B5024B1B68984700BF08BD4C
:103BB0008811002082B00190019B044A934201D1F8
:103BC000034B00E00023184602B07047002000407D
:103BD0008811002000B587B0019000910198FFF78F
:103BE000E9FF0390039B002B1ED000238DF81730B4
:103BF0000020FEF7D3F9039B1B79002B03D0012390
:103C00008DF8173005E0039B009A1A60039B012290
:103C10001A710020FEF7CBF99DF81730002B03D066
:103C200011230493049B02E000230493049B184691
:103C300007B05DF804FB000082B003468DF8073042
:103C40009DF90730002B0CDB9DF8073003F01F02B5
:103C500005499DF907305B09012000FA02F241F89D
:103C6000232000BF02B0704700E100E082B00346AD
:103C700000918DF807309DF90730002B0ADB009B7F
:103C8000DAB20C499DF907305201D2B20B4483F8E5
:103C900000230BE0009BDAB207499DF8073003F0E0
:103CA0000F03043B5201D2B20B441A7600BF02B09C
:103CB000704700BF00E100E000ED00E082B001903D
:103CC000019B03F06043B3F1005F0CBF01230023AD
:103CD000DBB2184602B0704782B00190019B1B0B0B
:103CE0005BB2184602B0704700B583B003460A467F
:103CF0008DF8073013468DF806309DF806209DF9A3
:103D0000073011461846FFF7B1FF00BF03B05DF85A
:103D100004FB00B583B003468DF807309DF90730EA
:103D20001846FFF789FF00BF03B05DF804FB82B0BF
:103D300001900B468DF803309DF80330019A13442F
:103D400001221A6000BF02B0704784B001900B4698
:103D5000ADF80230BDF80230019A134400221A6017
:103D6000BDF80230019A13441B680393039B00BF04
:103D700004B0704782B001900B46ADF80230BDF838
:103D80000230019A13441B68002B14BF0123002347
:103D9000DBB2184602B0704782B001900091019BDF
:103DA000009AC3F8042300BF02B0704782B00190AC
:103DB0000091019B009AC3F8082300BF02B070472E
:103DC00082B00190019B0722C3F8002500BF02B01A
:103DD000704784B00390029101920093039B029A72
:103DE000C3F80825039B019AC3F80C25039B009A8E
:103DF000C3F8102500BF04B0704782B00190009155
:103E0000009A019BC3F8242500BF02B0704784B01C
:103E1000039002910192029A039BC3F84425039BED
:103E2000019AC3F8482500BF04B0704784B00390DE
:103E300002910192029A039BC3F83425039B019AD5
:103E4000C3F8382500BF04B0704784B001900B461A
:103E50008DF8033013468DF802309DF80230002BA8
:103E600014BF01230023DBB203939DF80330032B1F
:103E700010D0032B13DC012B02D0022B05D00EE057
:103E8000039B43F0020303930AE0039B43F0040304
:103E9000039305E0039B43F00603039300E000BF98
:103EA000019B039AC3F8542500BF04B0704782B049
:103EB00001900B468DF803309DF80320019BC3F859
:103EC000C02500BF02B0704782B00190019B012263
:103ED000C3F8502500BF02B0704782B00190019B2B
:103EE0000022C3F8502500BF02B0704782B0019095
:103EF000019B0122C3F8402500BF02B0704782B089
:103F00000190019B0022C3F8402500BF02B070471A
:103F100082B00190019B1B681F2B02D84FF0A04379
:103F200006E0019B1B6803F01F02019B1A60024B15
:103F3000184602B0704700BF0003005000B585B0BE
:103F40000190084611461A4603468DF803300B4689
:103F50008DF8023013468DF8013001AB1846FFF79B
:103F6000D7FF03909DF803209DF802305B001A43B1
:103F70009DF801309B001A439DF818301B0242EA5D
:103F800003019DF81C301B04019A1943039B02F5A1
:103F9000E07243F8221000BF05B05DF804FB00B5E5
:103FA00085B0039000230193002300930023012296
:103FB00001210398FFF7C2FF00BF05B05DF804FBC5
:103FC00000B585B003900B468DF80B309DF80B3093
:103FD0000022019200220092002200210398FFF7A4
:103FE000ADFF00BF05B05DF804FB00B585B00190E2
:103FF00001AB1846FFF78CFF0390019B012202FAE8
:1040000003F31946039800F018F800BF05B05DF8F7
:1040100004FB00B585B0019001AB1846FFF778FFAF
:104020000390019B012202FA03F31946039800F062
:104030000EF800BF05B05DF804FB82B0019000915E
:10404000019B009AC3F8082500BF02B0704782B0F8
:1040500001900091019B009AC3F80C2500BF02B0AB
:104060007047000086B0019000911E4B1B681E4AED
:104070001360009B002B31D0019B009A13440293E4
:10408000019B23F4FF5323F01F030593059B5B0B58
:104090009BB2012202FA03F3049300230393059BCE
:1040A000124A934203D94FF48073039312E0039AA8
:1040B000049B13430393049B5B000493059B03F54C
:1040C00000530593059A029B9A4203D2059B084A26
:1040D0009342ECD3034A039B136000E000BF06B099
:1040E000704700BF000E0040FC110020FFFF0020C1
:1040F00000200120024A034B1B68136000BF704779
:10410000000E0040FC11002000B58DB00590049118
:1041100003920293059B1B791A461346DB00134456
:104120009B00664A13440A930A9B1B7F002B03D013
:1041300008230793079BBDE0059B1B680993059B1C
:104140001A68059B1B7919465D4B53F821301946B7
:104150001046FFF73FFD0346002B03D011230793C2
:10416000079BA7E00A9B039A1A600A9B029A5A606F
:10417000049B1B7B012B05D8049B1B781846FFF77B
:1041800048FF04E0049B1B781846FFF72EFF049BB2
:104190001B7818460023019300230093002300227C
:1041A0000121FFF7CBFE049B5B78FF2B09D0049B1A
:1041B0005B780B930B98FFF72CFF0B98FFF7EFFE44
:1041C00002E04FF0FF330B93049B9B78FF2B07D04B
:1041D000049B9B78089301210898FFF7F1FE02E009
:1041E0004FF0FF330893049B9A780A9B83F82020B2
:1041F000049BDA780A9BDA77049BDB78FF2B17D0D5
:10420000049B1B79002B05D0049BDB781846FFF735
:1042100000FF04E0049BDB781846FFF7E6FE049BF2
:10422000DB781846FFF7BBFE049B1A790A9B9A7746
:10423000049B1B781946089B0B9A0998FFF7C9FD48
:10424000049B9B6819460998FFF7D7FD049B197BCF
:10425000049B5B7B1A460998FFF7F7FD049B9B794B
:1042600019460998FFF723FE0998FFF7A9FD0A9B55
:104270001B68002B15D0059B1B681846FFF72CFD0B
:1042800003461A46049B5B7919461046FFF72CFD3E
:10429000059B1B681846FFF71FFD03461846FFF7EE
:1042A00038FD0A9B00225A770A9B01221A770023C5
:1042B0000793079B18460DB05DF804FB9011002092
:1042C000A878030000B583B00190019BDB7FFF2B32
:1042D0000ED0019B9B7F002B05D0019BDB7F1846F6
:1042E000FFF797FE04E0019BDB7F1846FFF77DFE9A
:1042F000019B00225A77019B00221A72019B1B68C6
:10430000019A02F10800019A52681146984700BFCD
:1043100003B05DF804FB00B583B001900B468DF847
:1043200003309DF8033083F00103DBB2002B04D08F
:1043300040210198FFF73AFD03E040210198FFF783
:104340002BFD00BF03B05DF804FB00B583B0019006
:104350000091009B03F00103002B03D00198FFF7AD
:10436000B3FD02E00198FFF7B8FD009B03F00203E4
:10437000002B03D00198FFF7B9FD02E00198FFF789
:10438000BEFD00BF03B05DF804FB000000B587B0C0
:104390000390029101920093019B1B68002B0AD0AD
:1043A000019B1B681846FFF789FC034683F0010355
:1043B000DBB2002B0ED1019B9B68002B11D0019B1F
:1043C0009B681846FFF77AFC034683F00103DBB2D3
:1043D000002B06D0029B00225A7710230593059BE1
:1043E00066E0019B1968019B5B681A460398FFF71A
:1043F0000EFD019B9968019BDB681A460398FFF745
:1044000015FD039B2C4A934207D1019B1A68019B1F
:104410005B6819461046FFF725FE4FF48C71039830
:10442000FFF793FC00990398FFF78FFF009B03F0C1
:104430000803002B03D110210398FFF778FC029B9F
:104440001B68002B25D100BF4FF48C710398FFF738
:1044500091FC034683F00103DBB2002BF4D1039BF4
:10446000154A934201D1FFF745FE029BDB7FFF2BEC
:104470001BD0029B9B7F002B05D0029BDB7F184645
:10448000FFF7C7FD11E0029BDB7F1846FFF7ADFD8C
:104490000BE0009B03F00403002B0CBF012300235F
:1044A000DBB219460398FFF736FF00230593059BFF
:1044B000184607B05DF804FB00F0024010B586B066
:1044C000039002910192039B1B791A461346DB006D
:1044D00013449B001F4A1344049300230593049B39
:1044E0005B7FDBB2002B03D011230593059B2EE0ED
:1044F000049B1B68002B07D0019B03F01403002BC7
:1045000002D1049B01225A77049B029A03F10C0406
:1045100013460FCB84E80F00049BDB7FFF2B0ED0EC
:10452000049B9B7F002B05D0049BDB7F1846FFF785
:104530005CFD04E0049BDB7F1846FFF76AFD039BEC
:104540001868019B029A0499FFF720FF034618465A
:1045500006B010BD9011002000B583B0019000910D
:104560004FF48C710198FFF705FC0346002B0DD02A
:10457000019B084A934201D1FFF7BCFD4FF48C71B7
:104580000198FFF7E2FB0098FFF79CFE00BF03B025
:104590005DF804FB00F0024008B503490348FFF74B
:1045A000DBFF00BF08BD00BF9011002000300040BD
:1045B00008B503490348FFF7CFFF00BF08BD00BFA0
:1045C000B41100200030024008B503490348FFF74A
:1045D000C3FF00BF08BD00BFD811002000F002409B
:1045E00082B003468DF807309DF90730002B0CDBB5
:1045F0009DF8073003F01F0205499DF907305B095C
:10460000012000FA02F241F8232000BF02B07047F7
:1046100000E100E082B0034600918DF807309DF97B
:104620000730002B0ADB009BDAB20C499DF90730FA
:104630005201D2B20B4483F800230BE0009BDAB2A4
:1046400007499DF8073003F00F03043B5201D2B233
:104650000B441A7600BF02B0704700BF00E100E0D3
:1046600000ED00E082B00190019B1B0B5BB218468D
:1046700002B0704700B583B003460A468DF8073094
:1046800013468DF806309DF806209DF90730114637
:104690001846FFF7BFFF00BF03B05DF804FB00B58D
:1046A00083B003468DF807309DF907301846FFF7B1
:1046B00097FF00BF03B05DF804FB00B583B003466D
:1046C000ADF80630BDF80630184600F026F803466F
:1046D0001B68012B0CBF01230023DBB2184603B07B
:1046E0005DF804FB00B585B00346ADF80630BDF8B3
:1046F0000630184600F011F803461A4600231360EE
:10470000BDF80630184600F008F803461B6803930E
:10471000039B00BF05B05DF804FB82B00346ADF813
:104720000630BDF8063003F1804303F5C043184658
:1047300002B0704782B00190034A019BC2F8043373
:1047400000BF02B0704700BF0060004082B001901F
:10475000034A019BC2F8083300BF02B0704700BF94
:104760000060004082B00190034BD3F80423019B0A
:104770001340184602B070470060004082B00190BC
:10478000084A019B03F5A27352F82330054943F010
:104790000102019B03F5A27341F8232000BF02B080
:1047A000704700BF0060004082B00190084A019B42
:1047B00003F5A27352F82330054923F00102019B4F
:1047C00003F5A27341F8232000BF02B0704700BF79
:1047D0000060004084B00390029113468DF80730CA
:1047E000144A039B03F5A27352F82330114923F4B2
:1047F0004F3323F44073039A02F5A27241F822303A
:104800000C4A039B03F5A27352F82320029B1B0260
:1048100003F47C519DF807301B0403F440330B4331
:1048200004491A43039B03F5A27341F8232000BFF8
:1048300004B070470060004082B00190054A019BBF
:1048400003F5A27352F823301B0A03F03F03184606
:1048500002B070470060004082B00190064A019BA0
:1048600003F5A27352F823301B0C03F00303DBB2F1
:10487000184602B0704700BF0060004084B003904B
:10488000029111461A460B468DF8073013468DF8F3
:104890000630184A039B03F5A27352F823301549DA
:1048A00023F4991323F4F853039A02F5A27241F802
:1048B0002230104A039B03F5A27352F82320029B77
:1048C0001B0203F47C519DF807301B0403F44033B2
